{"contracts/GenesisGovernance.sol":{"GenesisGovernance":{"abi":[{"inputs":[],"stateMutability":"nonpayable","type":"constructor"},{"inputs":[{"internalType":"address","name":"owner","type":"address"}],"name":"OwnableInvalidOwner","type":"error"},{"inputs":[{"internalType":"address","name":"account","type":"address"}],"name":"OwnableUnauthorizedAccount","type":"error"},{"anonymous":false,"inputs":[{"indexed":false,"internalType":"string","name":"parameter","type":"string"},{"indexed":false,"internalType":"uint256","name":"oldValue","type":"uint256"},{"indexed":false,"internalType":"uint256","name":"newValue","type":"uint256"},{"indexed":false,"internalType":"uint256","name":"timestamp","type":"uint256"}],"name":"GovernanceConfigChanged","type":"event"},{"anonymous":false,"inputs":[{"indexed":true,"internalType":"address","name":"previousOwner","type":"address"},{"indexed":true,"internalType":"address","name":"newOwner","type":"address"}],"name":"OwnershipTransferred","type":"event"},{"anonymous":false,"inputs":[{"indexed":true,"internalType":"uint256","name":"proposalId","type":"uint256"},{"indexed":true,"internalType":"address","name":"canceller","type":"address"},{"indexed":false,"internalType":"string","name":"reason","type":"string"},{"indexed":false,"internalType":"uint256","name":"timestamp","type":"uint256"}],"name":"ProposalCancelled","type":"event"},{"anonymous":false,"inputs":[{"indexed":true,"internalType":"uint256","name":"proposalId","type":"uint256"},{"indexed":true,"internalType":"address","name":"proposer","type":"address"},{"indexed":false,"internalType":"string","name":"title","type":"string"},{"indexed":false,"internalType":"string","name":"description","type":"string"},{"indexed":false,"internalType":"uint256","name":"startTime","type":"uint256"},{"indexed":false,"internalType":"uint256","name":"endTime","type":"uint256"},{"indexed":false,"internalType":"uint256","name":"timestamp","type":"uint256"}],"name":"ProposalCreated","type":"event"},{"anonymous":false,"inputs":[{"indexed":true,"internalType":"uint256","name":"proposalId","type":"uint256"},{"indexed":true,"internalType":"address","name":"executor","type":"address"},{"indexed":false,"internalType":"uint256","name":"votesFor","type":"uint256"},{"indexed":false,"internalType":"uint256","name":"votesAgainst","type":"uint256"},{"indexed":false,"internalType":"uint256","name":"timestamp","type":"uint256"}],"name":"ProposalExecuted","type":"event"},{"anonymous":false,"inputs":[{"indexed":true,"internalType":"uint256","name":"proposalId","type":"uint256"},{"indexed":false,"internalType":"enum GenesisGovernance.ProposalState","name":"oldState","type":"uint8"},{"indexed":false,"internalType":"enum GenesisGovernance.ProposalState","name":"newState","type":"uint8"},{"indexed":false,"internalType":"uint256","name":"timestamp","type":"uint256"}],"name":"ProposalStateChanged","type":"event"},{"anonymous":false,"inputs":[{"indexed":true,"internalType":"uint256","name":"proposalId","type":"uint256"},{"indexed":true,"internalType":"address","name":"voter","type":"address"},{"indexed":false,"internalType":"enum GenesisGovernance.VoteType","name":"voteType","type":"uint8"},{"indexed":false,"internalType":"uint256","name":"weight","type":"uint256"},{"indexed":false,"internalType":"string","name":"reason","type":"string"},{"indexed":false,"internalType":"uint256","name":"timestamp","type":"uint256"}],"name":"VoteCast","type":"event"},{"inputs":[{"internalType":"uint256","name":"proposalId","type":"uint256"},{"internalType":"string","name":"reason","type":"string"}],"name":"cancelProposal","outputs":[],"stateMutability":"nonpayable","type":"function"},{"inputs":[{"internalType":"uint256","name":"proposalId","type":"uint256"},{"internalType":"enum GenesisGovernance.VoteType","name":"voteType","type":"uint8"},{"internalType":"uint256","name":"weight","type":"uint256"},{"internalType":"string","name":"reason","type":"string"}],"name":"castVote","outputs":[],"stateMutability":"nonpayable","type":"function"},{"inputs":[{"internalType":"string","name":"title","type":"string"},{"internalType":"string","name":"description","type":"string"},{"internalType":"uint256","name":"durationOverride","type":"uint256"}],"name":"createProposal","outputs":[{"internalType":"uint256","name":"proposalId","type":"uint256"}],"stateMutability":"nonpayable","type":"function"},{"inputs":[{"internalType":"uint256","name":"proposalId","type":"uint256"}],"name":"executeProposal","outputs":[],"stateMutability":"nonpayable","type":"function"},{"inputs":[{"internalType":"uint256","name":"proposalId","type":"uint256"}],"name":"finalizeProposal","outputs":[],"stateMutability":"nonpayable","type":"function"},{"inputs":[],"name":"getProposalCount","outputs":[{"internalType":"uint256","name":"","type":"uint256"}],"stateMutability":"view","type":"function"},{"inputs":[{"internalType":"uint256","name":"proposalId","type":"uint256"}],"name":"getProposalInfo","outputs":[{"internalType":"address","name":"proposer","type":"address"},{"internalType":"string","name":"title","type":"string"},{"internalType":"uint256","name":"votesFor","type":"uint256"},{"internalType":"uint256","name":"votesAgainst","type":"uint256"},{"internalType":"uint256","name":"votesAbstain","type":"uint256"},{"internalType":"enum GenesisGovernance.ProposalState","name":"state","type":"uint8"},{"internalType":"bool","name":"executed","type":"bool"}],"stateMutability":"view","type":"function"},{"inputs":[{"internalType":"uint256","name":"proposalId","type":"uint256"}],"name":"getVoteResult","outputs":[{"internalType":"uint256","name":"forVotes","type":"uint256"},{"internalType":"uint256","name":"againstVotes","type":"uint256"},{"internalType":"uint256","name":"abstainVotes","type":"uint256"},{"internalType":"uint256","name":"totalVotes","type":"uint256"},{"internalType":"bool","name":"quorumReached","type":"bool"},{"internalType":"bool","name":"passed","type":"bool"}],"stateMutability":"view","type":"function"},{"inputs":[{"internalType":"uint256","name":"","type":"uint256"},{"internalType":"address","name":"","type":"address"}],"name":"hasVoted","outputs":[{"internalType":"bool","name":"","type":"bool"}],"stateMutability":"view","type":"function"},{"inputs":[],"name":"owner","outputs":[{"internalType":"address","name":"","type":"address"}],"stateMutability":"view","type":"function"},{"inputs":[],"name":"proposalThreshold","outputs":[{"internalType":"uint256","name":"","type":"uint256"}],"stateMutability":"view","type":"function"},{"inputs":[{"internalType":"uint256","name":"","type":"uint256"}],"name":"proposals","outputs":[{"internalType":"uint256","name":"id","type":"uint256"},{"internalType":"address","name":"proposer","type":"address"},{"internalType":"string","name":"title","type":"string"},{"internalType":"string","name":"description","type":"string"},{"internalType":"uint256","name":"votesFor","type":"uint256"},{"internalType":"uint256","name":"votesAgainst","type":"uint256"},{"internalType":"uint256","name":"votesAbstain","type":"uint256"},{"internalType":"uint256","name":"startTime","type":"uint256"},{"internalType":"uint256","name":"endTime","type":"uint256"},{"internalType":"enum GenesisGovernance.ProposalState","name":"state","type":"uint8"},{"internalType":"bool","name":"executed","type":"bool"}],"stateMutability":"view","type":"function"},{"inputs":[],"name":"quorumVotes","outputs":[{"internalType":"uint256","name":"","type":"uint256"}],"stateMutability":"view","type":"function"},{"inputs":[],"name":"renounceOwnership","outputs":[],"stateMutability":"nonpayable","type":"function"},{"inputs":[{"internalType":"uint256","name":"newThreshold","type":"uint256"}],"name":"setProposalThreshold","outputs":[],"stateMutability":"nonpayable","type":"function"},{"inputs":[{"internalType":"uint256","name":"newQuorum","type":"uint256"}],"name":"setQuorum","outputs":[],"stateMutability":"nonpayable","type":"function"},{"inputs":[{"internalType":"uint256","name":"newDuration","type":"uint256"}],"name":"setVotingDuration","outputs":[],"stateMutability":"nonpayable","type":"function"},{"inputs":[],"name":"totalProposals","outputs":[{"internalType":"uint256","name":"","type":"uint256"}],"stateMutability":"view","type":"function"},{"inputs":[],"name":"totalVotesCast","outputs":[{"internalType":"uint256","name":"","type":"uint256"}],"stateMutability":"view","type":"function"},{"inputs":[{"internalType":"address","name":"newOwner","type":"address"}],"name":"transferOwnership","outputs":[],"stateMutability":"nonpayable","type":"function"},{"inputs":[{"internalType":"uint256","name":"","type":"uint256"},{"internalType":"address","name":"","type":"address"}],"name":"voterChoice","outputs":[{"internalType":"enum GenesisGovernance.VoteType","name":"","type":"uint8"}],"stateMutability":"view","type":"function"},{"inputs":[],"name":"votingDuration","outputs":[{"internalType":"uint256","name":"","type":"uint256"}],"stateMutability":"view","type":"function"}],"evm":{"bytecode":{"linkReferences":{},"object":"60806040526203f480600455633b9aca006005556305f5e10060065534801561002757600080fd5b50338061004e57604051631e4fbdf760e01b81526000600482015260240160405180910390fd5b6100578161005d565b506100ad565b600080546001600160a01b038381166001600160a01b0319831681178455604051919092169283917f8be0079c531659141344cd1fd0a4f28419497f9722a3daafe3b4186f6b6457e09190a35050565b611916806100bc6000396000f3fe608060405234801561001057600080fd5b50600436106101425760003560e01c80638da5cb5b116100b8578063bc903cb81161007c578063bc903cb8146102c5578063bfa0fc93146102eb578063c08cc02d1461032f578063c1ba4e5914610337578063ece40cc11461034a578063f2fde38b1461035d57600080fd5b80638da5cb5b14610272578063a351f6151461028d578063a78d80fc146102a0578063aa732a30146102a9578063b58131b0146102bc57600080fd5b8063438596321161010a57806343859632146101c257806351477141146102005780635652077c1461023b5780635bcfadb51461024e578063715018a6146102615780637de418d51461026957600080fd5b8063013cf08b146101475780630ce0ebf41461017a5780630d61b5191461019b578063132002fc146101b057806324bc1a64146101b9575b600080fd5b61015a61015536600461126a565b610370565b6040516101719b9a999897969594939291906112f3565b60405180910390f35b61018d6101883660046113c4565b6104fa565b604051908152602001610171565b6101ae6101a936600461126a565b610794565b005b61018d60045481565b61018d60055481565b6101f06101d0366004611454565b600260209081526000928352604080842090915290825290205460ff1681565b6040519015158152602001610171565b61022e61020e366004611454565b600360209081526000928352604080842090915290825290205460ff1681565b6040516101719190611490565b6101ae61024936600461126a565b610928565b6101ae61025c36600461126a565b610a67565b6101ae610ae2565b61018d60085481565b6000546040516001600160a01b039091168152602001610171565b6101ae61029b3660046114a4565b610af6565b61018d60075481565b6101ae6102b73660046114f0565b610c79565b61018d60065481565b6102d86102d336600461126a565b610f23565b604051610171979695949392919061155e565b6102fe6102f936600461126a565b611033565b60408051968752602087019590955293850192909252606084015215156080830152151560a082015260c001610171565b60015461018d565b6101ae61034536600461126a565b6110c9565b6101ae61035836600461126a565b611139565b6101ae61036b3660046115b7565b6111af565b6001818154811061038057600080fd5b60009182526020909120600a90910201805460018201546002830180549294506001600160a01b0390911692916103b6906115d9565b80601f01602080910402602001604051908101604052809291908181526020018280546103e2906115d9565b801561042f5780601f106104045761010080835404028352916020019161042f565b820191906000526020600020905b81548152906001019060200180831161041257829003601f168201915b505050505090806003018054610444906115d9565b80601f0160208091040260200160405190810160405280929190818152602001828054610470906115d9565b80156104bd5780601f10610492576101008083540402835291602001916104bd565b820191906000526020600020905b8154815290600101906020018083116104a057829003601f168201915b5050506004840154600585015460068601546007870154600888015460099098015496979396929550909350919060ff808216916101009004168b565b6000846105415760405162461bcd60e51b815260206004820152601060248201526f476f763a20656d707479207469746c6560801b60448201526064015b60405180910390fd5b600080831161055257600454610554565b825b905060018054905091506001604051806101600160405280848152602001336001600160a01b0316815260200189898080601f016020809104026020016040519081016040528093929190818152602001838380828437600092019190915250505090825250604080516020601f8a0181900481028201810190925288815291810191908990899081908401838280828437600092018290525093855250505060208201819052604082018190526060820152426080820181905260a090910190610620908590611629565b81526020016000815260006020918201819052835460018082018655948252908290208351600a909202019081559082015192810180546001600160a01b0319166001600160a01b03909416939093179092556040810151909190600282019061068a90826116a3565b506060820151600382019061069f90826116a3565b506080820151816004015560a0820151816005015560c0820151816006015560e0820151816007015561010082015181600801556101208201518160090160006101000a81548160ff021916908360048111156106fe576106fe6112c9565b02179055506101409190910151600990910180549115156101000261ff00199092169190911790556007805490600061073683611763565b90915550339050827f16834ed4a5bc4e8c7dd82adde6b35e2f4bb7ea06ff9e4a4d822a61d96c37705f898989894261076e8982611629565b4260405161078297969594939291906117a5565b60405180910390a35095945050505050565b60015481106107b55760405162461bcd60e51b8152600401610538906117ec565b6000600182815481106107ca576107ca61181b565b60009182526020909120600a9091020190506001600982015460ff1660048111156107f7576107f76112c9565b146108365760405162461bcd60e51b815260206004820152600f60248201526e11dbdd8e881b9bdd081c185cdcd959608a1b6044820152606401610538565b6009810154610100900460ff16156108885760405162461bcd60e51b815260206004820152601560248201527411dbdd8e88185b1c9958591e48195e1958dd5d1959605a1b6044820152606401610538565b60098101805461ffff191661010317905560048101546005820154604080519283526020830191909152428282015251339184917f68ab678db8d2ac30ade450d2f61b71d192fb3940bf122fb1748c4d0b4d1d68fa9181900360600190a3817fd8ed8371ab6117327e418ae4493b065e766893c1862c8de3e11e81198001a300600160034260405161091c93929190611831565b60405180910390a25050565b60015481106109495760405162461bcd60e51b8152600401610538906117ec565b60006001828154811061095e5761095e61181b565b600091825260208220600a909102019150600982015460ff166004811115610988576109886112c9565b146109a55760405162461bcd60e51b81526004016105389061185a565b600981015460068201546005830154600484015460ff90931692600092916109cc91611629565b6109d69190611629565b905060055481101580156109f1575082600501548360040154115b15610a0a5760098301805460ff19166001179055610a1a565b60098301805460ff191660021790555b600983015460405185917fd8ed8371ab6117327e418ae4493b065e766893c1862c8de3e11e81198001a30091610a5991869160ff909116904290611831565b60405180910390a250505050565b610a6f6111ed565b6004805490829055604080516080808252600e908201526d3b37ba34b733a23ab930ba34b7b760911b60a0820152602081018390529081018390524260608201527f95aca9c5cbf9fb92249d9548380865e22fdd0ed465f933812c873d232711f4169060c0015b60405180910390a15050565b610aea6111ed565b610af4600061121a565b565b6001548310610b175760405162461bcd60e51b8152600401610538906117ec565b600060018481548110610b2c57610b2c61181b565b60009182526020909120600a9091020160018101549091506001600160a01b0316331480610b6457506000546001600160a01b031633145b610ba65760405162461bcd60e51b815260206004820152601360248201527211dbdd8e881b9bdd08185d5d1a1bdc9a5e9959606a1b6044820152606401610538565b6000600982015460ff166004811115610bc157610bc16112c9565b14610bde5760405162461bcd60e51b81526004016105389061185a565b60098101805460ff19811660041790915560405160ff90911690339086907f2fedf03a050389695bf44ccd4813a702924aa4865aa2d738f9ab63cb05f9645790610c2d90889088904290611883565b60405180910390a3847fd8ed8371ab6117327e418ae4493b065e766893c1862c8de3e11e81198001a30082600442604051610c6a93929190611831565b60405180910390a25050505050565b6001548510610c9a5760405162461bcd60e51b8152600401610538906117ec565b600060018681548110610caf57610caf61181b565b600091825260208220600a909102019150600982015460ff166004811115610cd957610cd96112c9565b14610cf65760405162461bcd60e51b81526004016105389061185a565b8060080154421115610d3e5760405162461bcd60e51b815260206004820152601160248201527011dbdd8e881d9bdd1a5b99c8195b991959607a1b6044820152606401610538565b600086815260026020908152604080832033845290915290205460ff1615610d9d5760405162461bcd60e51b815260206004820152601260248201527111dbdd8e88185b1c9958591e481d9bdd195960721b6044820152606401610538565b60008411610de05760405162461bcd60e51b815260206004820152601060248201526f11dbdd8e881e995c9bc81dd95a59da1d60821b6044820152606401610538565b6000868152600260208181526040808420338086529083528185208054600160ff1991821681179092558c875260038552838720928752919093529320805489949193911691908490811115610e3857610e386112c9565b02179055506001856002811115610e5157610e516112c9565b03610e755783816004016000828254610e6a9190611629565b90915550610ebc9050565b6000856002811115610e8957610e896112c9565b03610ea25783816005016000828254610e6a9190611629565b83816006016000828254610eb69190611629565b90915550505b60088054906000610ecc83611763565b9190505550336001600160a01b0316867f9437db321cb4ef42bcec521bc641b982c485e0e0e91ed59f883bb9c002ba47558787878742604051610f139594939291906118a7565b60405180910390a3505050505050565b6000606060008060008060008060018981548110610f4357610f4361181b565b60009182526020909120600a90910201600181015460048201546005830154600684015460098501546002860180549697506001600160a01b039095169560ff80831692610100900416908690610f99906115d9565b80601f0160208091040260200160405190810160405280929190818152602001828054610fc5906115d9565b80156110125780601f10610fe757610100808354040283529160200191611012565b820191906000526020600020905b815481529060010190602001808311610ff557829003601f168201915b50505050509550975097509750975097509750975050919395979092949650565b6000806000806000806000600188815481106110515761105161181b565b90600052602060002090600a02019050600081600601548260050154836004015461107c9190611629565b6110869190611629565b6004830154600580850154600686015491549394509192849081101583851180156110b357506005548610155b949e939d50919b50995097509095509350505050565b6110d16111ed565b6005805490829055604080516080808252600b908201526a71756f72756d566f74657360a81b60a0820152602081018390529081018390524260608201527f95aca9c5cbf9fb92249d9548380865e22fdd0ed465f933812c873d232711f4169060c001610ad6565b6111416111ed565b6006805490829055604080516080808252601190820152701c1c9bdc1bdcd85b151a1c995cda1bdb19607a1b60a0820152602081018390529081018390524260608201527f95aca9c5cbf9fb92249d9548380865e22fdd0ed465f933812c873d232711f4169060c001610ad6565b6111b76111ed565b6001600160a01b0381166111e157604051631e4fbdf760e01b815260006004820152602401610538565b6111ea8161121a565b50565b6000546001600160a01b03163314610af45760405163118cdaa760e01b8152336004820152602401610538565b600080546001600160a01b038381166001600160a01b0319831681178455604051919092169283917f8be0079c531659141344cd1fd0a4f28419497f9722a3daafe3b4186f6b6457e09190a35050565b60006020828403121561127c57600080fd5b5035919050565b6000815180845260005b818110156112a95760208185018101518683018201520161128d565b506000602082860101526020601f19601f83011685010191505092915050565b634e487b7160e01b600052602160045260246000fd5b600581106112ef576112ef6112c9565b9052565b8b81526001600160a01b038b1660208201526101606040820181905260009061131e8382018d611283565b90508281036060840152611332818c611283565b9150508860808301528760a08301528660c08301528560e0830152846101008301526113626101208301856112df565b8215156101408301529c9b505050505050505050505050565b60008083601f84011261138d57600080fd5b50813567ffffffffffffffff8111156113a557600080fd5b6020830191508360208285010111156113bd57600080fd5b9250929050565b6000806000806000606086880312156113dc57600080fd5b853567ffffffffffffffff808211156113f457600080fd5b61140089838a0161137b565b9097509550602088013591508082111561141957600080fd5b506114268882890161137b565b96999598509660400135949350505050565b80356001600160a01b038116811461144f57600080fd5b919050565b6000806040838503121561146757600080fd5b8235915061147760208401611438565b90509250929050565b600381106112ef576112ef6112c9565b6020810161149e8284611480565b92915050565b6000806000604084860312156114b957600080fd5b83359250602084013567ffffffffffffffff8111156114d757600080fd5b6114e38682870161137b565b9497909650939450505050565b60008060008060006080868803121561150857600080fd5b8535945060208601356003811061151e57600080fd5b935060408601359250606086013567ffffffffffffffff81111561154157600080fd5b61154d8882890161137b565b969995985093965092949392505050565b6001600160a01b038816815260e06020820181905260009061158290830189611283565b90508660408301528560608301528460808301526115a360a08301856112df565b82151560c083015298975050505050505050565b6000602082840312156115c957600080fd5b6115d282611438565b9392505050565b600181811c908216806115ed57607f821691505b60208210810361160d57634e487b7160e01b600052602260045260246000fd5b50919050565b634e487b7160e01b600052601160045260246000fd5b8082018082111561149e5761149e611613565b634e487b7160e01b600052604160045260246000fd5b601f82111561169e576000816000526020600020601f850160051c8101602086101561167b5750805b601f850160051c820191505b8181101561169a57828155600101611687565b5050505b505050565b815167ffffffffffffffff8111156116bd576116bd61163c565b6116d1816116cb84546115d9565b84611652565b602080601f83116001811461170657600084156116ee5750858301515b600019600386901b1c1916600185901b17855561169a565b600085815260208120601f198616915b8281101561173557888601518255948401946001909101908401611716565b50858210156117535787850151600019600388901b60f8161c191681555b5050505050600190811b01905550565b60006001820161177557611775611613565b5060010190565b81835281816020850137506000828201602090810191909152601f909101601f19169091010190565b60a0815260006117b960a08301898b61177c565b82810360208401526117cc81888a61177c565b604084019690965250506060810192909252608090910152949350505050565b60208082526015908201527411dbdd8e881a5b9d985b1a59081c1c9bdc1bdcd85b605a1b604082015260600190565b634e487b7160e01b600052603260045260246000fd5b6060810161183f82866112df565b61184c60208301856112df565b826040830152949350505050565b6020808252600f908201526e476f763a206e6f742061637469766560881b604082015260600190565b60408152600061189760408301858761177c565b9050826020830152949350505050565b6118b18187611480565b8460208201526080604082015260006118ce60808301858761177c565b9050826060830152969550505050505056fea2646970667358221220a14917ef8e0bf59934185d16f40a0bafda5d0d3205d257474c73d55a09f6680c64736f6c63430008180033","opcodes":"PUSH1 0x80 PUSH1 0x40 MSTORE PUSH3 0x3F480 PUSH1 0x4 SSTORE PUSH4 0x3B9ACA00 PUSH1 0x5 SSTORE PUSH4 0x5F5E100 PUSH1 0x6 SSTORE CALLVALUE DUP1 ISZERO PUSH2 0x27 JUMPI PUSH1 0x0 DUP1 REVERT JUMPDEST POP CALLER DUP1 PUSH2 0x4E JUMPI PUSH1 0x40 MLOAD PUSH4 0x1E4FBDF7 PUSH1 0xE0 SHL DUP2 MSTORE PUSH1 0x0 PUSH1 0x4 DUP3 ADD MSTORE PUSH1 0x24 ADD PUSH1 0x40 MLOAD DUP1 SWAP2 SUB SWAP1 REVERT JUMPDEST PUSH2 0x57 DUP2 PUSH2 0x5D JUMP JUMPDEST POP PUSH2 0xAD JUMP JUMPDEST PUSH1 0x0 DUP1 SLOAD PUSH1 0x1 PUSH1 0x1 PUSH1 0xA0 SHL SUB DUP4 DUP2 AND PUSH1 0x1 PUSH1 0x1 PUSH1 0xA0 SHL SUB NOT DUP4 AND DUP2 OR DUP5 SSTORE PUSH1 0x40 MLOAD SWAP2 SWAP1 SWAP3 AND SWAP3 DUP4 SWAP2 PUSH32 0x8BE0079C531659141344CD1FD0A4F28419497F9722A3DAAFE3B4186F6B6457E0 SWAP2 SWAP1 LOG3 POP POP JUMP JUMPDEST PUSH2 0x1916 DUP1 PUSH2 0xBC PUSH1 0x0 CODECOPY PUSH1 0x0 RETURN INVALID PUSH1 0x80 PUSH1 0x40 MSTORE CALLVALUE DUP1 ISZERO PUSH2 0x10 JUMPI PUSH1 0x0 DUP1 REVERT JUMPDEST POP PUSH1 0x4 CALLDATASIZE LT PUSH2 0x142 JUMPI PUSH1 0x0 CALLDATALOAD PUSH1 0xE0 SHR DUP1 PUSH4 0x8DA5CB5B GT PUSH2 0xB8 JUMPI DUP1 PUSH4 0xBC903CB8 GT PUSH2 0x7C JUMPI DUP1 PUSH4 0xBC903CB8 EQ PUSH2 0x2C5 JUMPI DUP1 PUSH4 0xBFA0FC93 EQ PUSH2 0x2EB JUMPI DUP1 PUSH4 0xC08CC02D EQ PUSH2 0x32F JUMPI DUP1 PUSH4 0xC1BA4E59 EQ PUSH2 0x337 JUMPI DUP1 PUSH4 0xECE40CC1 EQ PUSH2 0x34A JUMPI DUP1 PUSH4 0xF2FDE38B EQ PUSH2 0x35D JUMPI PUSH1 0x0 DUP1 REVERT JUMPDEST DUP1 PUSH4 0x8DA5CB5B EQ PUSH2 0x272 JUMPI DUP1 PUSH4 0xA351F615 EQ PUSH2 0x28D JUMPI DUP1 PUSH4 0xA78D80FC EQ PUSH2 0x2A0 JUMPI DUP1 PUSH4 0xAA732A30 EQ PUSH2 0x2A9 JUMPI DUP1 PUSH4 0xB58131B0 EQ PUSH2 0x2BC JUMPI PUSH1 0x0 DUP1 REVERT JUMPDEST DUP1 PUSH4 0x43859632 GT PUSH2 0x10A JUMPI DUP1 PUSH4 0x43859632 EQ PUSH2 0x1C2 JUMPI DUP1 PUSH4 0x51477141 EQ PUSH2 0x200 JUMPI DUP1 PUSH4 0x5652077C EQ PUSH2 0x23B JUMPI DUP1 PUSH4 0x5BCFADB5 EQ PUSH2 0x24E JUMPI DUP1 PUSH4 0x715018A6 EQ PUSH2 0x261 JUMPI DUP1 PUSH4 0x7DE418D5 EQ PUSH2 0x269 JUMPI PUSH1 0x0 DUP1 REVERT JUMPDEST DUP1 PUSH4 0x13CF08B EQ PUSH2 0x147 JUMPI DUP1 PUSH4 0xCE0EBF4 EQ PUSH2 0x17A JUMPI DUP1 PUSH4 0xD61B519 EQ PUSH2 0x19B JUMPI DUP1 PUSH4 0x132002FC EQ PUSH2 0x1B0 JUMPI DUP1 PUSH4 0x24BC1A64 EQ PUSH2 0x1B9 JUMPI JUMPDEST PUSH1 0x0 DUP1 REVERT JUMPDEST PUSH2 0x15A PUSH2 0x155 CALLDATASIZE PUSH1 0x4 PUSH2 0x126A JUMP JUMPDEST PUSH2 0x370 JUMP JUMPDEST PUSH1 0x40 MLOAD PUSH2 0x171 SWAP12 SWAP11 SWAP10 SWAP9 SWAP8 SWAP7 SWAP6 SWAP5 SWAP4 SWAP3 SWAP2 SWAP1 PUSH2 0x12F3 JUMP JUMPDEST PUSH1 0x40 MLOAD DUP1 SWAP2 SUB SWAP1 RETURN JUMPDEST PUSH2 0x18D PUSH2 0x188 CALLDATASIZE PUSH1 0x4 PUSH2 0x13C4 JUMP JUMPDEST PUSH2 0x4FA JUMP JUMPDEST PUSH1 0x40 MLOAD SWAP1 DUP2 MSTORE PUSH1 0x20 ADD PUSH2 0x171 JUMP JUMPDEST PUSH2 0x1AE PUSH2 0x1A9 CALLDATASIZE PUSH1 0x4 PUSH2 0x126A JUMP JUMPDEST PUSH2 0x794 JUMP JUMPDEST STOP JUMPDEST PUSH2 0x18D PUSH1 0x4 SLOAD DUP2 JUMP JUMPDEST PUSH2 0x18D PUSH1 0x5 SLOAD DUP2 JUMP JUMPDEST PUSH2 0x1F0 PUSH2 0x1D0 CALLDATASIZE PUSH1 0x4 PUSH2 0x1454 JUMP JUMPDEST PUSH1 0x2 PUSH1 0x20 SWAP1 DUP2 MSTORE PUSH1 0x0 SWAP3 DUP4 MSTORE PUSH1 0x40 DUP1 DUP5 KECCAK256 SWAP1 SWAP2 MSTORE SWAP1 DUP3 MSTORE SWAP1 KECCAK256 SLOAD PUSH1 0xFF AND DUP2 JUMP JUMPDEST PUSH1 0x40 MLOAD SWAP1 ISZERO ISZERO DUP2 MSTORE PUSH1 0x20 ADD PUSH2 0x171 JUMP JUMPDEST PUSH2 0x22E PUSH2 0x20E CALLDATASIZE PUSH1 0x4 PUSH2 0x1454 JUMP JUMPDEST PUSH1 0x3 PUSH1 0x20 SWAP1 DUP2 MSTORE PUSH1 0x0 SWAP3 DUP4 MSTORE PUSH1 0x40 DUP1 DUP5 KECCAK256 SWAP1 SWAP2 MSTORE SWAP1 DUP3 MSTORE SWAP1 KECCAK256 SLOAD PUSH1 0xFF AND DUP2 JUMP JUMPDEST PUSH1 0x40 MLOAD PUSH2 0x171 SWAP2 SWAP1 PUSH2 0x1490 JUMP JUMPDEST PUSH2 0x1AE PUSH2 0x249 CALLDATASIZE PUSH1 0x4 PUSH2 0x126A JUMP JUMPDEST PUSH2 0x928 JUMP JUMPDEST PUSH2 0x1AE PUSH2 0x25C CALLDATASIZE PUSH1 0x4 PUSH2 0x126A JUMP JUMPDEST PUSH2 0xA67 JUMP JUMPDEST PUSH2 0x1AE PUSH2 0xAE2 JUMP JUMPDEST PUSH2 0x18D PUSH1 0x8 SLOAD DUP2 JUMP JUMPDEST PUSH1 0x0 SLOAD PUSH1 0x40 MLOAD PUSH1 0x1 PUSH1 0x1 PUSH1 0xA0 SHL SUB SWAP1 SWAP2 AND DUP2 MSTORE PUSH1 0x20 ADD PUSH2 0x171 JUMP JUMPDEST PUSH2 0x1AE PUSH2 0x29B CALLDATASIZE PUSH1 0x4 PUSH2 0x14A4 JUMP JUMPDEST PUSH2 0xAF6 JUMP JUMPDEST PUSH2 0x18D PUSH1 0x7 SLOAD DUP2 JUMP JUMPDEST PUSH2 0x1AE PUSH2 0x2B7 CALLDATASIZE PUSH1 0x4 PUSH2 0x14F0 JUMP JUMPDEST PUSH2 0xC79 JUMP JUMPDEST PUSH2 0x18D PUSH1 0x6 SLOAD DUP2 JUMP JUMPDEST PUSH2 0x2D8 PUSH2 0x2D3 CALLDATASIZE PUSH1 0x4 PUSH2 0x126A JUMP JUMPDEST PUSH2 0xF23 JUMP JUMPDEST PUSH1 0x40 MLOAD PUSH2 0x171 SWAP8 SWAP7 SWAP6 SWAP5 SWAP4 SWAP3 SWAP2 SWAP1 PUSH2 0x155E JUMP JUMPDEST PUSH2 0x2FE PUSH2 0x2F9 CALLDATASIZE PUSH1 0x4 PUSH2 0x126A JUMP JUMPDEST PUSH2 0x1033 JUMP JUMPDEST PUSH1 0x40 DUP1 MLOAD SWAP7 DUP8 MSTORE PUSH1 0x20 DUP8 ADD SWAP6 SWAP1 SWAP6 MSTORE SWAP4 DUP6 ADD SWAP3 SWAP1 SWAP3 MSTORE PUSH1 0x60 DUP5 ADD MSTORE ISZERO ISZERO PUSH1 0x80 DUP4 ADD MSTORE ISZERO ISZERO PUSH1 0xA0 DUP3 ADD MSTORE PUSH1 0xC0 ADD PUSH2 0x171 JUMP JUMPDEST PUSH1 0x1 SLOAD PUSH2 0x18D JUMP JUMPDEST PUSH2 0x1AE PUSH2 0x345 CALLDATASIZE PUSH1 0x4 PUSH2 0x126A JUMP JUMPDEST PUSH2 0x10C9 JUMP JUMPDEST PUSH2 0x1AE PUSH2 0x358 CALLDATASIZE PUSH1 0x4 PUSH2 0x126A JUMP JUMPDEST PUSH2 0x1139 JUMP JUMPDEST PUSH2 0x1AE PUSH2 0x36B CALLDATASIZE PUSH1 0x4 PUSH2 0x15B7 JUMP JUMPDEST PUSH2 0x11AF JUMP JUMPDEST PUSH1 0x1 DUP2 DUP2 SLOAD DUP2 LT PUSH2 0x380 JUMPI PUSH1 0x0 DUP1 REVERT JUMPDEST PUSH1 0x0 SWAP2 DUP3 MSTORE PUSH1 0x20 SWAP1 SWAP2 KECCAK256 PUSH1 0xA SWAP1 SWAP2 MUL ADD DUP1 SLOAD PUSH1 0x1 DUP3 ADD SLOAD PUSH1 0x2 DUP4 ADD DUP1 SLOAD SWAP3 SWAP5 POP PUSH1 0x1 PUSH1 0x1 PUSH1 0xA0 SHL SUB SWAP1 SWAP2 AND SWAP3 SWAP2 PUSH2 0x3B6 SWAP1 PUSH2 0x15D9 JUMP JUMPDEST DUP1 PUSH1 0x1F ADD PUSH1 0x20 DUP1 SWAP2 DIV MUL PUSH1 0x20 ADD PUSH1 0x40 MLOAD SWAP1 DUP2 ADD PUSH1 0x40 MSTORE DUP1 SWAP3 SWAP2 SWAP1 DUP2 DUP2 MSTORE PUSH1 0x20 ADD DUP3 DUP1 SLOAD PUSH2 0x3E2 SWAP1 PUSH2 0x15D9 JUMP JUMPDEST DUP1 ISZERO PUSH2 0x42F JUMPI DUP1 PUSH1 0x1F LT PUSH2 0x404 JUMPI PUSH2 0x100 DUP1 DUP4 SLOAD DIV MUL DUP4 MSTORE SWAP2 PUSH1 0x20 ADD SWAP2 PUSH2 0x42F JUMP JUMPDEST DUP3 ADD SWAP2 SWAP1 PUSH1 0x0 MSTORE PUSH1 0x20 PUSH1 0x0 KECCAK256 SWAP1 JUMPDEST DUP2 SLOAD DUP2 MSTORE SWAP1 PUSH1 0x1 ADD SWAP1 PUSH1 0x20 ADD DUP1 DUP4 GT PUSH2 0x412 JUMPI DUP3 SWAP1 SUB PUSH1 0x1F AND DUP3 ADD SWAP2 JUMPDEST POP POP POP POP POP SWAP1 DUP1 PUSH1 0x3 ADD DUP1 SLOAD PUSH2 0x444 SWAP1 PUSH2 0x15D9 JUMP JUMPDEST DUP1 PUSH1 0x1F ADD PUSH1 0x20 DUP1 SWAP2 DIV MUL PUSH1 0x20 ADD PUSH1 0x40 MLOAD SWAP1 DUP2 ADD PUSH1 0x40 MSTORE DUP1 SWAP3 SWAP2 SWAP1 DUP2 DUP2 MSTORE PUSH1 0x20 ADD DUP3 DUP1 SLOAD PUSH2 0x470 SWAP1 PUSH2 0x15D9 JUMP JUMPDEST DUP1 ISZERO PUSH2 0x4BD JUMPI DUP1 PUSH1 0x1F LT PUSH2 0x492 JUMPI PUSH2 0x100 DUP1 DUP4 SLOAD DIV MUL DUP4 MSTORE SWAP2 PUSH1 0x20 ADD SWAP2 PUSH2 0x4BD JUMP JUMPDEST DUP3 ADD SWAP2 SWAP1 PUSH1 0x0 MSTORE PUSH1 0x20 PUSH1 0x0 KECCAK256 SWAP1 JUMPDEST DUP2 SLOAD DUP2 MSTORE SWAP1 PUSH1 0x1 ADD SWAP1 PUSH1 0x20 ADD DUP1 DUP4 GT PUSH2 0x4A0 JUMPI DUP3 SWAP1 SUB PUSH1 0x1F AND DUP3 ADD SWAP2 JUMPDEST POP POP POP PUSH1 0x4 DUP5 ADD SLOAD PUSH1 0x5 DUP6 ADD SLOAD PUSH1 0x6 DUP7 ADD SLOAD PUSH1 0x7 DUP8 ADD SLOAD PUSH1 0x8 DUP9 ADD SLOAD PUSH1 0x9 SWAP1 SWAP9 ADD SLOAD SWAP7 SWAP8 SWAP4 SWAP7 SWAP3 SWAP6 POP SWAP1 SWAP4 POP SWAP2 SWAP1 PUSH1 0xFF DUP1 DUP3 AND SWAP2 PUSH2 0x100 SWAP1 DIV AND DUP12 JUMP JUMPDEST PUSH1 0x0 DUP5 PUSH2 0x541 JUMPI PUSH1 0x40 MLOAD PUSH3 0x461BCD PUSH1 0xE5 SHL DUP2 MSTORE PUSH1 0x20 PUSH1 0x4 DUP3 ADD MSTORE PUSH1 0x10 PUSH1 0x24 DUP3 ADD MSTORE PUSH16 0x476F763A20656D707479207469746C65 PUSH1 0x80 SHL PUSH1 0x44 DUP3 ADD MSTORE PUSH1 0x64 ADD JUMPDEST PUSH1 0x40 MLOAD DUP1 SWAP2 SUB SWAP1 REVERT JUMPDEST PUSH1 0x0 DUP1 DUP4 GT PUSH2 0x552 JUMPI PUSH1 0x4 SLOAD PUSH2 0x554 JUMP JUMPDEST DUP3 JUMPDEST SWAP1 POP PUSH1 0x1 DUP1 SLOAD SWAP1 POP SWAP2 POP PUSH1 0x1 PUSH1 0x40 MLOAD DUP1 PUSH2 0x160 ADD PUSH1 0x40 MSTORE DUP1 DUP5 DUP2 MSTORE PUSH1 0x20 ADD CALLER PUSH1 0x1 PUSH1 0x1 PUSH1 0xA0 SHL SUB AND DUP2 MSTORE PUSH1 0x20 ADD DUP10 DUP10 DUP1 DUP1 PUSH1 0x1F ADD PUSH1 0x20 DUP1 SWAP2 DIV MUL PUSH1 0x20 ADD PUSH1 0x40 MLOAD SWAP1 DUP2 ADD PUSH1 0x40 MSTORE DUP1 SWAP4 SWAP3 SWAP2 SWAP1 DUP2 DUP2 MSTORE PUSH1 0x20 ADD DUP4 DUP4 DUP1 DUP3 DUP5 CALLDATACOPY PUSH1 0x0 SWAP3 ADD SWAP2 SWAP1 SWAP2 MSTORE POP POP POP SWAP1 DUP3 MSTORE POP PUSH1 0x40 DUP1 MLOAD PUSH1 0x20 PUSH1 0x1F DUP11 ADD DUP2 SWAP1 DIV DUP2 MUL DUP3 ADD DUP2 ADD SWAP1 SWAP3 MSTORE DUP9 DUP2 MSTORE SWAP2 DUP2 ADD SWAP2 SWAP1 DUP10 SWAP1 DUP10 SWAP1 DUP2 SWAP1 DUP5 ADD DUP4 DUP3 DUP1 DUP3 DUP5 CALLDATACOPY PUSH1 0x0 SWAP3 ADD DUP3 SWAP1 MSTORE POP SWAP4 DUP6 MSTORE POP POP POP PUSH1 0x20 DUP3 ADD DUP2 SWAP1 MSTORE PUSH1 0x40 DUP3 ADD DUP2 SWAP1 MSTORE PUSH1 0x60 DUP3 ADD MSTORE TIMESTAMP PUSH1 0x80 DUP3 ADD DUP2 SWAP1 MSTORE PUSH1 0xA0 SWAP1 SWAP2 ADD SWAP1 PUSH2 0x620 SWAP1 DUP6 SWAP1 PUSH2 0x1629 JUMP JUMPDEST DUP2 MSTORE PUSH1 0x20 ADD PUSH1 0x0 DUP2 MSTORE PUSH1 0x0 PUSH1 0x20 SWAP2 DUP3 ADD DUP2 SWAP1 MSTORE DUP4 SLOAD PUSH1 0x1 DUP1 DUP3 ADD DUP7 SSTORE SWAP5 DUP3 MSTORE SWAP1 DUP3 SWAP1 KECCAK256 DUP4 MLOAD PUSH1 0xA SWAP1 SWAP3 MUL ADD SWAP1 DUP2 SSTORE SWAP1 DUP3 ADD MLOAD SWAP3 DUP2 ADD DUP1 SLOAD PUSH1 0x1 PUSH1 0x1 PUSH1 0xA0 SHL SUB NOT AND PUSH1 0x1 PUSH1 0x1 PUSH1 0xA0 SHL SUB SWAP1 SWAP5 AND SWAP4 SWAP1 SWAP4 OR SWAP1 SWAP3 SSTORE PUSH1 0x40 DUP2 ADD MLOAD SWAP1 SWAP2 SWAP1 PUSH1 0x2 DUP3 ADD SWAP1 PUSH2 0x68A SWAP1 DUP3 PUSH2 0x16A3 JUMP JUMPDEST POP PUSH1 0x60 DUP3 ADD MLOAD PUSH1 0x3 DUP3 ADD SWAP1 PUSH2 0x69F SWAP1 DUP3 PUSH2 0x16A3 JUMP JUMPDEST POP PUSH1 0x80 DUP3 ADD MLOAD DUP2 PUSH1 0x4 ADD SSTORE PUSH1 0xA0 DUP3 ADD MLOAD DUP2 PUSH1 0x5 ADD SSTORE PUSH1 0xC0 DUP3 ADD MLOAD DUP2 PUSH1 0x6 ADD SSTORE PUSH1 0xE0 DUP3 ADD MLOAD DUP2 PUSH1 0x7 ADD SSTORE PUSH2 0x100 DUP3 ADD MLOAD DUP2 PUSH1 0x8 ADD SSTORE PUSH2 0x120 DUP3 ADD MLOAD DUP2 PUSH1 0x9 ADD PUSH1 0x0 PUSH2 0x100 EXP DUP2 SLOAD DUP2 PUSH1 0xFF MUL NOT AND SWAP1 DUP4 PUSH1 0x4 DUP2 GT ISZERO PUSH2 0x6FE JUMPI PUSH2 0x6FE PUSH2 0x12C9 JUMP JUMPDEST MUL OR SWAP1 SSTORE POP PUSH2 0x140 SWAP2 SWAP1 SWAP2 ADD MLOAD PUSH1 0x9 SWAP1 SWAP2 ADD DUP1 SLOAD SWAP2 ISZERO ISZERO PUSH2 0x100 MUL PUSH2 0xFF00 NOT SWAP1 SWAP3 AND SWAP2 SWAP1 SWAP2 OR SWAP1 SSTORE PUSH1 0x7 DUP1 SLOAD SWAP1 PUSH1 0x0 PUSH2 0x736 DUP4 PUSH2 0x1763 JUMP JUMPDEST SWAP1 SWAP2 SSTORE POP CALLER SWAP1 POP DUP3 PUSH32 0x16834ED4A5BC4E8C7DD82ADDE6B35E2F4BB7EA06FF9E4A4D822A61D96C37705F DUP10 DUP10 DUP10 DUP10 TIMESTAMP PUSH2 0x76E DUP10 DUP3 PUSH2 0x1629 JUMP JUMPDEST TIMESTAMP PUSH1 0x40 MLOAD PUSH2 0x782 SWAP8 SWAP7 SWAP6 SWAP5 SWAP4 SWAP3 SWAP2 SWAP1 PUSH2 0x17A5 JUMP JUMPDEST PUSH1 0x40 MLOAD DUP1 SWAP2 SUB SWAP1 LOG3 POP SWAP6 SWAP5 POP POP POP POP POP JUMP JUMPDEST PUSH1 0x1 SLOAD DUP2 LT PUSH2 0x7B5 JUMPI PUSH1 0x40 MLOAD PUSH3 0x461BCD PUSH1 0xE5 SHL DUP2 MSTORE PUSH1 0x4 ADD PUSH2 0x538 SWAP1 PUSH2 0x17EC JUMP JUMPDEST PUSH1 0x0 PUSH1 0x1 DUP3 DUP2 SLOAD DUP2 LT PUSH2 0x7CA JUMPI PUSH2 0x7CA PUSH2 0x181B JUMP JUMPDEST PUSH1 0x0 SWAP2 DUP3 MSTORE PUSH1 0x20 SWAP1 SWAP2 KECCAK256 PUSH1 0xA SWAP1 SWAP2 MUL ADD SWAP1 POP PUSH1 0x1 PUSH1 0x9 DUP3 ADD SLOAD PUSH1 0xFF AND PUSH1 0x4 DUP2 GT ISZERO PUSH2 0x7F7 JUMPI PUSH2 0x7F7 PUSH2 0x12C9 JUMP JUMPDEST EQ PUSH2 0x836 JUMPI PUSH1 0x40 MLOAD PUSH3 0x461BCD PUSH1 0xE5 SHL DUP2 MSTORE PUSH1 0x20 PUSH1 0x4 DUP3 ADD MSTORE PUSH1 0xF PUSH1 0x24 DUP3 ADD MSTORE PUSH15 0x11DBDD8E881B9BDD081C185CDCD959 PUSH1 0x8A SHL PUSH1 0x44 DUP3 ADD MSTORE PUSH1 0x64 ADD PUSH2 0x538 JUMP JUMPDEST PUSH1 0x9 DUP2 ADD SLOAD PUSH2 0x100 SWAP1 DIV PUSH1 0xFF AND ISZERO PUSH2 0x888 JUMPI PUSH1 0x40 MLOAD PUSH3 0x461BCD PUSH1 0xE5 SHL DUP2 MSTORE PUSH1 0x20 PUSH1 0x4 DUP3 ADD MSTORE PUSH1 0x15 PUSH1 0x24 DUP3 ADD MSTORE PUSH21 0x11DBDD8E88185B1C9958591E48195E1958DD5D1959 PUSH1 0x5A SHL PUSH1 0x44 DUP3 ADD MSTORE PUSH1 0x64 ADD PUSH2 0x538 JUMP JUMPDEST PUSH1 0x9 DUP2 ADD DUP1 SLOAD PUSH2 0xFFFF NOT AND PUSH2 0x103 OR SWAP1 SSTORE PUSH1 0x4 DUP2 ADD SLOAD PUSH1 0x5 DUP3 ADD SLOAD PUSH1 0x40 DUP1 MLOAD SWAP3 DUP4 MSTORE PUSH1 0x20 DUP4 ADD SWAP2 SWAP1 SWAP2 MSTORE TIMESTAMP DUP3 DUP3 ADD MSTORE MLOAD CALLER SWAP2 DUP5 SWAP2 PUSH32 0x68AB678DB8D2AC30ADE450D2F61B71D192FB3940BF122FB1748C4D0B4D1D68FA SWAP2 DUP2 SWAP1 SUB PUSH1 0x60 ADD SWAP1 LOG3 DUP2 PUSH32 0xD8ED8371AB6117327E418AE4493B065E766893C1862C8DE3E11E81198001A300 PUSH1 0x1 PUSH1 0x3 TIMESTAMP PUSH1 0x40 MLOAD PUSH2 0x91C SWAP4 SWAP3 SWAP2 SWAP1 PUSH2 0x1831 JUMP JUMPDEST PUSH1 0x40 MLOAD DUP1 SWAP2 SUB SWAP1 LOG2 POP POP JUMP JUMPDEST PUSH1 0x1 SLOAD DUP2 LT PUSH2 0x949 JUMPI PUSH1 0x40 MLOAD PUSH3 0x461BCD PUSH1 0xE5 SHL DUP2 MSTORE PUSH1 0x4 ADD PUSH2 0x538 SWAP1 PUSH2 0x17EC JUMP JUMPDEST PUSH1 0x0 PUSH1 0x1 DUP3 DUP2 SLOAD DUP2 LT PUSH2 0x95E JUMPI PUSH2 0x95E PUSH2 0x181B JUMP JUMPDEST PUSH1 0x0 SWAP2 DUP3 MSTORE PUSH1 0x20 DUP3 KECCAK256 PUSH1 0xA SWAP1 SWAP2 MUL ADD SWAP2 POP PUSH1 0x9 DUP3 ADD SLOAD PUSH1 0xFF AND PUSH1 0x4 DUP2 GT ISZERO PUSH2 0x988 JUMPI PUSH2 0x988 PUSH2 0x12C9 JUMP JUMPDEST EQ PUSH2 0x9A5 JUMPI PUSH1 0x40 MLOAD PUSH3 0x461BCD PUSH1 0xE5 SHL DUP2 MSTORE PUSH1 0x4 ADD PUSH2 0x538 SWAP1 PUSH2 0x185A JUMP JUMPDEST PUSH1 0x9 DUP2 ADD SLOAD PUSH1 0x6 DUP3 ADD SLOAD PUSH1 0x5 DUP4 ADD SLOAD PUSH1 0x4 DUP5 ADD SLOAD PUSH1 0xFF SWAP1 SWAP4 AND SWAP3 PUSH1 0x0 SWAP3 SWAP2 PUSH2 0x9CC SWAP2 PUSH2 0x1629 JUMP JUMPDEST PUSH2 0x9D6 SWAP2 SWAP1 PUSH2 0x1629 JUMP JUMPDEST SWAP1 POP PUSH1 0x5 SLOAD DUP2 LT ISZERO DUP1 ISZERO PUSH2 0x9F1 JUMPI POP DUP3 PUSH1 0x5 ADD SLOAD DUP4 PUSH1 0x4 ADD SLOAD GT JUMPDEST ISZERO PUSH2 0xA0A JUMPI PUSH1 0x9 DUP4 ADD DUP1 SLOAD PUSH1 0xFF NOT AND PUSH1 0x1 OR SWAP1 SSTORE PUSH2 0xA1A JUMP JUMPDEST PUSH1 0x9 DUP4 ADD DUP1 SLOAD PUSH1 0xFF NOT AND PUSH1 0x2 OR SWAP1 SSTORE JUMPDEST PUSH1 0x9 DUP4 ADD SLOAD PUSH1 0x40 MLOAD DUP6 SWAP2 PUSH32 0xD8ED8371AB6117327E418AE4493B065E766893C1862C8DE3E11E81198001A300 SWAP2 PUSH2 0xA59 SWAP2 DUP7 SWAP2 PUSH1 0xFF SWAP1 SWAP2 AND SWAP1 TIMESTAMP SWAP1 PUSH2 0x1831 JUMP JUMPDEST PUSH1 0x40 MLOAD DUP1 SWAP2 SUB SWAP1 LOG2 POP POP POP POP JUMP JUMPDEST PUSH2 0xA6F PUSH2 0x11ED JUMP JUMPDEST PUSH1 0x4 DUP1 SLOAD SWAP1 DUP3 SWAP1 SSTORE PUSH1 0x40 DUP1 MLOAD PUSH1 0x80 DUP1 DUP3 MSTORE PUSH1 0xE SWAP1 DUP3 ADD MSTORE PUSH14 0x3B37BA34B733A23AB930BA34B7B7 PUSH1 0x91 SHL PUSH1 0xA0 DUP3 ADD MSTORE PUSH1 0x20 DUP2 ADD DUP4 SWAP1 MSTORE SWAP1 DUP2 ADD DUP4 SWAP1 MSTORE TIMESTAMP PUSH1 0x60 DUP3 ADD MSTORE PUSH32 0x95ACA9C5CBF9FB92249D9548380865E22FDD0ED465F933812C873D232711F416 SWAP1 PUSH1 0xC0 ADD JUMPDEST PUSH1 0x40 MLOAD DUP1 SWAP2 SUB SWAP1 LOG1 POP POP JUMP JUMPDEST PUSH2 0xAEA PUSH2 0x11ED JUMP JUMPDEST PUSH2 0xAF4 PUSH1 0x0 PUSH2 0x121A JUMP JUMPDEST JUMP JUMPDEST PUSH1 0x1 SLOAD DUP4 LT PUSH2 0xB17 JUMPI PUSH1 0x40 MLOAD PUSH3 0x461BCD PUSH1 0xE5 SHL DUP2 MSTORE PUSH1 0x4 ADD PUSH2 0x538 SWAP1 PUSH2 0x17EC JUMP JUMPDEST PUSH1 0x0 PUSH1 0x1 DUP5 DUP2 SLOAD DUP2 LT PUSH2 0xB2C JUMPI PUSH2 0xB2C PUSH2 0x181B JUMP JUMPDEST PUSH1 0x0 SWAP2 DUP3 MSTORE PUSH1 0x20 SWAP1 SWAP2 KECCAK256 PUSH1 0xA SWAP1 SWAP2 MUL ADD PUSH1 0x1 DUP2 ADD SLOAD SWAP1 SWAP2 POP PUSH1 0x1 PUSH1 0x1 PUSH1 0xA0 SHL SUB AND CALLER EQ DUP1 PUSH2 0xB64 JUMPI POP PUSH1 0x0 SLOAD PUSH1 0x1 PUSH1 0x1 PUSH1 0xA0 SHL SUB AND CALLER EQ JUMPDEST PUSH2 0xBA6 JUMPI PUSH1 0x40 MLOAD PUSH3 0x461BCD PUSH1 0xE5 SHL DUP2 MSTORE PUSH1 0x20 PUSH1 0x4 DUP3 ADD MSTORE PUSH1 0x13 PUSH1 0x24 DUP3 ADD MSTORE PUSH19 0x11DBDD8E881B9BDD08185D5D1A1BDC9A5E9959 PUSH1 0x6A SHL PUSH1 0x44 DUP3 ADD MSTORE PUSH1 0x64 ADD PUSH2 0x538 JUMP JUMPDEST PUSH1 0x0 PUSH1 0x9 DUP3 ADD SLOAD PUSH1 0xFF AND PUSH1 0x4 DUP2 GT ISZERO PUSH2 0xBC1 JUMPI PUSH2 0xBC1 PUSH2 0x12C9 JUMP JUMPDEST EQ PUSH2 0xBDE JUMPI PUSH1 0x40 MLOAD PUSH3 0x461BCD PUSH1 0xE5 SHL DUP2 MSTORE PUSH1 0x4 ADD PUSH2 0x538 SWAP1 PUSH2 0x185A JUMP JUMPDEST PUSH1 0x9 DUP2 ADD DUP1 SLOAD PUSH1 0xFF NOT DUP2 AND PUSH1 0x4 OR SWAP1 SWAP2 SSTORE PUSH1 0x40 MLOAD PUSH1 0xFF SWAP1 SWAP2 AND SWAP1 CALLER SWAP1 DUP7 SWAP1 PUSH32 0x2FEDF03A050389695BF44CCD4813A702924AA4865AA2D738F9AB63CB05F96457 SWAP1 PUSH2 0xC2D SWAP1 DUP9 SWAP1 DUP9 SWAP1 TIMESTAMP SWAP1 PUSH2 0x1883 JUMP JUMPDEST PUSH1 0x40 MLOAD DUP1 SWAP2 SUB SWAP1 LOG3 DUP5 PUSH32 0xD8ED8371AB6117327E418AE4493B065E766893C1862C8DE3E11E81198001A300 DUP3 PUSH1 0x4 TIMESTAMP PUSH1 0x40 MLOAD PUSH2 0xC6A SWAP4 SWAP3 SWAP2 SWAP1 PUSH2 0x1831 JUMP JUMPDEST PUSH1 0x40 MLOAD DUP1 SWAP2 SUB SWAP1 LOG2 POP POP POP POP POP JUMP JUMPDEST PUSH1 0x1 SLOAD DUP6 LT PUSH2 0xC9A JUMPI PUSH1 0x40 MLOAD PUSH3 0x461BCD PUSH1 0xE5 SHL DUP2 MSTORE PUSH1 0x4 ADD PUSH2 0x538 SWAP1 PUSH2 0x17EC JUMP JUMPDEST PUSH1 0x0 PUSH1 0x1 DUP7 DUP2 SLOAD DUP2 LT PUSH2 0xCAF JUMPI PUSH2 0xCAF PUSH2 0x181B JUMP JUMPDEST PUSH1 0x0 SWAP2 DUP3 MSTORE PUSH1 0x20 DUP3 KECCAK256 PUSH1 0xA SWAP1 SWAP2 MUL ADD SWAP2 POP PUSH1 0x9 DUP3 ADD SLOAD PUSH1 0xFF AND PUSH1 0x4 DUP2 GT ISZERO PUSH2 0xCD9 JUMPI PUSH2 0xCD9 PUSH2 0x12C9 JUMP JUMPDEST EQ PUSH2 0xCF6 JUMPI PUSH1 0x40 MLOAD PUSH3 0x461BCD PUSH1 0xE5 SHL DUP2 MSTORE PUSH1 0x4 ADD PUSH2 0x538 SWAP1 PUSH2 0x185A JUMP JUMPDEST DUP1 PUSH1 0x8 ADD SLOAD TIMESTAMP GT ISZERO PUSH2 0xD3E JUMPI PUSH1 0x40 MLOAD PUSH3 0x461BCD PUSH1 0xE5 SHL DUP2 MSTORE PUSH1 0x20 PUSH1 0x4 DUP3 ADD MSTORE PUSH1 0x11 PUSH1 0x24 DUP3 ADD MSTORE PUSH17 0x11DBDD8E881D9BDD1A5B99C8195B991959 PUSH1 0x7A SHL PUSH1 0x44 DUP3 ADD MSTORE PUSH1 0x64 ADD PUSH2 0x538 JUMP JUMPDEST PUSH1 0x0 DUP7 DUP2 MSTORE PUSH1 0x2 PUSH1 0x20 SWAP1 DUP2 MSTORE PUSH1 0x40 DUP1 DUP4 KECCAK256 CALLER DUP5 MSTORE SWAP1 SWAP2 MSTORE SWAP1 KECCAK256 SLOAD PUSH1 0xFF AND ISZERO PUSH2 0xD9D JUMPI PUSH1 0x40 MLOAD PUSH3 0x461BCD PUSH1 0xE5 SHL DUP2 MSTORE PUSH1 0x20 PUSH1 0x4 DUP3 ADD MSTORE PUSH1 0x12 PUSH1 0x24 DUP3 ADD MSTORE PUSH18 0x11DBDD8E88185B1C9958591E481D9BDD1959 PUSH1 0x72 SHL PUSH1 0x44 DUP3 ADD MSTORE PUSH1 0x64 ADD PUSH2 0x538 JUMP JUMPDEST PUSH1 0x0 DUP5 GT PUSH2 0xDE0 JUMPI PUSH1 0x40 MLOAD PUSH3 0x461BCD PUSH1 0xE5 SHL DUP2 MSTORE PUSH1 0x20 PUSH1 0x4 DUP3 ADD MSTORE PUSH1 0x10 PUSH1 0x24 DUP3 ADD MSTORE PUSH16 0x11DBDD8E881E995C9BC81DD95A59DA1D PUSH1 0x82 SHL PUSH1 0x44 DUP3 ADD MSTORE PUSH1 0x64 ADD PUSH2 0x538 JUMP JUMPDEST PUSH1 0x0 DUP7 DUP2 MSTORE PUSH1 0x2 PUSH1 0x20 DUP2 DUP2 MSTORE PUSH1 0x40 DUP1 DUP5 KECCAK256 CALLER DUP1 DUP7 MSTORE SWAP1 DUP4 MSTORE DUP2 DUP6 KECCAK256 DUP1 SLOAD PUSH1 0x1 PUSH1 0xFF NOT SWAP2 DUP3 AND DUP2 OR SWAP1 SWAP3 SSTORE DUP13 DUP8 MSTORE PUSH1 0x3 DUP6 MSTORE DUP4 DUP8 KECCAK256 SWAP3 DUP8 MSTORE SWAP2 SWAP1 SWAP4 MSTORE SWAP4 KECCAK256 DUP1 SLOAD DUP10 SWAP5 SWAP2 SWAP4 SWAP2 AND SWAP2 SWAP1 DUP5 SWAP1 DUP2 GT ISZERO PUSH2 0xE38 JUMPI PUSH2 0xE38 PUSH2 0x12C9 JUMP JUMPDEST MUL OR SWAP1 SSTORE POP PUSH1 0x1 DUP6 PUSH1 0x2 DUP2 GT ISZERO PUSH2 0xE51 JUMPI PUSH2 0xE51 PUSH2 0x12C9 JUMP JUMPDEST SUB PUSH2 0xE75 JUMPI DUP4 DUP2 PUSH1 0x4 ADD PUSH1 0x0 DUP3 DUP3 SLOAD PUSH2 0xE6A SWAP2 SWAP1 PUSH2 0x1629 JUMP JUMPDEST SWAP1 SWAP2 SSTORE POP PUSH2 0xEBC SWAP1 POP JUMP JUMPDEST PUSH1 0x0 DUP6 PUSH1 0x2 DUP2 GT ISZERO PUSH2 0xE89 JUMPI PUSH2 0xE89 PUSH2 0x12C9 JUMP JUMPDEST SUB PUSH2 0xEA2 JUMPI DUP4 DUP2 PUSH1 0x5 ADD PUSH1 0x0 DUP3 DUP3 SLOAD PUSH2 0xE6A SWAP2 SWAP1 PUSH2 0x1629 JUMP JUMPDEST DUP4 DUP2 PUSH1 0x6 ADD PUSH1 0x0 DUP3 DUP3 SLOAD PUSH2 0xEB6 SWAP2 SWAP1 PUSH2 0x1629 JUMP JUMPDEST SWAP1 SWAP2 SSTORE POP POP JUMPDEST PUSH1 0x8 DUP1 SLOAD SWAP1 PUSH1 0x0 PUSH2 0xECC DUP4 PUSH2 0x1763 JUMP JUMPDEST SWAP2 SWAP1 POP SSTORE POP CALLER PUSH1 0x1 PUSH1 0x1 PUSH1 0xA0 SHL SUB AND DUP7 PUSH32 0x9437DB321CB4EF42BCEC521BC641B982C485E0E0E91ED59F883BB9C002BA4755 DUP8 DUP8 DUP8 DUP8 TIMESTAMP PUSH1 0x40 MLOAD PUSH2 0xF13 SWAP6 SWAP5 SWAP4 SWAP3 SWAP2 SWAP1 PUSH2 0x18A7 JUMP JUMPDEST PUSH1 0x40 MLOAD DUP1 SWAP2 SUB SWAP1 LOG3 POP POP POP POP POP POP JUMP JUMPDEST PUSH1 0x0 PUSH1 0x60 PUSH1 0x0 DUP1 PUSH1 0x0 DUP1 PUSH1 0x0 DUP1 PUSH1 0x1 DUP10 DUP2 SLOAD DUP2 LT PUSH2 0xF43 JUMPI PUSH2 0xF43 PUSH2 0x181B JUMP JUMPDEST PUSH1 0x0 SWAP2 DUP3 MSTORE PUSH1 0x20 SWAP1 SWAP2 KECCAK256 PUSH1 0xA SWAP1 SWAP2 MUL ADD PUSH1 0x1 DUP2 ADD SLOAD PUSH1 0x4 DUP3 ADD SLOAD PUSH1 0x5 DUP4 ADD SLOAD PUSH1 0x6 DUP5 ADD SLOAD PUSH1 0x9 DUP6 ADD SLOAD PUSH1 0x2 DUP7 ADD DUP1 SLOAD SWAP7 SWAP8 POP PUSH1 0x1 PUSH1 0x1 PUSH1 0xA0 SHL SUB SWAP1 SWAP6 AND SWAP6 PUSH1 0xFF DUP1 DUP4 AND SWAP3 PUSH2 0x100 SWAP1 DIV AND SWAP1 DUP7 SWAP1 PUSH2 0xF99 SWAP1 PUSH2 0x15D9 JUMP JUMPDEST DUP1 PUSH1 0x1F ADD PUSH1 0x20 DUP1 SWAP2 DIV MUL PUSH1 0x20 ADD PUSH1 0x40 MLOAD SWAP1 DUP2 ADD PUSH1 0x40 MSTORE DUP1 SWAP3 SWAP2 SWAP1 DUP2 DUP2 MSTORE PUSH1 0x20 ADD DUP3 DUP1 SLOAD PUSH2 0xFC5 SWAP1 PUSH2 0x15D9 JUMP JUMPDEST DUP1 ISZERO PUSH2 0x1012 JUMPI DUP1 PUSH1 0x1F LT PUSH2 0xFE7 JUMPI PUSH2 0x100 DUP1 DUP4 SLOAD DIV MUL DUP4 MSTORE SWAP2 PUSH1 0x20 ADD SWAP2 PUSH2 0x1012 JUMP JUMPDEST DUP3 ADD SWAP2 SWAP1 PUSH1 0x0 MSTORE PUSH1 0x20 PUSH1 0x0 KECCAK256 SWAP1 JUMPDEST DUP2 SLOAD DUP2 MSTORE SWAP1 PUSH1 0x1 ADD SWAP1 PUSH1 0x20 ADD DUP1 DUP4 GT PUSH2 0xFF5 JUMPI DUP3 SWAP1 SUB PUSH1 0x1F AND DUP3 ADD SWAP2 JUMPDEST POP POP POP POP POP SWAP6 POP SWAP8 POP SWAP8 POP SWAP8 POP SWAP8 POP SWAP8 POP SWAP8 POP SWAP8 POP POP SWAP2 SWAP4 SWAP6 SWAP8 SWAP1 SWAP3 SWAP5 SWAP7 POP JUMP JUMPDEST PUSH1 0x0 DUP1 PUSH1 0x0 DUP1 PUSH1 0x0 DUP1 PUSH1 0x0 PUSH1 0x1 DUP9 DUP2 SLOAD DUP2 LT PUSH2 0x1051 JUMPI PUSH2 0x1051 PUSH2 0x181B JUMP JUMPDEST SWAP1 PUSH1 0x0 MSTORE PUSH1 0x20 PUSH1 0x0 KECCAK256 SWAP1 PUSH1 0xA MUL ADD SWAP1 POP PUSH1 0x0 DUP2 PUSH1 0x6 ADD SLOAD DUP3 PUSH1 0x5 ADD SLOAD DUP4 PUSH1 0x4 ADD SLOAD PUSH2 0x107C SWAP2 SWAP1 PUSH2 0x1629 JUMP JUMPDEST PUSH2 0x1086 SWAP2 SWAP1 PUSH2 0x1629 JUMP JUMPDEST PUSH1 0x4 DUP4 ADD SLOAD PUSH1 0x5 DUP1 DUP6 ADD SLOAD PUSH1 0x6 DUP7 ADD SLOAD SWAP2 SLOAD SWAP4 SWAP5 POP SWAP2 SWAP3 DUP5 SWAP1 DUP2 LT ISZERO DUP4 DUP6 GT DUP1 ISZERO PUSH2 0x10B3 JUMPI POP PUSH1 0x5 SLOAD DUP7 LT ISZERO JUMPDEST SWAP5 SWAP15 SWAP4 SWAP14 POP SWAP2 SWAP12 POP SWAP10 POP SWAP8 POP SWAP1 SWAP6 POP SWAP4 POP POP POP POP JUMP JUMPDEST PUSH2 0x10D1 PUSH2 0x11ED JUMP JUMPDEST PUSH1 0x5 DUP1 SLOAD SWAP1 DUP3 SWAP1 SSTORE PUSH1 0x40 DUP1 MLOAD PUSH1 0x80 DUP1 DUP3 MSTORE PUSH1 0xB SWAP1 DUP3 ADD MSTORE PUSH11 0x71756F72756D566F746573 PUSH1 0xA8 SHL PUSH1 0xA0 DUP3 ADD MSTORE PUSH1 0x20 DUP2 ADD DUP4 SWAP1 MSTORE SWAP1 DUP2 ADD DUP4 SWAP1 MSTORE TIMESTAMP PUSH1 0x60 DUP3 ADD MSTORE PUSH32 0x95ACA9C5CBF9FB92249D9548380865E22FDD0ED465F933812C873D232711F416 SWAP1 PUSH1 0xC0 ADD PUSH2 0xAD6 JUMP JUMPDEST PUSH2 0x1141 PUSH2 0x11ED JUMP JUMPDEST PUSH1 0x6 DUP1 SLOAD SWAP1 DUP3 SWAP1 SSTORE PUSH1 0x40 DUP1 MLOAD PUSH1 0x80 DUP1 DUP3 MSTORE PUSH1 0x11 SWAP1 DUP3 ADD MSTORE PUSH17 0x1C1C9BDC1BDCD85B151A1C995CDA1BDB19 PUSH1 0x7A SHL PUSH1 0xA0 DUP3 ADD MSTORE PUSH1 0x20 DUP2 ADD DUP4 SWAP1 MSTORE SWAP1 DUP2 ADD DUP4 SWAP1 MSTORE TIMESTAMP PUSH1 0x60 DUP3 ADD MSTORE PUSH32 0x95ACA9C5CBF9FB92249D9548380865E22FDD0ED465F933812C873D232711F416 SWAP1 PUSH1 0xC0 ADD PUSH2 0xAD6 JUMP JUMPDEST PUSH2 0x11B7 PUSH2 0x11ED JUMP JUMPDEST PUSH1 0x1 PUSH1 0x1 PUSH1 0xA0 SHL SUB DUP2 AND PUSH2 0x11E1 JUMPI PUSH1 0x40 MLOAD PUSH4 0x1E4FBDF7 PUSH1 0xE0 SHL DUP2 MSTORE PUSH1 0x0 PUSH1 0x4 DUP3 ADD MSTORE PUSH1 0x24 ADD PUSH2 0x538 JUMP JUMPDEST PUSH2 0x11EA DUP2 PUSH2 0x121A JUMP JUMPDEST POP JUMP JUMPDEST PUSH1 0x0 SLOAD PUSH1 0x1 PUSH1 0x1 PUSH1 0xA0 SHL SUB AND CALLER EQ PUSH2 0xAF4 JUMPI PUSH1 0x40 MLOAD PUSH4 0x118CDAA7 PUSH1 0xE0 SHL DUP2 MSTORE CALLER PUSH1 0x4 DUP3 ADD MSTORE PUSH1 0x24 ADD PUSH2 0x538 JUMP JUMPDEST PUSH1 0x0 DUP1 SLOAD PUSH1 0x1 PUSH1 0x1 PUSH1 0xA0 SHL SUB DUP4 DUP2 AND PUSH1 0x1 PUSH1 0x1 PUSH1 0xA0 SHL SUB NOT DUP4 AND DUP2 OR DUP5 SSTORE PUSH1 0x40 MLOAD SWAP2 SWAP1 SWAP3 AND SWAP3 DUP4 SWAP2 PUSH32 0x8BE0079C531659141344CD1FD0A4F28419497F9722A3DAAFE3B4186F6B6457E0 SWAP2 SWAP1 LOG3 POP POP JUMP JUMPDEST PUSH1 0x0 PUSH1 0x20 DUP3 DUP5 SUB SLT ISZERO PUSH2 0x127C JUMPI PUSH1 0x0 DUP1 REVERT JUMPDEST POP CALLDATALOAD SWAP2 SWAP1 POP JUMP JUMPDEST PUSH1 0x0 DUP2 MLOAD DUP1 DUP5 MSTORE PUSH1 0x0 JUMPDEST DUP2 DUP2 LT ISZERO PUSH2 0x12A9 JUMPI PUSH1 0x20 DUP2 DUP6 ADD DUP2 ADD MLOAD DUP7 DUP4 ADD DUP3 ADD MSTORE ADD PUSH2 0x128D JUMP JUMPDEST POP PUSH1 0x0 PUSH1 0x20 DUP3 DUP7 ADD ADD MSTORE PUSH1 0x20 PUSH1 0x1F NOT PUSH1 0x1F DUP4 ADD AND DUP6 ADD ADD SWAP2 POP POP SWAP3 SWAP2 POP POP JUMP JUMPDEST PUSH4 0x4E487B71 PUSH1 0xE0 SHL PUSH1 0x0 MSTORE PUSH1 0x21 PUSH1 0x4 MSTORE PUSH1 0x24 PUSH1 0x0 REVERT JUMPDEST PUSH1 0x5 DUP2 LT PUSH2 0x12EF JUMPI PUSH2 0x12EF PUSH2 0x12C9 JUMP JUMPDEST SWAP1 MSTORE JUMP JUMPDEST DUP12 DUP2 MSTORE PUSH1 0x1 PUSH1 0x1 PUSH1 0xA0 SHL SUB DUP12 AND PUSH1 0x20 DUP3 ADD MSTORE PUSH2 0x160 PUSH1 0x40 DUP3 ADD DUP2 SWAP1 MSTORE PUSH1 0x0 SWAP1 PUSH2 0x131E DUP4 DUP3 ADD DUP14 PUSH2 0x1283 JUMP JUMPDEST SWAP1 POP DUP3 DUP2 SUB PUSH1 0x60 DUP5 ADD MSTORE PUSH2 0x1332 DUP2 DUP13 PUSH2 0x1283 JUMP JUMPDEST SWAP2 POP POP DUP9 PUSH1 0x80 DUP4 ADD MSTORE DUP8 PUSH1 0xA0 DUP4 ADD MSTORE DUP7 PUSH1 0xC0 DUP4 ADD MSTORE DUP6 PUSH1 0xE0 DUP4 ADD MSTORE DUP5 PUSH2 0x100 DUP4 ADD MSTORE PUSH2 0x1362 PUSH2 0x120 DUP4 ADD DUP6 PUSH2 0x12DF JUMP JUMPDEST DUP3 ISZERO ISZERO PUSH2 0x140 DUP4 ADD MSTORE SWAP13 SWAP12 POP POP POP POP POP POP POP POP POP POP POP POP JUMP JUMPDEST PUSH1 0x0 DUP1 DUP4 PUSH1 0x1F DUP5 ADD SLT PUSH2 0x138D JUMPI PUSH1 0x0 DUP1 REVERT JUMPDEST POP DUP2 CALLDATALOAD PUSH8 0xFFFFFFFFFFFFFFFF DUP2 GT ISZERO PUSH2 0x13A5 JUMPI PUSH1 0x0 DUP1 REVERT JUMPDEST PUSH1 0x20 DUP4 ADD SWAP2 POP DUP4 PUSH1 0x20 DUP3 DUP6 ADD ADD GT ISZERO PUSH2 0x13BD JUMPI PUSH1 0x0 DUP1 REVERT JUMPDEST SWAP3 POP SWAP3 SWAP1 POP JUMP JUMPDEST PUSH1 0x0 DUP1 PUSH1 0x0 DUP1 PUSH1 0x0 PUSH1 0x60 DUP7 DUP9 SUB SLT ISZERO PUSH2 0x13DC JUMPI PUSH1 0x0 DUP1 REVERT JUMPDEST DUP6 CALLDATALOAD PUSH8 0xFFFFFFFFFFFFFFFF DUP1 DUP3 GT ISZERO PUSH2 0x13F4 JUMPI PUSH1 0x0 DUP1 REVERT JUMPDEST PUSH2 0x1400 DUP10 DUP4 DUP11 ADD PUSH2 0x137B JUMP JUMPDEST SWAP1 SWAP8 POP SWAP6 POP PUSH1 0x20 DUP9 ADD CALLDATALOAD SWAP2 POP DUP1 DUP3 GT ISZERO PUSH2 0x1419 JUMPI PUSH1 0x0 DUP1 REVERT JUMPDEST POP PUSH2 0x1426 DUP9 DUP3 DUP10 ADD PUSH2 0x137B JUMP JUMPDEST SWAP7 SWAP10 SWAP6 SWAP9 POP SWAP7 PUSH1 0x40 ADD CALLDATALOAD SWAP5 SWAP4 POP POP POP POP JUMP JUMPDEST DUP1 CALLDATALOAD PUSH1 0x1 PUSH1 0x1 PUSH1 0xA0 SHL SUB DUP2 AND DUP2 EQ PUSH2 0x144F JUMPI PUSH1 0x0 DUP1 REVERT JUMPDEST SWAP2 SWAP1 POP JUMP JUMPDEST PUSH1 0x0 DUP1 PUSH1 0x40 DUP4 DUP6 SUB SLT ISZERO PUSH2 0x1467 JUMPI PUSH1 0x0 DUP1 REVERT JUMPDEST DUP3 CALLDATALOAD SWAP2 POP PUSH2 0x1477 PUSH1 0x20 DUP5 ADD PUSH2 0x1438 JUMP JUMPDEST SWAP1 POP SWAP3 POP SWAP3 SWAP1 POP JUMP JUMPDEST PUSH1 0x3 DUP2 LT PUSH2 0x12EF JUMPI PUSH2 0x12EF PUSH2 0x12C9 JUMP JUMPDEST PUSH1 0x20 DUP2 ADD PUSH2 0x149E DUP3 DUP5 PUSH2 0x1480 JUMP JUMPDEST SWAP3 SWAP2 POP POP JUMP JUMPDEST PUSH1 0x0 DUP1 PUSH1 0x0 PUSH1 0x40 DUP5 DUP7 SUB SLT ISZERO PUSH2 0x14B9 JUMPI PUSH1 0x0 DUP1 REVERT JUMPDEST DUP4 CALLDATALOAD SWAP3 POP PUSH1 0x20 DUP5 ADD CALLDATALOAD PUSH8 0xFFFFFFFFFFFFFFFF DUP2 GT ISZERO PUSH2 0x14D7 JUMPI PUSH1 0x0 DUP1 REVERT JUMPDEST PUSH2 0x14E3 DUP7 DUP3 DUP8 ADD PUSH2 0x137B JUMP JUMPDEST SWAP5 SWAP8 SWAP1 SWAP7 POP SWAP4 SWAP5 POP POP POP POP JUMP JUMPDEST PUSH1 0x0 DUP1 PUSH1 0x0 DUP1 PUSH1 0x0 PUSH1 0x80 DUP7 DUP9 SUB SLT ISZERO PUSH2 0x1508 JUMPI PUSH1 0x0 DUP1 REVERT JUMPDEST DUP6 CALLDATALOAD SWAP5 POP PUSH1 0x20 DUP7 ADD CALLDATALOAD PUSH1 0x3 DUP2 LT PUSH2 0x151E JUMPI PUSH1 0x0 DUP1 REVERT JUMPDEST SWAP4 POP PUSH1 0x40 DUP7 ADD CALLDATALOAD SWAP3 POP PUSH1 0x60 DUP7 ADD CALLDATALOAD PUSH8 0xFFFFFFFFFFFFFFFF DUP2 GT ISZERO PUSH2 0x1541 JUMPI PUSH1 0x0 DUP1 REVERT JUMPDEST PUSH2 0x154D DUP9 DUP3 DUP10 ADD PUSH2 0x137B JUMP JUMPDEST SWAP7 SWAP10 SWAP6 SWAP9 POP SWAP4 SWAP7 POP SWAP3 SWAP5 SWAP4 SWAP3 POP POP POP JUMP JUMPDEST PUSH1 0x1 PUSH1 0x1 PUSH1 0xA0 SHL SUB DUP9 AND DUP2 MSTORE PUSH1 0xE0 PUSH1 0x20 DUP3 ADD DUP2 SWAP1 MSTORE PUSH1 0x0 SWAP1 PUSH2 0x1582 SWAP1 DUP4 ADD DUP10 PUSH2 0x1283 JUMP JUMPDEST SWAP1 POP DUP7 PUSH1 0x40 DUP4 ADD MSTORE DUP6 PUSH1 0x60 DUP4 ADD MSTORE DUP5 PUSH1 0x80 DUP4 ADD MSTORE PUSH2 0x15A3 PUSH1 0xA0 DUP4 ADD DUP6 PUSH2 0x12DF JUMP JUMPDEST DUP3 ISZERO ISZERO PUSH1 0xC0 DUP4 ADD MSTORE SWAP9 SWAP8 POP POP POP POP POP POP POP POP JUMP JUMPDEST PUSH1 0x0 PUSH1 0x20 DUP3 DUP5 SUB SLT ISZERO PUSH2 0x15C9 JUMPI PUSH1 0x0 DUP1 REVERT JUMPDEST PUSH2 0x15D2 DUP3 PUSH2 0x1438 JUMP JUMPDEST SWAP4 SWAP3 POP POP POP JUMP JUMPDEST PUSH1 0x1 DUP2 DUP2 SHR SWAP1 DUP3 AND DUP1 PUSH2 0x15ED JUMPI PUSH1 0x7F DUP3 AND SWAP2 POP JUMPDEST PUSH1 0x20 DUP3 LT DUP2 SUB PUSH2 0x160D JUMPI PUSH4 0x4E487B71 PUSH1 0xE0 SHL PUSH1 0x0 MSTORE PUSH1 0x22 PUSH1 0x4 MSTORE PUSH1 0x24 PUSH1 0x0 REVERT JUMPDEST POP SWAP2 SWAP1 POP JUMP JUMPDEST PUSH4 0x4E487B71 PUSH1 0xE0 SHL PUSH1 0x0 MSTORE PUSH1 0x11 PUSH1 0x4 MSTORE PUSH1 0x24 PUSH1 0x0 REVERT JUMPDEST DUP1 DUP3 ADD DUP1 DUP3 GT ISZERO PUSH2 0x149E JUMPI PUSH2 0x149E PUSH2 0x1613 JUMP JUMPDEST PUSH4 0x4E487B71 PUSH1 0xE0 SHL PUSH1 0x0 MSTORE PUSH1 0x41 PUSH1 0x4 MSTORE PUSH1 0x24 PUSH1 0x0 REVERT JUMPDEST PUSH1 0x1F DUP3 GT ISZERO PUSH2 0x169E JUMPI PUSH1 0x0 DUP2 PUSH1 0x0 MSTORE PUSH1 0x20 PUSH1 0x0 KECCAK256 PUSH1 0x1F DUP6 ADD PUSH1 0x5 SHR DUP2 ADD PUSH1 0x20 DUP7 LT ISZERO PUSH2 0x167B JUMPI POP DUP1 JUMPDEST PUSH1 0x1F DUP6 ADD PUSH1 0x5 SHR DUP3 ADD SWAP2 POP JUMPDEST DUP2 DUP2 LT ISZERO PUSH2 0x169A JUMPI DUP3 DUP2 SSTORE PUSH1 0x1 ADD PUSH2 0x1687 JUMP JUMPDEST POP POP POP JUMPDEST POP POP POP JUMP JUMPDEST DUP2 MLOAD PUSH8 0xFFFFFFFFFFFFFFFF DUP2 GT ISZERO PUSH2 0x16BD JUMPI PUSH2 0x16BD PUSH2 0x163C JUMP JUMPDEST PUSH2 0x16D1 DUP2 PUSH2 0x16CB DUP5 SLOAD PUSH2 0x15D9 JUMP JUMPDEST DUP5 PUSH2 0x1652 JUMP JUMPDEST PUSH1 0x20 DUP1 PUSH1 0x1F DUP4 GT PUSH1 0x1 DUP2 EQ PUSH2 0x1706 JUMPI PUSH1 0x0 DUP5 ISZERO PUSH2 0x16EE JUMPI POP DUP6 DUP4 ADD MLOAD JUMPDEST PUSH1 0x0 NOT PUSH1 0x3 DUP7 SWAP1 SHL SHR NOT AND PUSH1 0x1 DUP6 SWAP1 SHL OR DUP6 SSTORE PUSH2 0x169A JUMP JUMPDEST PUSH1 0x0 DUP6 DUP2 MSTORE PUSH1 0x20 DUP2 KECCAK256 PUSH1 0x1F NOT DUP7 AND SWAP2 JUMPDEST DUP3 DUP2 LT ISZERO PUSH2 0x1735 JUMPI DUP9 DUP7 ADD MLOAD DUP3 SSTORE SWAP5 DUP5 ADD SWAP5 PUSH1 0x1 SWAP1 SWAP2 ADD SWAP1 DUP5 ADD PUSH2 0x1716 JUMP JUMPDEST POP DUP6 DUP3 LT ISZERO PUSH2 0x1753 JUMPI DUP8 DUP6 ADD MLOAD PUSH1 0x0 NOT PUSH1 0x3 DUP9 SWAP1 SHL PUSH1 0xF8 AND SHR NOT AND DUP2 SSTORE JUMPDEST POP POP POP POP POP PUSH1 0x1 SWAP1 DUP2 SHL ADD SWAP1 SSTORE POP JUMP JUMPDEST PUSH1 0x0 PUSH1 0x1 DUP3 ADD PUSH2 0x1775 JUMPI PUSH2 0x1775 PUSH2 0x1613 JUMP JUMPDEST POP PUSH1 0x1 ADD SWAP1 JUMP JUMPDEST DUP2 DUP4 MSTORE DUP2 DUP2 PUSH1 0x20 DUP6 ADD CALLDATACOPY POP PUSH1 0x0 DUP3 DUP3 ADD PUSH1 0x20 SWAP1 DUP2 ADD SWAP2 SWAP1 SWAP2 MSTORE PUSH1 0x1F SWAP1 SWAP2 ADD PUSH1 0x1F NOT AND SWAP1 SWAP2 ADD ADD SWAP1 JUMP JUMPDEST PUSH1 0xA0 DUP2 MSTORE PUSH1 0x0 PUSH2 0x17B9 PUSH1 0xA0 DUP4 ADD DUP10 DUP12 PUSH2 0x177C JUMP JUMPDEST DUP3 DUP2 SUB PUSH1 0x20 DUP5 ADD MSTORE PUSH2 0x17CC DUP2 DUP9 DUP11 PUSH2 0x177C JUMP JUMPDEST PUSH1 0x40 DUP5 ADD SWAP7 SWAP1 SWAP7 MSTORE POP POP PUSH1 0x60 DUP2 ADD SWAP3 SWAP1 SWAP3 MSTORE PUSH1 0x80 SWAP1 SWAP2 ADD MSTORE SWAP5 SWAP4 POP POP POP POP JUMP JUMPDEST PUSH1 0x20 DUP1 DUP3 MSTORE PUSH1 0x15 SWAP1 DUP3 ADD MSTORE PUSH21 0x11DBDD8E881A5B9D985B1A59081C1C9BDC1BDCD85B PUSH1 0x5A SHL PUSH1 0x40 DUP3 ADD MSTORE PUSH1 0x60 ADD SWAP1 JUMP JUMPDEST PUSH4 0x4E487B71 PUSH1 0xE0 SHL PUSH1 0x0 MSTORE PUSH1 0x32 PUSH1 0x4 MSTORE PUSH1 0x24 PUSH1 0x0 REVERT JUMPDEST PUSH1 0x60 DUP2 ADD PUSH2 0x183F DUP3 DUP7 PUSH2 0x12DF JUMP JUMPDEST PUSH2 0x184C PUSH1 0x20 DUP4 ADD DUP6 PUSH2 0x12DF JUMP JUMPDEST DUP3 PUSH1 0x40 DUP4 ADD MSTORE SWAP5 SWAP4 POP POP POP POP JUMP JUMPDEST PUSH1 0x20 DUP1 DUP3 MSTORE PUSH1 0xF SWAP1 DUP3 ADD MSTORE PUSH15 0x476F763A206E6F7420616374697665 PUSH1 0x88 SHL PUSH1 0x40 DUP3 ADD MSTORE PUSH1 0x60 ADD SWAP1 JUMP JUMPDEST PUSH1 0x40 DUP2 MSTORE PUSH1 0x0 PUSH2 0x1897 PUSH1 0x40 DUP4 ADD DUP6 DUP8 PUSH2 0x177C JUMP JUMPDEST SWAP1 POP DUP3 PUSH1 0x20 DUP4 ADD MSTORE SWAP5 SWAP4 POP POP POP POP JUMP JUMPDEST PUSH2 0x18B1 DUP2 DUP8 PUSH2 0x1480 JUMP JUMPDEST DUP5 PUSH1 0x20 DUP3 ADD MSTORE PUSH1 0x80 PUSH1 0x40 DUP3 ADD MSTORE PUSH1 0x0 PUSH2 0x18CE PUSH1 0x80 DUP4 ADD DUP6 DUP8 PUSH2 0x177C JUMP JUMPDEST SWAP1 POP DUP3 PUSH1 0x60 DUP4 ADD MSTORE SWAP7 SWAP6 POP POP POP POP POP POP JUMP INVALID LOG2 PUSH5 0x6970667358 0x22 SLT KECCAK256 LOG1 BLOBHASH OR 0xEF DUP15 SIGNEXTEND CREATE2 SWAP10 CALLVALUE XOR TSTORE AND DELEGATECALL EXP SIGNEXTEND 0xAF 0xDA TSTORE 0xD ORIGIN SDIV 0xD2 JUMPI SELFBALANCE 0x4C PUSH20 0xD55A09F6680C64736F6C63430008180033000000 "},"methodIdentifiers":{"cancelProposal(uint256,string)":"a351f615","castVote(uint256,uint8,uint256,string)":"aa732a30","createProposal(string,string,uint256)":"0ce0ebf4","executeProposal(uint256)":"0d61b519","finalizeProposal(uint256)":"5652077c","getProposalCount()":"c08cc02d","getProposalInfo(uint256)":"bc903cb8","getVoteResult(uint256)":"bfa0fc93","hasVoted(uint256,address)":"43859632","owner()":"8da5cb5b","proposalThreshold()":"b58131b0","proposals(uint256)":"013cf08b","quorumVotes()":"24bc1a64","renounceOwnership()":"715018a6","setProposalThreshold(uint256)":"ece40cc1","setQuorum(uint256)":"c1ba4e59","setVotingDuration(uint256)":"5bcfadb5","totalProposals()":"a78d80fc","totalVotesCast()":"7de418d5","transferOwnership(address)":"f2fde38b","voterChoice(uint256,address)":"51477141","votingDuration()":"132002fc"}}}}}