{"contracts/GenesisVesting.sol":{"GenesisVesting":{"abi":[{"inputs":[],"stateMutability":"nonpayable","type":"constructor"},{"inputs":[{"internalType":"address","name":"owner","type":"address"}],"name":"OwnableInvalidOwner","type":"error"},{"inputs":[{"internalType":"address","name":"account","type":"address"}],"name":"OwnableUnauthorizedAccount","type":"error"},{"inputs":[],"name":"ReentrancyGuardReentrantCall","type":"error"},{"inputs":[{"internalType":"address","name":"token","type":"address"}],"name":"SafeERC20FailedOperation","type":"error"},{"anonymous":false,"inputs":[{"indexed":true,"internalType":"address","name":"previousOwner","type":"address"},{"indexed":true,"internalType":"address","name":"newOwner","type":"address"}],"name":"OwnershipTransferred","type":"event"},{"anonymous":false,"inputs":[{"indexed":true,"internalType":"uint256","name":"scheduleId","type":"uint256"},{"indexed":true,"internalType":"address","name":"beneficiary","type":"address"},{"indexed":false,"internalType":"uint256","name":"amountClaimed","type":"uint256"},{"indexed":false,"internalType":"uint256","name":"totalClaimed","type":"uint256"},{"indexed":false,"internalType":"uint256","name":"remainingLocked","type":"uint256"},{"indexed":false,"internalType":"uint256","name":"timestamp","type":"uint256"}],"name":"TokensClaimed","type":"event"},{"anonymous":false,"inputs":[{"indexed":true,"internalType":"uint256","name":"scheduleId","type":"uint256"},{"indexed":true,"internalType":"address","name":"beneficiary","type":"address"},{"indexed":false,"internalType":"string","name":"milestone","type":"string"},{"indexed":false,"internalType":"uint256","name":"unlockedAmount","type":"uint256"},{"indexed":false,"internalType":"uint256","name":"timestamp","type":"uint256"}],"name":"UnlockMilestone","type":"event"},{"anonymous":false,"inputs":[{"indexed":true,"internalType":"uint256","name":"scheduleId","type":"uint256"},{"indexed":true,"internalType":"address","name":"beneficiary","type":"address"},{"indexed":true,"internalType":"address","name":"token","type":"address"},{"indexed":false,"internalType":"uint256","name":"totalAmount","type":"uint256"},{"indexed":false,"internalType":"uint256","name":"cliffDuration","type":"uint256"},{"indexed":false,"internalType":"uint256","name":"vestingDuration","type":"uint256"},{"indexed":false,"internalType":"string","name":"description","type":"string"},{"indexed":false,"internalType":"uint256","name":"timestamp","type":"uint256"}],"name":"VestingCreated","type":"event"},{"anonymous":false,"inputs":[{"indexed":true,"internalType":"uint256","name":"scheduleId","type":"uint256"},{"indexed":true,"internalType":"address","name":"beneficiary","type":"address"},{"indexed":false,"internalType":"uint256","name":"unvestedAmount","type":"uint256"},{"indexed":false,"internalType":"uint256","name":"vestedUnclaimed","type":"uint256"},{"indexed":false,"internalType":"uint256","name":"timestamp","type":"uint256"}],"name":"VestingRevoked","type":"event"},{"inputs":[{"internalType":"address","name":"","type":"address"},{"internalType":"uint256","name":"","type":"uint256"}],"name":"beneficiarySchedules","outputs":[{"internalType":"uint256","name":"","type":"uint256"}],"stateMutability":"view","type":"function"},{"inputs":[{"internalType":"uint256","name":"scheduleId","type":"uint256"}],"name":"claim","outputs":[],"stateMutability":"nonpayable","type":"function"},{"inputs":[{"internalType":"address","name":"beneficiary","type":"address"},{"internalType":"address","name":"token","type":"address"},{"internalType":"uint256","name":"totalAmount","type":"uint256"},{"internalType":"uint256","name":"cliffDuration","type":"uint256"},{"internalType":"uint256","name":"vestingDuration","type":"uint256"},{"internalType":"string","name":"description","type":"string"}],"name":"createVesting","outputs":[{"internalType":"uint256","name":"scheduleId","type":"uint256"}],"stateMutability":"nonpayable","type":"function"},{"inputs":[{"internalType":"address","name":"beneficiary","type":"address"}],"name":"getBeneficiaryScheduleCount","outputs":[{"internalType":"uint256","name":"","type":"uint256"}],"stateMutability":"view","type":"function"},{"inputs":[{"internalType":"uint256","name":"scheduleId","type":"uint256"}],"name":"getClaimable","outputs":[{"internalType":"uint256","name":"","type":"uint256"}],"stateMutability":"view","type":"function"},{"inputs":[],"name":"getScheduleCount","outputs":[{"internalType":"uint256","name":"","type":"uint256"}],"stateMutability":"view","type":"function"},{"inputs":[{"internalType":"uint256","name":"scheduleId","type":"uint256"}],"name":"getScheduleInfo","outputs":[{"internalType":"address","name":"beneficiary","type":"address"},{"internalType":"uint256","name":"totalAmount","type":"uint256"},{"internalType":"uint256","name":"claimedAmount","type":"uint256"},{"internalType":"uint256","name":"claimable","type":"uint256"},{"internalType":"uint256","name":"vestingProgress","type":"uint256"},{"internalType":"bool","name":"revoked","type":"bool"},{"internalType":"string","name":"description","type":"string"}],"stateMutability":"view","type":"function"},{"inputs":[{"internalType":"uint256","name":"scheduleId","type":"uint256"}],"name":"getVestedAmount","outputs":[{"internalType":"uint256","name":"","type":"uint256"}],"stateMutability":"view","type":"function"},{"inputs":[],"name":"owner","outputs":[{"internalType":"address","name":"","type":"address"}],"stateMutability":"view","type":"function"},{"inputs":[],"name":"renounceOwnership","outputs":[],"stateMutability":"nonpayable","type":"function"},{"inputs":[{"internalType":"uint256","name":"scheduleId","type":"uint256"}],"name":"revoke","outputs":[],"stateMutability":"nonpayable","type":"function"},{"inputs":[{"internalType":"uint256","name":"","type":"uint256"}],"name":"schedules","outputs":[{"internalType":"address","name":"beneficiary","type":"address"},{"internalType":"address","name":"token","type":"address"},{"internalType":"uint256","name":"totalAmount","type":"uint256"},{"internalType":"uint256","name":"claimedAmount","type":"uint256"},{"internalType":"uint256","name":"startTime","type":"uint256"},{"internalType":"uint256","name":"cliffDuration","type":"uint256"},{"internalType":"uint256","name":"vestingDuration","type":"uint256"},{"internalType":"bool","name":"revoked","type":"bool"},{"internalType":"string","name":"description","type":"string"}],"stateMutability":"view","type":"function"},{"inputs":[{"internalType":"uint256","name":"scheduleId","type":"uint256"},{"internalType":"uint256","name":"secondsToAdvance","type":"uint256"}],"name":"simulateTimePass","outputs":[],"stateMutability":"nonpayable","type":"function"},{"inputs":[{"internalType":"address","name":"newOwner","type":"address"}],"name":"transferOwnership","outputs":[],"stateMutability":"nonpayable","type":"function"}],"evm":{"bytecode":{"linkReferences":{},"object":"608060405234801561001057600080fd5b50338061003757604051631e4fbdf760e01b81526000600482015260240160405180910390fd5b6100408161004a565b506001805561009a565b600080546001600160a01b038381166001600160a01b0319831681178455604051919092169283917f8be0079c531659141344cd1fd0a4f28419497f9722a3daafe3b4186f6b6457e09190a35050565b6116b0806100a96000396000f3fe608060405234801561001057600080fd5b50600436106100ea5760003560e01c80638da5cb5b1161008c578063bb9f680311610066578063bb9f6803146101e1578063bdc6d9ab146101f4578063cafeedf61461021c578063f2fde38b1461022f57600080fd5b80638da5cb5b1461018a57806392124f74146101a55780639c7e4a66146101ce57600080fd5b8063379607f5116100c8578063379607f51461014657806346ca4241146101595780635a3c3c2c1461017a578063715018a61461018257600080fd5b8063033d5e4d146100ef57806320c5429b1461011e57806328bde39614610133575b600080fd5b6101026100fd3660046111c0565b610242565b604051610115979695949392919061121f565b60405180910390f35b61013161012c3660046111c0565b6103a2565b005b61013161014136600461126d565b6104f7565b6101316101543660046111c0565b6106aa565b61016c6101673660046112ab565b6108b0565b604051908152602001610115565b60025461016c565b6101316108e1565b6000546040516001600160a01b039091168152602001610115565b61016c6101b33660046112d5565b6001600160a01b031660009081526003602052604090205490565b61016c6101dc3660046111c0565b6108f5565b61016c6101ef3660046112f0565b610959565b6102076102023660046111c0565b610c6c565b604051610115999897969594939291906113a1565b61016c61022a3660046111c0565b610d66565b61013161023d3660046112d5565b610d97565b600080600080600080606060006002898154811061026257610262611404565b90600052602060002090600902019050600061027d82610dd2565b82546002840154600385015460078601549394506001600160a01b039092169290919060ff166102bb5760038501546102b69085611430565b6102be565b60005b60008660020154116102d15760006102eb565b60028601546102e1866064611443565b6102eb919061145a565b600787015460088801805460ff9092169181906103079061147c565b80601f01602080910402602001604051908101604052809291908181526020018280546103339061147c565b80156103805780601f1061035557610100808354040283529160200191610380565b820191906000526020600020905b81548152906001019060200180831161036357829003601f168201915b5050505050905098509850985098509850985098505050919395979092949650565b6103aa610e45565b6000600282815481106103bf576103bf611404565b60009182526020909120600990910201600781015490915060ff161561042c5760405162461bcd60e51b815260206004820152601860248201527f56657374696e673a20616c7265616479207265766f6b6564000000000000000060448201526064015b60405180910390fd5b600061043782610dd2565b9050600081836002015461044b9190611430565b9050600083600301548361045f9190611430565b60078501805460ff19166001179055905081156104a0576104a061048b6000546001600160a01b031690565b60018601546001600160a01b03169084610e72565b83546040805184815260208101849052428183015290516001600160a01b039092169187917fa7cb08ee7b67846b769009eb5d2d85f95afca90d233865e4cd48700ff20843aa919081900360600190a35050505050565b6104ff610e45565b60006002838154811061051457610514611404565b90600052602060002090600902019050818160040160008282546105389190611430565b909155506000905061054982610dd2565b905060008111801561055d57506003820154155b156106a4576002820154600090610575836064611443565b61057f919061145a565b905060608360050154846004015461059791906114b6565b42101580156105a7575060018210155b156105d6575060408051808201909152600d81526c18db1a599997dc995858da1959609a1b602082015261065f565b604b8210610605575060408051808201909152600a8152690dcd57dc195c98d95b9d60b21b602082015261065f565b60328210610634575060408051808201909152600a8152690d4c17dc195c98d95b9d60b21b602082015261065f565b6019821061065f575060408051808201909152600a8152690c8d57dc195c98d95b9d60b21b60208201525b8051156106a15783546040516001600160a01b0390911690879060008051602061165b83398151915290610698908590889042906114c9565b60405180910390a35b50505b50505050565b6106b2610ed6565b6000600282815481106106c7576106c7611404565b6000918252602090912060099091020180549091506001600160a01b031633146107335760405162461bcd60e51b815260206004820152601860248201527f56657374696e673a206e6f742062656e656669636961727900000000000000006044820152606401610423565b600781015460ff161561077b5760405162461bcd60e51b815260206004820152601060248201526f15995cdd1a5b99ce881c995d9bdad95960821b6044820152606401610423565b600061078682610dd2565b9050600082600301548261079a9190611430565b9050600081116107ec5760405162461bcd60e51b815260206004820152601960248201527f56657374696e673a206e6f7468696e6720746f20636c61696d000000000000006044820152606401610423565b8083600301600082825461080091906114b6565b909155505082546001840154610823916001600160a01b03918216911683610e72565b6000836003015484600201546108399190611430565b8454600386015460408051868152602081019290925281018390524260608201529192506001600160a01b03169086907f2f62eccdee750022975d46d1654619624e25a9fa5366ec935cd1ad229ae9829c9060800160405180910390a36108a08585610f00565b505050506108ad60018055565b50565b600360205281600052604060002081815481106108cc57600080fd5b90600052602060002001600091509150505481565b6108e9610e45565b6108f360006110c6565b565b6000806002838154811061090b5761090b611404565b60009182526020909120600990910201600781015490915060ff16156109345750600092915050565b600061093f82610dd2565b90508160030154816109519190611430565b949350505050565b6000610963610e45565b6001600160a01b0388166109b15760405162461bcd60e51b815260206004820152601560248201527456657374696e673a207a65726f206164647265737360581b6044820152606401610423565b600086116109f85760405162461bcd60e51b815260206004820152601460248201527315995cdd1a5b99ce881e995c9bc8185b5bdd5b9d60621b6044820152606401610423565b84841015610a485760405162461bcd60e51b815260206004820152601960248201527f56657374696e673a206475726174696f6e203c20636c696666000000000000006044820152606401610423565b60008411610a915760405162461bcd60e51b81526020600482015260166024820152752b32b9ba34b7339d103d32b93790323ab930ba34b7b760511b6044820152606401610423565b610aa66001600160a01b038816333089611116565b600280549050905060026040518061012001604052808a6001600160a01b03168152602001896001600160a01b031681526020018881526020016000815260200142815260200187815260200186815260200160001515815260200185858080601f0160208091040260200160405190810160405280939291908181526020018383808284376000920182905250939094525050835460018082018655948252602091829020845160099092020180546001600160a01b03199081166001600160a01b03938416178255928501519581018054909316959091169490941790555060408101516002830155606081015160038301556080810151600483015560a0810151600583015560c0810151600683015560e081015160078301805460ff19169115159190911790556101008101519091906008820190610be9908261154c565b5050506001600160a01b03808916600081815260036020908152604080832080546001810182559084529190922001849055519189169183907fdec72aa787eb0a8c2a8dc3c4d477b07c3e0e53c3da39bdd2292de137598d89a090610c59908b908b908b908b908b90429061160c565b60405180910390a4979650505050505050565b60028181548110610c7c57600080fd5b60009182526020909120600990910201805460018201546002830154600384015460048501546005860154600687015460078801546008890180546001600160a01b03998a169b5098909716989597949693959294919360ff9091169291610ce39061147c565b80601f0160208091040260200160405190810160405280929190818152602001828054610d0f9061147c565b8015610d5c5780601f10610d3157610100808354040283529160200191610d5c565b820191906000526020600020905b815481529060010190602001808311610d3f57829003601f168201915b5050505050905089565b6000610d9160028381548110610d7e57610d7e611404565b9060005260206000209060090201610dd2565b92915050565b610d9f610e45565b6001600160a01b038116610dc957604051631e4fbdf760e01b815260006004820152602401610423565b6108ad816110c6565b600081600501548260040154610de891906114b6565b421015610df757506000919050565b6000826004015442610e099190611430565b905082600601548110610e1f5750506002015490565b8260060154818460020154610e349190611443565b610e3e919061145a565b9392505050565b6000546001600160a01b031633146108f35760405163118cdaa760e01b8152336004820152602401610423565b6040516001600160a01b03838116602483015260448201839052610ed191859182169063a9059cbb906064015b604051602081830303815290604052915060e01b6020820180516001600160e01b03838183161783525050505061114f565b505050565b600260015403610ef957604051633ee5aeb560e01b815260040160405180910390fd5b6002600155565b6000816002015482600301546064610f189190611443565b610f22919061145a565b90508160020154826003015403610f9a5781546002830154604080516060808252600c908201526b199d5b1b1e57dd995cdd195960a21b6080820152602081019290925242908201526001600160a01b0390911690849060008051602061165b8339815191529060a0015b60405180910390a3505050565b604b8110610ffe5781546003830154604080516060808252600a90820152690dcd57dc195c98d95b9d60b21b6080820152602081019290925242908201526001600160a01b0390911690849060008051602061165b8339815191529060a001610f8d565b603281106110625781546003830154604080516060808252600a90820152690d4c17dc195c98d95b9d60b21b6080820152602081019290925242908201526001600160a01b0390911690849060008051602061165b8339815191529060a001610f8d565b60198110610ed15781546003830154604080516060808252600a90820152690c8d57dc195c98d95b9d60b21b6080820152602081019290925242908201526001600160a01b0390911690849060008051602061165b8339815191529060a001610f8d565b600080546001600160a01b038381166001600160a01b0319831681178455604051919092169283917f8be0079c531659141344cd1fd0a4f28419497f9722a3daafe3b4186f6b6457e09190a35050565b6040516001600160a01b0384811660248301528381166044830152606482018390526106a49186918216906323b872dd90608401610e9f565b600080602060008451602086016000885af180611172576040513d6000823e3d81fd5b50506000513d9150811561118a578060011415611197565b6001600160a01b0384163b155b156106a457604051635274afe760e01b81526001600160a01b0385166004820152602401610423565b6000602082840312156111d257600080fd5b5035919050565b6000815180845260005b818110156111ff576020818501810151868301820152016111e3565b506000602082860101526020601f19601f83011685010191505092915050565b60018060a01b038816815286602082015285604082015284606082015283608082015282151560a082015260e060c0820152600061126060e08301846111d9565b9998505050505050505050565b6000806040838503121561128057600080fd5b50508035926020909101359150565b80356001600160a01b03811681146112a657600080fd5b919050565b600080604083850312156112be57600080fd5b6112c78361128f565b946020939093013593505050565b6000602082840312156112e757600080fd5b610e3e8261128f565b600080600080600080600060c0888a03121561130b57600080fd5b6113148861128f565b96506113226020890161128f565b955060408801359450606088013593506080880135925060a088013567ffffffffffffffff8082111561135457600080fd5b818a0191508a601f83011261136857600080fd5b81358181111561137757600080fd5b8b602082850101111561138957600080fd5b60208301945080935050505092959891949750929550565b600061012060018060a01b03808d168452808c166020850152508960408401528860608401528760808401528660a08401528560c084015284151560e0840152806101008401526113f4818401856111d9565b9c9b505050505050505050505050565b634e487b7160e01b600052603260045260246000fd5b634e487b7160e01b600052601160045260246000fd5b81810381811115610d9157610d9161141a565b8082028115828204841417610d9157610d9161141a565b60008261147757634e487b7160e01b600052601260045260246000fd5b500490565b600181811c9082168061149057607f821691505b6020821081036114b057634e487b7160e01b600052602260045260246000fd5b50919050565b80820180821115610d9157610d9161141a565b6060815260006114dc60608301866111d9565b60208301949094525060400152919050565b634e487b7160e01b600052604160045260246000fd5b601f821115610ed1576000816000526020600020601f850160051c8101602086101561152d5750805b601f850160051c820191505b818110156106a157828155600101611539565b815167ffffffffffffffff811115611566576115666114ee565b61157a81611574845461147c565b84611504565b602080601f8311600181146115af57600084156115975750858301515b600019600386901b1c1916600185901b1785556106a1565b600085815260208120601f198616915b828110156115de578886015182559484019460019091019084016115bf565b50858210156115fc5787850151600019600388901b60f8161c191681555b5050505050600190811b01905550565b86815285602082015284604082015260a060608201528260a0820152828460c0830137600060c08483010152600060c0601f19601f860116830101905082608083015297965050505050505056fe7f5a156af65e9c0b07d8a6e2bb9cd5cedc8b4a1887ee9487124480c381745216a2646970667358221220c6527c82bf0d52a136576a6fd71cb4a73f4df04e8d006b6482f7d01839f9d93e64736f6c63430008180033","opcodes":"PUSH1 0x80 PUSH1 0x40 MSTORE CALLVALUE DUP1 ISZERO PUSH2 0x10 JUMPI PUSH1 0x0 DUP1 REVERT JUMPDEST POP CALLER DUP1 PUSH2 0x37 JUMPI PUSH1 0x40 MLOAD PUSH4 0x1E4FBDF7 PUSH1 0xE0 SHL DUP2 MSTORE PUSH1 0x0 PUSH1 0x4 DUP3 ADD MSTORE PUSH1 0x24 ADD PUSH1 0x40 MLOAD DUP1 SWAP2 SUB SWAP1 REVERT JUMPDEST PUSH2 0x40 DUP2 PUSH2 0x4A JUMP JUMPDEST POP PUSH1 0x1 DUP1 SSTORE PUSH2 0x9A JUMP JUMPDEST PUSH1 0x0 DUP1 SLOAD PUSH1 0x1 PUSH1 0x1 PUSH1 0xA0 SHL SUB DUP4 DUP2 AND PUSH1 0x1 PUSH1 0x1 PUSH1 0xA0 SHL SUB NOT DUP4 AND DUP2 OR DUP5 SSTORE PUSH1 0x40 MLOAD SWAP2 SWAP1 SWAP3 AND SWAP3 DUP4 SWAP2 PUSH32 0x8BE0079C531659141344CD1FD0A4F28419497F9722A3DAAFE3B4186F6B6457E0 SWAP2 SWAP1 LOG3 POP POP JUMP JUMPDEST PUSH2 0x16B0 DUP1 PUSH2 0xA9 PUSH1 0x0 CODECOPY PUSH1 0x0 RETURN INVALID PUSH1 0x80 PUSH1 0x40 MSTORE CALLVALUE DUP1 ISZERO PUSH2 0x10 JUMPI PUSH1 0x0 DUP1 REVERT JUMPDEST POP PUSH1 0x4 CALLDATASIZE LT PUSH2 0xEA JUMPI PUSH1 0x0 CALLDATALOAD PUSH1 0xE0 SHR DUP1 PUSH4 0x8DA5CB5B GT PUSH2 0x8C JUMPI DUP1 PUSH4 0xBB9F6803 GT PUSH2 0x66 JUMPI DUP1 PUSH4 0xBB9F6803 EQ PUSH2 0x1E1 JUMPI DUP1 PUSH4 0xBDC6D9AB EQ PUSH2 0x1F4 JUMPI DUP1 PUSH4 0xCAFEEDF6 EQ PUSH2 0x21C JUMPI DUP1 PUSH4 0xF2FDE38B EQ PUSH2 0x22F JUMPI PUSH1 0x0 DUP1 REVERT JUMPDEST DUP1 PUSH4 0x8DA5CB5B EQ PUSH2 0x18A JUMPI DUP1 PUSH4 0x92124F74 EQ PUSH2 0x1A5 JUMPI DUP1 PUSH4 0x9C7E4A66 EQ PUSH2 0x1CE JUMPI PUSH1 0x0 DUP1 REVERT JUMPDEST DUP1 PUSH4 0x379607F5 GT PUSH2 0xC8 JUMPI DUP1 PUSH4 0x379607F5 EQ PUSH2 0x146 JUMPI DUP1 PUSH4 0x46CA4241 EQ PUSH2 0x159 JUMPI DUP1 PUSH4 0x5A3C3C2C EQ PUSH2 0x17A JUMPI DUP1 PUSH4 0x715018A6 EQ PUSH2 0x182 JUMPI PUSH1 0x0 DUP1 REVERT JUMPDEST DUP1 PUSH4 0x33D5E4D EQ PUSH2 0xEF JUMPI DUP1 PUSH4 0x20C5429B EQ PUSH2 0x11E JUMPI DUP1 PUSH4 0x28BDE396 EQ PUSH2 0x133 JUMPI JUMPDEST PUSH1 0x0 DUP1 REVERT JUMPDEST PUSH2 0x102 PUSH2 0xFD CALLDATASIZE PUSH1 0x4 PUSH2 0x11C0 JUMP JUMPDEST PUSH2 0x242 JUMP JUMPDEST PUSH1 0x40 MLOAD PUSH2 0x115 SWAP8 SWAP7 SWAP6 SWAP5 SWAP4 SWAP3 SWAP2 SWAP1 PUSH2 0x121F JUMP JUMPDEST PUSH1 0x40 MLOAD DUP1 SWAP2 SUB SWAP1 RETURN JUMPDEST PUSH2 0x131 PUSH2 0x12C CALLDATASIZE PUSH1 0x4 PUSH2 0x11C0 JUMP JUMPDEST PUSH2 0x3A2 JUMP JUMPDEST STOP JUMPDEST PUSH2 0x131 PUSH2 0x141 CALLDATASIZE PUSH1 0x4 PUSH2 0x126D JUMP JUMPDEST PUSH2 0x4F7 JUMP JUMPDEST PUSH2 0x131 PUSH2 0x154 CALLDATASIZE PUSH1 0x4 PUSH2 0x11C0 JUMP JUMPDEST PUSH2 0x6AA JUMP JUMPDEST PUSH2 0x16C PUSH2 0x167 CALLDATASIZE PUSH1 0x4 PUSH2 0x12AB JUMP JUMPDEST PUSH2 0x8B0 JUMP JUMPDEST PUSH1 0x40 MLOAD SWAP1 DUP2 MSTORE PUSH1 0x20 ADD PUSH2 0x115 JUMP JUMPDEST PUSH1 0x2 SLOAD PUSH2 0x16C JUMP JUMPDEST PUSH2 0x131 PUSH2 0x8E1 JUMP JUMPDEST PUSH1 0x0 SLOAD PUSH1 0x40 MLOAD PUSH1 0x1 PUSH1 0x1 PUSH1 0xA0 SHL SUB SWAP1 SWAP2 AND DUP2 MSTORE PUSH1 0x20 ADD PUSH2 0x115 JUMP JUMPDEST PUSH2 0x16C PUSH2 0x1B3 CALLDATASIZE PUSH1 0x4 PUSH2 0x12D5 JUMP JUMPDEST PUSH1 0x1 PUSH1 0x1 PUSH1 0xA0 SHL SUB AND PUSH1 0x0 SWAP1 DUP2 MSTORE PUSH1 0x3 PUSH1 0x20 MSTORE PUSH1 0x40 SWAP1 KECCAK256 SLOAD SWAP1 JUMP JUMPDEST PUSH2 0x16C PUSH2 0x1DC CALLDATASIZE PUSH1 0x4 PUSH2 0x11C0 JUMP JUMPDEST PUSH2 0x8F5 JUMP JUMPDEST PUSH2 0x16C PUSH2 0x1EF CALLDATASIZE PUSH1 0x4 PUSH2 0x12F0 JUMP JUMPDEST PUSH2 0x959 JUMP JUMPDEST PUSH2 0x207 PUSH2 0x202 CALLDATASIZE PUSH1 0x4 PUSH2 0x11C0 JUMP JUMPDEST PUSH2 0xC6C JUMP JUMPDEST PUSH1 0x40 MLOAD PUSH2 0x115 SWAP10 SWAP9 SWAP8 SWAP7 SWAP6 SWAP5 SWAP4 SWAP3 SWAP2 SWAP1 PUSH2 0x13A1 JUMP JUMPDEST PUSH2 0x16C PUSH2 0x22A CALLDATASIZE PUSH1 0x4 PUSH2 0x11C0 JUMP JUMPDEST PUSH2 0xD66 JUMP JUMPDEST PUSH2 0x131 PUSH2 0x23D CALLDATASIZE PUSH1 0x4 PUSH2 0x12D5 JUMP JUMPDEST PUSH2 0xD97 JUMP JUMPDEST PUSH1 0x0 DUP1 PUSH1 0x0 DUP1 PUSH1 0x0 DUP1 PUSH1 0x60 PUSH1 0x0 PUSH1 0x2 DUP10 DUP2 SLOAD DUP2 LT PUSH2 0x262 JUMPI PUSH2 0x262 PUSH2 0x1404 JUMP JUMPDEST SWAP1 PUSH1 0x0 MSTORE PUSH1 0x20 PUSH1 0x0 KECCAK256 SWAP1 PUSH1 0x9 MUL ADD SWAP1 POP PUSH1 0x0 PUSH2 0x27D DUP3 PUSH2 0xDD2 JUMP JUMPDEST DUP3 SLOAD PUSH1 0x2 DUP5 ADD SLOAD PUSH1 0x3 DUP6 ADD SLOAD PUSH1 0x7 DUP7 ADD SLOAD SWAP4 SWAP5 POP PUSH1 0x1 PUSH1 0x1 PUSH1 0xA0 SHL SUB SWAP1 SWAP3 AND SWAP3 SWAP1 SWAP2 SWAP1 PUSH1 0xFF AND PUSH2 0x2BB JUMPI PUSH1 0x3 DUP6 ADD SLOAD PUSH2 0x2B6 SWAP1 DUP6 PUSH2 0x1430 JUMP JUMPDEST PUSH2 0x2BE JUMP JUMPDEST PUSH1 0x0 JUMPDEST PUSH1 0x0 DUP7 PUSH1 0x2 ADD SLOAD GT PUSH2 0x2D1 JUMPI PUSH1 0x0 PUSH2 0x2EB JUMP JUMPDEST PUSH1 0x2 DUP7 ADD SLOAD PUSH2 0x2E1 DUP7 PUSH1 0x64 PUSH2 0x1443 JUMP JUMPDEST PUSH2 0x2EB SWAP2 SWAP1 PUSH2 0x145A JUMP JUMPDEST PUSH1 0x7 DUP8 ADD SLOAD PUSH1 0x8 DUP9 ADD DUP1 SLOAD PUSH1 0xFF SWAP1 SWAP3 AND SWAP2 DUP2 SWAP1 PUSH2 0x307 SWAP1 PUSH2 0x147C JUMP JUMPDEST DUP1 PUSH1 0x1F ADD PUSH1 0x20 DUP1 SWAP2 DIV MUL PUSH1 0x20 ADD PUSH1 0x40 MLOAD SWAP1 DUP2 ADD PUSH1 0x40 MSTORE DUP1 SWAP3 SWAP2 SWAP1 DUP2 DUP2 MSTORE PUSH1 0x20 ADD DUP3 DUP1 SLOAD PUSH2 0x333 SWAP1 PUSH2 0x147C JUMP JUMPDEST DUP1 ISZERO PUSH2 0x380 JUMPI DUP1 PUSH1 0x1F LT PUSH2 0x355 JUMPI PUSH2 0x100 DUP1 DUP4 SLOAD DIV MUL DUP4 MSTORE SWAP2 PUSH1 0x20 ADD SWAP2 PUSH2 0x380 JUMP JUMPDEST DUP3 ADD SWAP2 SWAP1 PUSH1 0x0 MSTORE PUSH1 0x20 PUSH1 0x0 KECCAK256 SWAP1 JUMPDEST DUP2 SLOAD DUP2 MSTORE SWAP1 PUSH1 0x1 ADD SWAP1 PUSH1 0x20 ADD DUP1 DUP4 GT PUSH2 0x363 JUMPI DUP3 SWAP1 SUB PUSH1 0x1F AND DUP3 ADD SWAP2 JUMPDEST POP POP POP POP POP SWAP1 POP SWAP9 POP SWAP9 POP SWAP9 POP SWAP9 POP SWAP9 POP SWAP9 POP SWAP9 POP POP POP SWAP2 SWAP4 SWAP6 SWAP8 SWAP1 SWAP3 SWAP5 SWAP7 POP JUMP JUMPDEST PUSH2 0x3AA PUSH2 0xE45 JUMP JUMPDEST PUSH1 0x0 PUSH1 0x2 DUP3 DUP2 SLOAD DUP2 LT PUSH2 0x3BF JUMPI PUSH2 0x3BF PUSH2 0x1404 JUMP JUMPDEST PUSH1 0x0 SWAP2 DUP3 MSTORE PUSH1 0x20 SWAP1 SWAP2 KECCAK256 PUSH1 0x9 SWAP1 SWAP2 MUL ADD PUSH1 0x7 DUP2 ADD SLOAD SWAP1 SWAP2 POP PUSH1 0xFF AND ISZERO PUSH2 0x42C JUMPI PUSH1 0x40 MLOAD PUSH3 0x461BCD PUSH1 0xE5 SHL DUP2 MSTORE PUSH1 0x20 PUSH1 0x4 DUP3 ADD MSTORE PUSH1 0x18 PUSH1 0x24 DUP3 ADD MSTORE PUSH32 0x56657374696E673A20616C7265616479207265766F6B65640000000000000000 PUSH1 0x44 DUP3 ADD MSTORE PUSH1 0x64 ADD JUMPDEST PUSH1 0x40 MLOAD DUP1 SWAP2 SUB SWAP1 REVERT JUMPDEST PUSH1 0x0 PUSH2 0x437 DUP3 PUSH2 0xDD2 JUMP JUMPDEST SWAP1 POP PUSH1 0x0 DUP2 DUP4 PUSH1 0x2 ADD SLOAD PUSH2 0x44B SWAP2 SWAP1 PUSH2 0x1430 JUMP JUMPDEST SWAP1 POP PUSH1 0x0 DUP4 PUSH1 0x3 ADD SLOAD DUP4 PUSH2 0x45F SWAP2 SWAP1 PUSH2 0x1430 JUMP JUMPDEST PUSH1 0x7 DUP6 ADD DUP1 SLOAD PUSH1 0xFF NOT AND PUSH1 0x1 OR SWAP1 SSTORE SWAP1 POP DUP2 ISZERO PUSH2 0x4A0 JUMPI PUSH2 0x4A0 PUSH2 0x48B PUSH1 0x0 SLOAD PUSH1 0x1 PUSH1 0x1 PUSH1 0xA0 SHL SUB AND SWAP1 JUMP JUMPDEST PUSH1 0x1 DUP7 ADD SLOAD PUSH1 0x1 PUSH1 0x1 PUSH1 0xA0 SHL SUB AND SWAP1 DUP5 PUSH2 0xE72 JUMP JUMPDEST DUP4 SLOAD PUSH1 0x40 DUP1 MLOAD DUP5 DUP2 MSTORE PUSH1 0x20 DUP2 ADD DUP5 SWAP1 MSTORE TIMESTAMP DUP2 DUP4 ADD MSTORE SWAP1 MLOAD PUSH1 0x1 PUSH1 0x1 PUSH1 0xA0 SHL SUB SWAP1 SWAP3 AND SWAP2 DUP8 SWAP2 PUSH32 0xA7CB08EE7B67846B769009EB5D2D85F95AFCA90D233865E4CD48700FF20843AA SWAP2 SWAP1 DUP2 SWAP1 SUB PUSH1 0x60 ADD SWAP1 LOG3 POP POP POP POP POP JUMP JUMPDEST PUSH2 0x4FF PUSH2 0xE45 JUMP JUMPDEST PUSH1 0x0 PUSH1 0x2 DUP4 DUP2 SLOAD DUP2 LT PUSH2 0x514 JUMPI PUSH2 0x514 PUSH2 0x1404 JUMP JUMPDEST SWAP1 PUSH1 0x0 MSTORE PUSH1 0x20 PUSH1 0x0 KECCAK256 SWAP1 PUSH1 0x9 MUL ADD SWAP1 POP DUP2 DUP2 PUSH1 0x4 ADD PUSH1 0x0 DUP3 DUP3 SLOAD PUSH2 0x538 SWAP2 SWAP1 PUSH2 0x1430 JUMP JUMPDEST SWAP1 SWAP2 SSTORE POP PUSH1 0x0 SWAP1 POP PUSH2 0x549 DUP3 PUSH2 0xDD2 JUMP JUMPDEST SWAP1 POP PUSH1 0x0 DUP2 GT DUP1 ISZERO PUSH2 0x55D JUMPI POP PUSH1 0x3 DUP3 ADD SLOAD ISZERO JUMPDEST ISZERO PUSH2 0x6A4 JUMPI PUSH1 0x2 DUP3 ADD SLOAD PUSH1 0x0 SWAP1 PUSH2 0x575 DUP4 PUSH1 0x64 PUSH2 0x1443 JUMP JUMPDEST PUSH2 0x57F SWAP2 SWAP1 PUSH2 0x145A JUMP JUMPDEST SWAP1 POP PUSH1 0x60 DUP4 PUSH1 0x5 ADD SLOAD DUP5 PUSH1 0x4 ADD SLOAD PUSH2 0x597 SWAP2 SWAP1 PUSH2 0x14B6 JUMP JUMPDEST TIMESTAMP LT ISZERO DUP1 ISZERO PUSH2 0x5A7 JUMPI POP PUSH1 0x1 DUP3 LT ISZERO JUMPDEST ISZERO PUSH2 0x5D6 JUMPI POP PUSH1 0x40 DUP1 MLOAD DUP1 DUP3 ADD SWAP1 SWAP2 MSTORE PUSH1 0xD DUP2 MSTORE PUSH13 0x18DB1A599997DC995858DA1959 PUSH1 0x9A SHL PUSH1 0x20 DUP3 ADD MSTORE PUSH2 0x65F JUMP JUMPDEST PUSH1 0x4B DUP3 LT PUSH2 0x605 JUMPI POP PUSH1 0x40 DUP1 MLOAD DUP1 DUP3 ADD SWAP1 SWAP2 MSTORE PUSH1 0xA DUP2 MSTORE PUSH10 0xDCD57DC195C98D95B9D PUSH1 0xB2 SHL PUSH1 0x20 DUP3 ADD MSTORE PUSH2 0x65F JUMP JUMPDEST PUSH1 0x32 DUP3 LT PUSH2 0x634 JUMPI POP PUSH1 0x40 DUP1 MLOAD DUP1 DUP3 ADD SWAP1 SWAP2 MSTORE PUSH1 0xA DUP2 MSTORE PUSH10 0xD4C17DC195C98D95B9D PUSH1 0xB2 SHL PUSH1 0x20 DUP3 ADD MSTORE PUSH2 0x65F JUMP JUMPDEST PUSH1 0x19 DUP3 LT PUSH2 0x65F JUMPI POP PUSH1 0x40 DUP1 MLOAD DUP1 DUP3 ADD SWAP1 SWAP2 MSTORE PUSH1 0xA DUP2 MSTORE PUSH10 0xC8D57DC195C98D95B9D PUSH1 0xB2 SHL PUSH1 0x20 DUP3 ADD MSTORE JUMPDEST DUP1 MLOAD ISZERO PUSH2 0x6A1 JUMPI DUP4 SLOAD PUSH1 0x40 MLOAD PUSH1 0x1 PUSH1 0x1 PUSH1 0xA0 SHL SUB SWAP1 SWAP2 AND SWAP1 DUP8 SWAP1 PUSH1 0x0 DUP1 MLOAD PUSH1 0x20 PUSH2 0x165B DUP4 CODECOPY DUP2 MLOAD SWAP2 MSTORE SWAP1 PUSH2 0x698 SWAP1 DUP6 SWAP1 DUP9 SWAP1 TIMESTAMP SWAP1 PUSH2 0x14C9 JUMP JUMPDEST PUSH1 0x40 MLOAD DUP1 SWAP2 SUB SWAP1 LOG3 JUMPDEST POP POP JUMPDEST POP POP POP POP JUMP JUMPDEST PUSH2 0x6B2 PUSH2 0xED6 JUMP JUMPDEST PUSH1 0x0 PUSH1 0x2 DUP3 DUP2 SLOAD DUP2 LT PUSH2 0x6C7 JUMPI PUSH2 0x6C7 PUSH2 0x1404 JUMP JUMPDEST PUSH1 0x0 SWAP2 DUP3 MSTORE PUSH1 0x20 SWAP1 SWAP2 KECCAK256 PUSH1 0x9 SWAP1 SWAP2 MUL ADD DUP1 SLOAD SWAP1 SWAP2 POP PUSH1 0x1 PUSH1 0x1 PUSH1 0xA0 SHL SUB AND CALLER EQ PUSH2 0x733 JUMPI PUSH1 0x40 MLOAD PUSH3 0x461BCD PUSH1 0xE5 SHL DUP2 MSTORE PUSH1 0x20 PUSH1 0x4 DUP3 ADD MSTORE PUSH1 0x18 PUSH1 0x24 DUP3 ADD MSTORE PUSH32 0x56657374696E673A206E6F742062656E65666963696172790000000000000000 PUSH1 0x44 DUP3 ADD MSTORE PUSH1 0x64 ADD PUSH2 0x423 JUMP JUMPDEST PUSH1 0x7 DUP2 ADD SLOAD PUSH1 0xFF AND ISZERO PUSH2 0x77B JUMPI PUSH1 0x40 MLOAD PUSH3 0x461BCD PUSH1 0xE5 SHL DUP2 MSTORE PUSH1 0x20 PUSH1 0x4 DUP3 ADD MSTORE PUSH1 0x10 PUSH1 0x24 DUP3 ADD MSTORE PUSH16 0x15995CDD1A5B99CE881C995D9BDAD959 PUSH1 0x82 SHL PUSH1 0x44 DUP3 ADD MSTORE PUSH1 0x64 ADD PUSH2 0x423 JUMP JUMPDEST PUSH1 0x0 PUSH2 0x786 DUP3 PUSH2 0xDD2 JUMP JUMPDEST SWAP1 POP PUSH1 0x0 DUP3 PUSH1 0x3 ADD SLOAD DUP3 PUSH2 0x79A SWAP2 SWAP1 PUSH2 0x1430 JUMP JUMPDEST SWAP1 POP PUSH1 0x0 DUP2 GT PUSH2 0x7EC JUMPI PUSH1 0x40 MLOAD PUSH3 0x461BCD PUSH1 0xE5 SHL DUP2 MSTORE PUSH1 0x20 PUSH1 0x4 DUP3 ADD MSTORE PUSH1 0x19 PUSH1 0x24 DUP3 ADD MSTORE PUSH32 0x56657374696E673A206E6F7468696E6720746F20636C61696D00000000000000 PUSH1 0x44 DUP3 ADD MSTORE PUSH1 0x64 ADD PUSH2 0x423 JUMP JUMPDEST DUP1 DUP4 PUSH1 0x3 ADD PUSH1 0x0 DUP3 DUP3 SLOAD PUSH2 0x800 SWAP2 SWAP1 PUSH2 0x14B6 JUMP JUMPDEST SWAP1 SWAP2 SSTORE POP POP DUP3 SLOAD PUSH1 0x1 DUP5 ADD SLOAD PUSH2 0x823 SWAP2 PUSH1 0x1 PUSH1 0x1 PUSH1 0xA0 SHL SUB SWAP2 DUP3 AND SWAP2 AND DUP4 PUSH2 0xE72 JUMP JUMPDEST PUSH1 0x0 DUP4 PUSH1 0x3 ADD SLOAD DUP5 PUSH1 0x2 ADD SLOAD PUSH2 0x839 SWAP2 SWAP1 PUSH2 0x1430 JUMP JUMPDEST DUP5 SLOAD PUSH1 0x3 DUP7 ADD SLOAD PUSH1 0x40 DUP1 MLOAD DUP7 DUP2 MSTORE PUSH1 0x20 DUP2 ADD SWAP3 SWAP1 SWAP3 MSTORE DUP2 ADD DUP4 SWAP1 MSTORE TIMESTAMP PUSH1 0x60 DUP3 ADD MSTORE SWAP2 SWAP3 POP PUSH1 0x1 PUSH1 0x1 PUSH1 0xA0 SHL SUB AND SWAP1 DUP7 SWAP1 PUSH32 0x2F62ECCDEE750022975D46D1654619624E25A9FA5366EC935CD1AD229AE9829C SWAP1 PUSH1 0x80 ADD PUSH1 0x40 MLOAD DUP1 SWAP2 SUB SWAP1 LOG3 PUSH2 0x8A0 DUP6 DUP6 PUSH2 0xF00 JUMP JUMPDEST POP POP POP POP PUSH2 0x8AD PUSH1 0x1 DUP1 SSTORE JUMP JUMPDEST POP JUMP JUMPDEST PUSH1 0x3 PUSH1 0x20 MSTORE DUP2 PUSH1 0x0 MSTORE PUSH1 0x40 PUSH1 0x0 KECCAK256 DUP2 DUP2 SLOAD DUP2 LT PUSH2 0x8CC JUMPI PUSH1 0x0 DUP1 REVERT JUMPDEST SWAP1 PUSH1 0x0 MSTORE PUSH1 0x20 PUSH1 0x0 KECCAK256 ADD PUSH1 0x0 SWAP2 POP SWAP2 POP POP SLOAD DUP2 JUMP JUMPDEST PUSH2 0x8E9 PUSH2 0xE45 JUMP JUMPDEST PUSH2 0x8F3 PUSH1 0x0 PUSH2 0x10C6 JUMP JUMPDEST JUMP JUMPDEST PUSH1 0x0 DUP1 PUSH1 0x2 DUP4 DUP2 SLOAD DUP2 LT PUSH2 0x90B JUMPI PUSH2 0x90B PUSH2 0x1404 JUMP JUMPDEST PUSH1 0x0 SWAP2 DUP3 MSTORE PUSH1 0x20 SWAP1 SWAP2 KECCAK256 PUSH1 0x9 SWAP1 SWAP2 MUL ADD PUSH1 0x7 DUP2 ADD SLOAD SWAP1 SWAP2 POP PUSH1 0xFF AND ISZERO PUSH2 0x934 JUMPI POP PUSH1 0x0 SWAP3 SWAP2 POP POP JUMP JUMPDEST PUSH1 0x0 PUSH2 0x93F DUP3 PUSH2 0xDD2 JUMP JUMPDEST SWAP1 POP DUP2 PUSH1 0x3 ADD SLOAD DUP2 PUSH2 0x951 SWAP2 SWAP1 PUSH2 0x1430 JUMP JUMPDEST SWAP5 SWAP4 POP POP POP POP JUMP JUMPDEST PUSH1 0x0 PUSH2 0x963 PUSH2 0xE45 JUMP JUMPDEST PUSH1 0x1 PUSH1 0x1 PUSH1 0xA0 SHL SUB DUP9 AND PUSH2 0x9B1 JUMPI PUSH1 0x40 MLOAD PUSH3 0x461BCD PUSH1 0xE5 SHL DUP2 MSTORE PUSH1 0x20 PUSH1 0x4 DUP3 ADD MSTORE PUSH1 0x15 PUSH1 0x24 DUP3 ADD MSTORE PUSH21 0x56657374696E673A207A65726F2061646472657373 PUSH1 0x58 SHL PUSH1 0x44 DUP3 ADD MSTORE PUSH1 0x64 ADD PUSH2 0x423 JUMP JUMPDEST PUSH1 0x0 DUP7 GT PUSH2 0x9F8 JUMPI PUSH1 0x40 MLOAD PUSH3 0x461BCD PUSH1 0xE5 SHL DUP2 MSTORE PUSH1 0x20 PUSH1 0x4 DUP3 ADD MSTORE PUSH1 0x14 PUSH1 0x24 DUP3 ADD MSTORE PUSH20 0x15995CDD1A5B99CE881E995C9BC8185B5BDD5B9D PUSH1 0x62 SHL PUSH1 0x44 DUP3 ADD MSTORE PUSH1 0x64 ADD PUSH2 0x423 JUMP JUMPDEST DUP5 DUP5 LT ISZERO PUSH2 0xA48 JUMPI PUSH1 0x40 MLOAD PUSH3 0x461BCD PUSH1 0xE5 SHL DUP2 MSTORE PUSH1 0x20 PUSH1 0x4 DUP3 ADD MSTORE PUSH1 0x19 PUSH1 0x24 DUP3 ADD MSTORE PUSH32 0x56657374696E673A206475726174696F6E203C20636C69666600000000000000 PUSH1 0x44 DUP3 ADD MSTORE PUSH1 0x64 ADD PUSH2 0x423 JUMP JUMPDEST PUSH1 0x0 DUP5 GT PUSH2 0xA91 JUMPI PUSH1 0x40 MLOAD PUSH3 0x461BCD PUSH1 0xE5 SHL DUP2 MSTORE PUSH1 0x20 PUSH1 0x4 DUP3 ADD MSTORE PUSH1 0x16 PUSH1 0x24 DUP3 ADD MSTORE PUSH22 0x2B32B9BA34B7339D103D32B93790323AB930BA34B7B7 PUSH1 0x51 SHL PUSH1 0x44 DUP3 ADD MSTORE PUSH1 0x64 ADD PUSH2 0x423 JUMP JUMPDEST PUSH2 0xAA6 PUSH1 0x1 PUSH1 0x1 PUSH1 0xA0 SHL SUB DUP9 AND CALLER ADDRESS DUP10 PUSH2 0x1116 JUMP JUMPDEST PUSH1 0x2 DUP1 SLOAD SWAP1 POP SWAP1 POP PUSH1 0x2 PUSH1 0x40 MLOAD DUP1 PUSH2 0x120 ADD PUSH1 0x40 MSTORE DUP1 DUP11 PUSH1 0x1 PUSH1 0x1 PUSH1 0xA0 SHL SUB AND DUP2 MSTORE PUSH1 0x20 ADD DUP10 PUSH1 0x1 PUSH1 0x1 PUSH1 0xA0 SHL SUB AND DUP2 MSTORE PUSH1 0x20 ADD DUP9 DUP2 MSTORE PUSH1 0x20 ADD PUSH1 0x0 DUP2 MSTORE PUSH1 0x20 ADD TIMESTAMP DUP2 MSTORE PUSH1 0x20 ADD DUP8 DUP2 MSTORE PUSH1 0x20 ADD DUP7 DUP2 MSTORE PUSH1 0x20 ADD PUSH1 0x0 ISZERO ISZERO DUP2 MSTORE PUSH1 0x20 ADD DUP6 DUP6 DUP1 DUP1 PUSH1 0x1F ADD PUSH1 0x20 DUP1 SWAP2 DIV MUL PUSH1 0x20 ADD PUSH1 0x40 MLOAD SWAP1 DUP2 ADD PUSH1 0x40 MSTORE DUP1 SWAP4 SWAP3 SWAP2 SWAP1 DUP2 DUP2 MSTORE PUSH1 0x20 ADD DUP4 DUP4 DUP1 DUP3 DUP5 CALLDATACOPY PUSH1 0x0 SWAP3 ADD DUP3 SWAP1 MSTORE POP SWAP4 SWAP1 SWAP5 MSTORE POP POP DUP4 SLOAD PUSH1 0x1 DUP1 DUP3 ADD DUP7 SSTORE SWAP5 DUP3 MSTORE PUSH1 0x20 SWAP2 DUP3 SWAP1 KECCAK256 DUP5 MLOAD PUSH1 0x9 SWAP1 SWAP3 MUL ADD DUP1 SLOAD PUSH1 0x1 PUSH1 0x1 PUSH1 0xA0 SHL SUB NOT SWAP1 DUP2 AND PUSH1 0x1 PUSH1 0x1 PUSH1 0xA0 SHL SUB SWAP4 DUP5 AND OR DUP3 SSTORE SWAP3 DUP6 ADD MLOAD SWAP6 DUP2 ADD DUP1 SLOAD SWAP1 SWAP4 AND SWAP6 SWAP1 SWAP2 AND SWAP5 SWAP1 SWAP5 OR SWAP1 SSTORE POP PUSH1 0x40 DUP2 ADD MLOAD PUSH1 0x2 DUP4 ADD SSTORE PUSH1 0x60 DUP2 ADD MLOAD PUSH1 0x3 DUP4 ADD SSTORE PUSH1 0x80 DUP2 ADD MLOAD PUSH1 0x4 DUP4 ADD SSTORE PUSH1 0xA0 DUP2 ADD MLOAD PUSH1 0x5 DUP4 ADD SSTORE PUSH1 0xC0 DUP2 ADD MLOAD PUSH1 0x6 DUP4 ADD SSTORE PUSH1 0xE0 DUP2 ADD MLOAD PUSH1 0x7 DUP4 ADD DUP1 SLOAD PUSH1 0xFF NOT AND SWAP2 ISZERO ISZERO SWAP2 SWAP1 SWAP2 OR SWAP1 SSTORE PUSH2 0x100 DUP2 ADD MLOAD SWAP1 SWAP2 SWAP1 PUSH1 0x8 DUP3 ADD SWAP1 PUSH2 0xBE9 SWAP1 DUP3 PUSH2 0x154C JUMP JUMPDEST POP POP POP PUSH1 0x1 PUSH1 0x1 PUSH1 0xA0 SHL SUB DUP1 DUP10 AND PUSH1 0x0 DUP2 DUP2 MSTORE PUSH1 0x3 PUSH1 0x20 SWAP1 DUP2 MSTORE PUSH1 0x40 DUP1 DUP4 KECCAK256 DUP1 SLOAD PUSH1 0x1 DUP2 ADD DUP3 SSTORE SWAP1 DUP5 MSTORE SWAP2 SWAP1 SWAP3 KECCAK256 ADD DUP5 SWAP1 SSTORE MLOAD SWAP2 DUP10 AND SWAP2 DUP4 SWAP1 PUSH32 0xDEC72AA787EB0A8C2A8DC3C4D477B07C3E0E53C3DA39BDD2292DE137598D89A0 SWAP1 PUSH2 0xC59 SWAP1 DUP12 SWAP1 DUP12 SWAP1 DUP12 SWAP1 DUP12 SWAP1 DUP12 SWAP1 TIMESTAMP SWAP1 PUSH2 0x160C JUMP JUMPDEST PUSH1 0x40 MLOAD DUP1 SWAP2 SUB SWAP1 LOG4 SWAP8 SWAP7 POP POP POP POP POP POP POP JUMP JUMPDEST PUSH1 0x2 DUP2 DUP2 SLOAD DUP2 LT PUSH2 0xC7C JUMPI PUSH1 0x0 DUP1 REVERT JUMPDEST PUSH1 0x0 SWAP2 DUP3 MSTORE PUSH1 0x20 SWAP1 SWAP2 KECCAK256 PUSH1 0x9 SWAP1 SWAP2 MUL ADD DUP1 SLOAD PUSH1 0x1 DUP3 ADD SLOAD PUSH1 0x2 DUP4 ADD SLOAD PUSH1 0x3 DUP5 ADD SLOAD PUSH1 0x4 DUP6 ADD SLOAD PUSH1 0x5 DUP7 ADD SLOAD PUSH1 0x6 DUP8 ADD SLOAD PUSH1 0x7 DUP9 ADD SLOAD PUSH1 0x8 DUP10 ADD DUP1 SLOAD PUSH1 0x1 PUSH1 0x1 PUSH1 0xA0 SHL SUB SWAP10 DUP11 AND SWAP12 POP SWAP9 SWAP1 SWAP8 AND SWAP9 SWAP6 SWAP8 SWAP5 SWAP7 SWAP4 SWAP6 SWAP3 SWAP5 SWAP2 SWAP4 PUSH1 0xFF SWAP1 SWAP2 AND SWAP3 SWAP2 PUSH2 0xCE3 SWAP1 PUSH2 0x147C JUMP JUMPDEST DUP1 PUSH1 0x1F ADD PUSH1 0x20 DUP1 SWAP2 DIV MUL PUSH1 0x20 ADD PUSH1 0x40 MLOAD SWAP1 DUP2 ADD PUSH1 0x40 MSTORE DUP1 SWAP3 SWAP2 SWAP1 DUP2 DUP2 MSTORE PUSH1 0x20 ADD DUP3 DUP1 SLOAD PUSH2 0xD0F SWAP1 PUSH2 0x147C JUMP JUMPDEST DUP1 ISZERO PUSH2 0xD5C JUMPI DUP1 PUSH1 0x1F LT PUSH2 0xD31 JUMPI PUSH2 0x100 DUP1 DUP4 SLOAD DIV MUL DUP4 MSTORE SWAP2 PUSH1 0x20 ADD SWAP2 PUSH2 0xD5C JUMP JUMPDEST DUP3 ADD SWAP2 SWAP1 PUSH1 0x0 MSTORE PUSH1 0x20 PUSH1 0x0 KECCAK256 SWAP1 JUMPDEST DUP2 SLOAD DUP2 MSTORE SWAP1 PUSH1 0x1 ADD SWAP1 PUSH1 0x20 ADD DUP1 DUP4 GT PUSH2 0xD3F JUMPI DUP3 SWAP1 SUB PUSH1 0x1F AND DUP3 ADD SWAP2 JUMPDEST POP POP POP POP POP SWAP1 POP DUP10 JUMP JUMPDEST PUSH1 0x0 PUSH2 0xD91 PUSH1 0x2 DUP4 DUP2 SLOAD DUP2 LT PUSH2 0xD7E JUMPI PUSH2 0xD7E PUSH2 0x1404 JUMP JUMPDEST SWAP1 PUSH1 0x0 MSTORE PUSH1 0x20 PUSH1 0x0 KECCAK256 SWAP1 PUSH1 0x9 MUL ADD PUSH2 0xDD2 JUMP JUMPDEST SWAP3 SWAP2 POP POP JUMP JUMPDEST PUSH2 0xD9F PUSH2 0xE45 JUMP JUMPDEST PUSH1 0x1 PUSH1 0x1 PUSH1 0xA0 SHL SUB DUP2 AND PUSH2 0xDC9 JUMPI PUSH1 0x40 MLOAD PUSH4 0x1E4FBDF7 PUSH1 0xE0 SHL DUP2 MSTORE PUSH1 0x0 PUSH1 0x4 DUP3 ADD MSTORE PUSH1 0x24 ADD PUSH2 0x423 JUMP JUMPDEST PUSH2 0x8AD DUP2 PUSH2 0x10C6 JUMP JUMPDEST PUSH1 0x0 DUP2 PUSH1 0x5 ADD SLOAD DUP3 PUSH1 0x4 ADD SLOAD PUSH2 0xDE8 SWAP2 SWAP1 PUSH2 0x14B6 JUMP JUMPDEST TIMESTAMP LT ISZERO PUSH2 0xDF7 JUMPI POP PUSH1 0x0 SWAP2 SWAP1 POP JUMP JUMPDEST PUSH1 0x0 DUP3 PUSH1 0x4 ADD SLOAD TIMESTAMP PUSH2 0xE09 SWAP2 SWAP1 PUSH2 0x1430 JUMP JUMPDEST SWAP1 POP DUP3 PUSH1 0x6 ADD SLOAD DUP2 LT PUSH2 0xE1F JUMPI POP POP PUSH1 0x2 ADD SLOAD SWAP1 JUMP JUMPDEST DUP3 PUSH1 0x6 ADD SLOAD DUP2 DUP5 PUSH1 0x2 ADD SLOAD PUSH2 0xE34 SWAP2 SWAP1 PUSH2 0x1443 JUMP JUMPDEST PUSH2 0xE3E SWAP2 SWAP1 PUSH2 0x145A JUMP JUMPDEST SWAP4 SWAP3 POP POP POP JUMP JUMPDEST PUSH1 0x0 SLOAD PUSH1 0x1 PUSH1 0x1 PUSH1 0xA0 SHL SUB AND CALLER EQ PUSH2 0x8F3 JUMPI PUSH1 0x40 MLOAD PUSH4 0x118CDAA7 PUSH1 0xE0 SHL DUP2 MSTORE CALLER PUSH1 0x4 DUP3 ADD MSTORE PUSH1 0x24 ADD PUSH2 0x423 JUMP JUMPDEST PUSH1 0x40 MLOAD PUSH1 0x1 PUSH1 0x1 PUSH1 0xA0 SHL SUB DUP4 DUP2 AND PUSH1 0x24 DUP4 ADD MSTORE PUSH1 0x44 DUP3 ADD DUP4 SWAP1 MSTORE PUSH2 0xED1 SWAP2 DUP6 SWAP2 DUP3 AND SWAP1 PUSH4 0xA9059CBB SWAP1 PUSH1 0x64 ADD JUMPDEST PUSH1 0x40 MLOAD PUSH1 0x20 DUP2 DUP4 SUB SUB DUP2 MSTORE SWAP1 PUSH1 0x40 MSTORE SWAP2 POP PUSH1 0xE0 SHL PUSH1 0x20 DUP3 ADD DUP1 MLOAD PUSH1 0x1 PUSH1 0x1 PUSH1 0xE0 SHL SUB DUP4 DUP2 DUP4 AND OR DUP4 MSTORE POP POP POP POP PUSH2 0x114F JUMP JUMPDEST POP POP POP JUMP JUMPDEST PUSH1 0x2 PUSH1 0x1 SLOAD SUB PUSH2 0xEF9 JUMPI PUSH1 0x40 MLOAD PUSH4 0x3EE5AEB5 PUSH1 0xE0 SHL DUP2 MSTORE PUSH1 0x4 ADD PUSH1 0x40 MLOAD DUP1 SWAP2 SUB SWAP1 REVERT JUMPDEST PUSH1 0x2 PUSH1 0x1 SSTORE JUMP JUMPDEST PUSH1 0x0 DUP2 PUSH1 0x2 ADD SLOAD DUP3 PUSH1 0x3 ADD SLOAD PUSH1 0x64 PUSH2 0xF18 SWAP2 SWAP1 PUSH2 0x1443 JUMP JUMPDEST PUSH2 0xF22 SWAP2 SWAP1 PUSH2 0x145A JUMP JUMPDEST SWAP1 POP DUP2 PUSH1 0x2 ADD SLOAD DUP3 PUSH1 0x3 ADD SLOAD SUB PUSH2 0xF9A JUMPI DUP2 SLOAD PUSH1 0x2 DUP4 ADD SLOAD PUSH1 0x40 DUP1 MLOAD PUSH1 0x60 DUP1 DUP3 MSTORE PUSH1 0xC SWAP1 DUP3 ADD MSTORE PUSH12 0x199D5B1B1E57DD995CDD1959 PUSH1 0xA2 SHL PUSH1 0x80 DUP3 ADD MSTORE PUSH1 0x20 DUP2 ADD SWAP3 SWAP1 SWAP3 MSTORE TIMESTAMP SWAP1 DUP3 ADD MSTORE PUSH1 0x1 PUSH1 0x1 PUSH1 0xA0 SHL SUB SWAP1 SWAP2 AND SWAP1 DUP5 SWAP1 PUSH1 0x0 DUP1 MLOAD PUSH1 0x20 PUSH2 0x165B DUP4 CODECOPY DUP2 MLOAD SWAP2 MSTORE SWAP1 PUSH1 0xA0 ADD JUMPDEST PUSH1 0x40 MLOAD DUP1 SWAP2 SUB SWAP1 LOG3 POP POP POP JUMP JUMPDEST PUSH1 0x4B DUP2 LT PUSH2 0xFFE JUMPI DUP2 SLOAD PUSH1 0x3 DUP4 ADD SLOAD PUSH1 0x40 DUP1 MLOAD PUSH1 0x60 DUP1 DUP3 MSTORE PUSH1 0xA SWAP1 DUP3 ADD MSTORE PUSH10 0xDCD57DC195C98D95B9D PUSH1 0xB2 SHL PUSH1 0x80 DUP3 ADD MSTORE PUSH1 0x20 DUP2 ADD SWAP3 SWAP1 SWAP3 MSTORE TIMESTAMP SWAP1 DUP3 ADD MSTORE PUSH1 0x1 PUSH1 0x1 PUSH1 0xA0 SHL SUB SWAP1 SWAP2 AND SWAP1 DUP5 SWAP1 PUSH1 0x0 DUP1 MLOAD PUSH1 0x20 PUSH2 0x165B DUP4 CODECOPY DUP2 MLOAD SWAP2 MSTORE SWAP1 PUSH1 0xA0 ADD PUSH2 0xF8D JUMP JUMPDEST PUSH1 0x32 DUP2 LT PUSH2 0x1062 JUMPI DUP2 SLOAD PUSH1 0x3 DUP4 ADD SLOAD PUSH1 0x40 DUP1 MLOAD PUSH1 0x60 DUP1 DUP3 MSTORE PUSH1 0xA SWAP1 DUP3 ADD MSTORE PUSH10 0xD4C17DC195C98D95B9D PUSH1 0xB2 SHL PUSH1 0x80 DUP3 ADD MSTORE PUSH1 0x20 DUP2 ADD SWAP3 SWAP1 SWAP3 MSTORE TIMESTAMP SWAP1 DUP3 ADD MSTORE PUSH1 0x1 PUSH1 0x1 PUSH1 0xA0 SHL SUB SWAP1 SWAP2 AND SWAP1 DUP5 SWAP1 PUSH1 0x0 DUP1 MLOAD PUSH1 0x20 PUSH2 0x165B DUP4 CODECOPY DUP2 MLOAD SWAP2 MSTORE SWAP1 PUSH1 0xA0 ADD PUSH2 0xF8D JUMP JUMPDEST PUSH1 0x19 DUP2 LT PUSH2 0xED1 JUMPI DUP2 SLOAD PUSH1 0x3 DUP4 ADD SLOAD PUSH1 0x40 DUP1 MLOAD PUSH1 0x60 DUP1 DUP3 MSTORE PUSH1 0xA SWAP1 DUP3 ADD MSTORE PUSH10 0xC8D57DC195C98D95B9D PUSH1 0xB2 SHL PUSH1 0x80 DUP3 ADD MSTORE PUSH1 0x20 DUP2 ADD SWAP3 SWAP1 SWAP3 MSTORE TIMESTAMP SWAP1 DUP3 ADD MSTORE PUSH1 0x1 PUSH1 0x1 PUSH1 0xA0 SHL SUB SWAP1 SWAP2 AND SWAP1 DUP5 SWAP1 PUSH1 0x0 DUP1 MLOAD PUSH1 0x20 PUSH2 0x165B DUP4 CODECOPY DUP2 MLOAD SWAP2 MSTORE SWAP1 PUSH1 0xA0 ADD PUSH2 0xF8D JUMP JUMPDEST PUSH1 0x0 DUP1 SLOAD PUSH1 0x1 PUSH1 0x1 PUSH1 0xA0 SHL SUB DUP4 DUP2 AND PUSH1 0x1 PUSH1 0x1 PUSH1 0xA0 SHL SUB NOT DUP4 AND DUP2 OR DUP5 SSTORE PUSH1 0x40 MLOAD SWAP2 SWAP1 SWAP3 AND SWAP3 DUP4 SWAP2 PUSH32 0x8BE0079C531659141344CD1FD0A4F28419497F9722A3DAAFE3B4186F6B6457E0 SWAP2 SWAP1 LOG3 POP POP JUMP JUMPDEST PUSH1 0x40 MLOAD PUSH1 0x1 PUSH1 0x1 PUSH1 0xA0 SHL SUB DUP5 DUP2 AND PUSH1 0x24 DUP4 ADD MSTORE DUP4 DUP2 AND PUSH1 0x44 DUP4 ADD MSTORE PUSH1 0x64 DUP3 ADD DUP4 SWAP1 MSTORE PUSH2 0x6A4 SWAP2 DUP7 SWAP2 DUP3 AND SWAP1 PUSH4 0x23B872DD SWAP1 PUSH1 0x84 ADD PUSH2 0xE9F JUMP JUMPDEST PUSH1 0x0 DUP1 PUSH1 0x20 PUSH1 0x0 DUP5 MLOAD PUSH1 0x20 DUP7 ADD PUSH1 0x0 DUP9 GAS CALL DUP1 PUSH2 0x1172 JUMPI PUSH1 0x40 MLOAD RETURNDATASIZE PUSH1 0x0 DUP3 RETURNDATACOPY RETURNDATASIZE DUP2 REVERT JUMPDEST POP POP PUSH1 0x0 MLOAD RETURNDATASIZE SWAP2 POP DUP2 ISZERO PUSH2 0x118A JUMPI DUP1 PUSH1 0x1 EQ ISZERO PUSH2 0x1197 JUMP JUMPDEST PUSH1 0x1 PUSH1 0x1 PUSH1 0xA0 SHL SUB DUP5 AND EXTCODESIZE ISZERO JUMPDEST ISZERO PUSH2 0x6A4 JUMPI PUSH1 0x40 MLOAD PUSH4 0x5274AFE7 PUSH1 0xE0 SHL DUP2 MSTORE PUSH1 0x1 PUSH1 0x1 PUSH1 0xA0 SHL SUB DUP6 AND PUSH1 0x4 DUP3 ADD MSTORE PUSH1 0x24 ADD PUSH2 0x423 JUMP JUMPDEST PUSH1 0x0 PUSH1 0x20 DUP3 DUP5 SUB SLT ISZERO PUSH2 0x11D2 JUMPI PUSH1 0x0 DUP1 REVERT JUMPDEST POP CALLDATALOAD SWAP2 SWAP1 POP JUMP JUMPDEST PUSH1 0x0 DUP2 MLOAD DUP1 DUP5 MSTORE PUSH1 0x0 JUMPDEST DUP2 DUP2 LT ISZERO PUSH2 0x11FF JUMPI PUSH1 0x20 DUP2 DUP6 ADD DUP2 ADD MLOAD DUP7 DUP4 ADD DUP3 ADD MSTORE ADD PUSH2 0x11E3 JUMP JUMPDEST POP PUSH1 0x0 PUSH1 0x20 DUP3 DUP7 ADD ADD MSTORE PUSH1 0x20 PUSH1 0x1F NOT PUSH1 0x1F DUP4 ADD AND DUP6 ADD ADD SWAP2 POP POP SWAP3 SWAP2 POP POP JUMP JUMPDEST PUSH1 0x1 DUP1 PUSH1 0xA0 SHL SUB DUP9 AND DUP2 MSTORE DUP7 PUSH1 0x20 DUP3 ADD MSTORE DUP6 PUSH1 0x40 DUP3 ADD MSTORE DUP5 PUSH1 0x60 DUP3 ADD MSTORE DUP4 PUSH1 0x80 DUP3 ADD MSTORE DUP3 ISZERO ISZERO PUSH1 0xA0 DUP3 ADD MSTORE PUSH1 0xE0 PUSH1 0xC0 DUP3 ADD MSTORE PUSH1 0x0 PUSH2 0x1260 PUSH1 0xE0 DUP4 ADD DUP5 PUSH2 0x11D9 JUMP JUMPDEST SWAP10 SWAP9 POP POP POP POP POP POP POP POP POP JUMP JUMPDEST PUSH1 0x0 DUP1 PUSH1 0x40 DUP4 DUP6 SUB SLT ISZERO PUSH2 0x1280 JUMPI PUSH1 0x0 DUP1 REVERT JUMPDEST POP POP DUP1 CALLDATALOAD SWAP3 PUSH1 0x20 SWAP1 SWAP2 ADD CALLDATALOAD SWAP2 POP JUMP JUMPDEST DUP1 CALLDATALOAD PUSH1 0x1 PUSH1 0x1 PUSH1 0xA0 SHL SUB DUP2 AND DUP2 EQ PUSH2 0x12A6 JUMPI PUSH1 0x0 DUP1 REVERT JUMPDEST SWAP2 SWAP1 POP JUMP JUMPDEST PUSH1 0x0 DUP1 PUSH1 0x40 DUP4 DUP6 SUB SLT ISZERO PUSH2 0x12BE JUMPI PUSH1 0x0 DUP1 REVERT JUMPDEST PUSH2 0x12C7 DUP4 PUSH2 0x128F JUMP JUMPDEST SWAP5 PUSH1 0x20 SWAP4 SWAP1 SWAP4 ADD CALLDATALOAD SWAP4 POP POP POP JUMP JUMPDEST PUSH1 0x0 PUSH1 0x20 DUP3 DUP5 SUB SLT ISZERO PUSH2 0x12E7 JUMPI PUSH1 0x0 DUP1 REVERT JUMPDEST PUSH2 0xE3E DUP3 PUSH2 0x128F JUMP JUMPDEST PUSH1 0x0 DUP1 PUSH1 0x0 DUP1 PUSH1 0x0 DUP1 PUSH1 0x0 PUSH1 0xC0 DUP9 DUP11 SUB SLT ISZERO PUSH2 0x130B JUMPI PUSH1 0x0 DUP1 REVERT JUMPDEST PUSH2 0x1314 DUP9 PUSH2 0x128F JUMP JUMPDEST SWAP7 POP PUSH2 0x1322 PUSH1 0x20 DUP10 ADD PUSH2 0x128F JUMP JUMPDEST SWAP6 POP PUSH1 0x40 DUP9 ADD CALLDATALOAD SWAP5 POP PUSH1 0x60 DUP9 ADD CALLDATALOAD SWAP4 POP PUSH1 0x80 DUP9 ADD CALLDATALOAD SWAP3 POP PUSH1 0xA0 DUP9 ADD CALLDATALOAD PUSH8 0xFFFFFFFFFFFFFFFF DUP1 DUP3 GT ISZERO PUSH2 0x1354 JUMPI PUSH1 0x0 DUP1 REVERT JUMPDEST DUP2 DUP11 ADD SWAP2 POP DUP11 PUSH1 0x1F DUP4 ADD SLT PUSH2 0x1368 JUMPI PUSH1 0x0 DUP1 REVERT JUMPDEST DUP2 CALLDATALOAD DUP2 DUP2 GT ISZERO PUSH2 0x1377 JUMPI PUSH1 0x0 DUP1 REVERT JUMPDEST DUP12 PUSH1 0x20 DUP3 DUP6 ADD ADD GT ISZERO PUSH2 0x1389 JUMPI PUSH1 0x0 DUP1 REVERT JUMPDEST PUSH1 0x20 DUP4 ADD SWAP5 POP DUP1 SWAP4 POP POP POP POP SWAP3 SWAP6 SWAP9 SWAP2 SWAP5 SWAP8 POP SWAP3 SWAP6 POP JUMP JUMPDEST PUSH1 0x0 PUSH2 0x120 PUSH1 0x1 DUP1 PUSH1 0xA0 SHL SUB DUP1 DUP14 AND DUP5 MSTORE DUP1 DUP13 AND PUSH1 0x20 DUP6 ADD MSTORE POP DUP10 PUSH1 0x40 DUP5 ADD MSTORE DUP9 PUSH1 0x60 DUP5 ADD MSTORE DUP8 PUSH1 0x80 DUP5 ADD MSTORE DUP7 PUSH1 0xA0 DUP5 ADD MSTORE DUP6 PUSH1 0xC0 DUP5 ADD MSTORE DUP5 ISZERO ISZERO PUSH1 0xE0 DUP5 ADD MSTORE DUP1 PUSH2 0x100 DUP5 ADD MSTORE PUSH2 0x13F4 DUP2 DUP5 ADD DUP6 PUSH2 0x11D9 JUMP JUMPDEST SWAP13 SWAP12 POP POP POP POP POP POP POP POP POP POP POP POP JUMP JUMPDEST PUSH4 0x4E487B71 PUSH1 0xE0 SHL PUSH1 0x0 MSTORE PUSH1 0x32 PUSH1 0x4 MSTORE PUSH1 0x24 PUSH1 0x0 REVERT JUMPDEST PUSH4 0x4E487B71 PUSH1 0xE0 SHL PUSH1 0x0 MSTORE PUSH1 0x11 PUSH1 0x4 MSTORE PUSH1 0x24 PUSH1 0x0 REVERT JUMPDEST DUP2 DUP2 SUB DUP2 DUP2 GT ISZERO PUSH2 0xD91 JUMPI PUSH2 0xD91 PUSH2 0x141A JUMP JUMPDEST DUP1 DUP3 MUL DUP2 ISZERO DUP3 DUP3 DIV DUP5 EQ OR PUSH2 0xD91 JUMPI PUSH2 0xD91 PUSH2 0x141A JUMP JUMPDEST PUSH1 0x0 DUP3 PUSH2 0x1477 JUMPI PUSH4 0x4E487B71 PUSH1 0xE0 SHL PUSH1 0x0 MSTORE PUSH1 0x12 PUSH1 0x4 MSTORE PUSH1 0x24 PUSH1 0x0 REVERT JUMPDEST POP DIV SWAP1 JUMP JUMPDEST PUSH1 0x1 DUP2 DUP2 SHR SWAP1 DUP3 AND DUP1 PUSH2 0x1490 JUMPI PUSH1 0x7F DUP3 AND SWAP2 POP JUMPDEST PUSH1 0x20 DUP3 LT DUP2 SUB PUSH2 0x14B0 JUMPI PUSH4 0x4E487B71 PUSH1 0xE0 SHL PUSH1 0x0 MSTORE PUSH1 0x22 PUSH1 0x4 MSTORE PUSH1 0x24 PUSH1 0x0 REVERT JUMPDEST POP SWAP2 SWAP1 POP JUMP JUMPDEST DUP1 DUP3 ADD DUP1 DUP3 GT ISZERO PUSH2 0xD91 JUMPI PUSH2 0xD91 PUSH2 0x141A JUMP JUMPDEST PUSH1 0x60 DUP2 MSTORE PUSH1 0x0 PUSH2 0x14DC PUSH1 0x60 DUP4 ADD DUP7 PUSH2 0x11D9 JUMP JUMPDEST PUSH1 0x20 DUP4 ADD SWAP5 SWAP1 SWAP5 MSTORE POP PUSH1 0x40 ADD MSTORE SWAP2 SWAP1 POP JUMP JUMPDEST PUSH4 0x4E487B71 PUSH1 0xE0 SHL PUSH1 0x0 MSTORE PUSH1 0x41 PUSH1 0x4 MSTORE PUSH1 0x24 PUSH1 0x0 REVERT JUMPDEST PUSH1 0x1F DUP3 GT ISZERO PUSH2 0xED1 JUMPI PUSH1 0x0 DUP2 PUSH1 0x0 MSTORE PUSH1 0x20 PUSH1 0x0 KECCAK256 PUSH1 0x1F DUP6 ADD PUSH1 0x5 SHR DUP2 ADD PUSH1 0x20 DUP7 LT ISZERO PUSH2 0x152D JUMPI POP DUP1 JUMPDEST PUSH1 0x1F DUP6 ADD PUSH1 0x5 SHR DUP3 ADD SWAP2 POP JUMPDEST DUP2 DUP2 LT ISZERO PUSH2 0x6A1 JUMPI DUP3 DUP2 SSTORE PUSH1 0x1 ADD PUSH2 0x1539 JUMP JUMPDEST DUP2 MLOAD PUSH8 0xFFFFFFFFFFFFFFFF DUP2 GT ISZERO PUSH2 0x1566 JUMPI PUSH2 0x1566 PUSH2 0x14EE JUMP JUMPDEST PUSH2 0x157A DUP2 PUSH2 0x1574 DUP5 SLOAD PUSH2 0x147C JUMP JUMPDEST DUP5 PUSH2 0x1504 JUMP JUMPDEST PUSH1 0x20 DUP1 PUSH1 0x1F DUP4 GT PUSH1 0x1 DUP2 EQ PUSH2 0x15AF JUMPI PUSH1 0x0 DUP5 ISZERO PUSH2 0x1597 JUMPI POP DUP6 DUP4 ADD MLOAD JUMPDEST PUSH1 0x0 NOT PUSH1 0x3 DUP7 SWAP1 SHL SHR NOT AND PUSH1 0x1 DUP6 SWAP1 SHL OR DUP6 SSTORE PUSH2 0x6A1 JUMP JUMPDEST PUSH1 0x0 DUP6 DUP2 MSTORE PUSH1 0x20 DUP2 KECCAK256 PUSH1 0x1F NOT DUP7 AND SWAP2 JUMPDEST DUP3 DUP2 LT ISZERO PUSH2 0x15DE JUMPI DUP9 DUP7 ADD MLOAD DUP3 SSTORE SWAP5 DUP5 ADD SWAP5 PUSH1 0x1 SWAP1 SWAP2 ADD SWAP1 DUP5 ADD PUSH2 0x15BF JUMP JUMPDEST POP DUP6 DUP3 LT ISZERO PUSH2 0x15FC JUMPI DUP8 DUP6 ADD MLOAD PUSH1 0x0 NOT PUSH1 0x3 DUP9 SWAP1 SHL PUSH1 0xF8 AND SHR NOT AND DUP2 SSTORE JUMPDEST POP POP POP POP POP PUSH1 0x1 SWAP1 DUP2 SHL ADD SWAP1 SSTORE POP JUMP JUMPDEST DUP7 DUP2 MSTORE DUP6 PUSH1 0x20 DUP3 ADD MSTORE DUP5 PUSH1 0x40 DUP3 ADD MSTORE PUSH1 0xA0 PUSH1 0x60 DUP3 ADD MSTORE DUP3 PUSH1 0xA0 DUP3 ADD MSTORE DUP3 DUP5 PUSH1 0xC0 DUP4 ADD CALLDATACOPY PUSH1 0x0 PUSH1 0xC0 DUP5 DUP4 ADD ADD MSTORE PUSH1 0x0 PUSH1 0xC0 PUSH1 0x1F NOT PUSH1 0x1F DUP7 ADD AND DUP4 ADD ADD SWAP1 POP DUP3 PUSH1 0x80 DUP4 ADD MSTORE SWAP8 SWAP7 POP POP POP POP POP POP POP JUMP INVALID PUSH32 0x5A156AF65E9C0B07D8A6E2BB9CD5CEDC8B4A1887EE9487124480C381745216A2 PUSH5 0x6970667358 0x22 SLT KECCAK256 0xC6 MSTORE PUSH29 0x82BF0D52A136576A6FD71CB4A73F4DF04E8D006B6482F7D01839F9D93E PUSH5 0x736F6C6343 STOP ADDMOD XOR STOP CALLER "},"methodIdentifiers":{"beneficiarySchedules(address,uint256)":"46ca4241","claim(uint256)":"379607f5","createVesting(address,address,uint256,uint256,uint256,string)":"bb9f6803","getBeneficiaryScheduleCount(address)":"92124f74","getClaimable(uint256)":"9c7e4a66","getScheduleCount()":"5a3c3c2c","getScheduleInfo(uint256)":"033d5e4d","getVestedAmount(uint256)":"cafeedf6","owner()":"8da5cb5b","renounceOwnership()":"715018a6","revoke(uint256)":"20c5429b","schedules(uint256)":"bdc6d9ab","simulateTimePass(uint256,uint256)":"28bde396","transferOwnership(address)":"f2fde38b"}}}}}