{"contracts/GenesisLiquidityPool.sol":{"GenesisLiquidityPool":{"abi":[{"inputs":[{"internalType":"address","name":"_tokenA","type":"address"},{"internalType":"address","name":"_tokenB","type":"address"},{"internalType":"string","name":"_poolName","type":"string"}],"stateMutability":"nonpayable","type":"constructor"},{"inputs":[{"internalType":"address","name":"owner","type":"address"}],"name":"OwnableInvalidOwner","type":"error"},{"inputs":[{"internalType":"address","name":"account","type":"address"}],"name":"OwnableUnauthorizedAccount","type":"error"},{"inputs":[],"name":"ReentrancyGuardReentrantCall","type":"error"},{"inputs":[{"internalType":"address","name":"token","type":"address"}],"name":"SafeERC20FailedOperation","type":"error"},{"anonymous":false,"inputs":[{"indexed":true,"internalType":"address","name":"trader","type":"address"},{"indexed":false,"internalType":"uint256","name":"amountIn","type":"uint256"},{"indexed":false,"internalType":"uint256","name":"amountOut","type":"uint256"},{"indexed":false,"internalType":"uint256","name":"priceImpactBps","type":"uint256"},{"indexed":false,"internalType":"uint256","name":"timestamp","type":"uint256"}],"name":"LargeSwapDetected","type":"event"},{"anonymous":false,"inputs":[{"indexed":true,"internalType":"address","name":"provider","type":"address"},{"indexed":false,"internalType":"uint256","name":"amountA","type":"uint256"},{"indexed":false,"internalType":"uint256","name":"amountB","type":"uint256"},{"indexed":false,"internalType":"uint256","name":"lpSharesMinted","type":"uint256"},{"indexed":false,"internalType":"uint256","name":"newReserveA","type":"uint256"},{"indexed":false,"internalType":"uint256","name":"newReserveB","type":"uint256"},{"indexed":false,"internalType":"uint256","name":"timestamp","type":"uint256"}],"name":"LiquidityAdded","type":"event"},{"anonymous":false,"inputs":[{"indexed":true,"internalType":"address","name":"provider","type":"address"},{"indexed":false,"internalType":"uint256","name":"amountA","type":"uint256"},{"indexed":false,"internalType":"uint256","name":"amountB","type":"uint256"},{"indexed":false,"internalType":"uint256","name":"lpSharesBurned","type":"uint256"},{"indexed":false,"internalType":"uint256","name":"newReserveA","type":"uint256"},{"indexed":false,"internalType":"uint256","name":"newReserveB","type":"uint256"},{"indexed":false,"internalType":"uint256","name":"timestamp","type":"uint256"}],"name":"LiquidityRemoved","type":"event"},{"anonymous":false,"inputs":[{"indexed":true,"internalType":"address","name":"previousOwner","type":"address"},{"indexed":true,"internalType":"address","name":"newOwner","type":"address"}],"name":"OwnershipTransferred","type":"event"},{"anonymous":false,"inputs":[{"indexed":true,"internalType":"address","name":"triggeredBy","type":"address"},{"indexed":false,"internalType":"uint256","name":"oldReserveA","type":"uint256"},{"indexed":false,"internalType":"uint256","name":"oldReserveB","type":"uint256"},{"indexed":false,"internalType":"uint256","name":"newReserveA","type":"uint256"},{"indexed":false,"internalType":"uint256","name":"newReserveB","type":"uint256"},{"indexed":false,"internalType":"string","name":"reason","type":"string"},{"indexed":false,"internalType":"uint256","name":"timestamp","type":"uint256"}],"name":"PoolRebalanced","type":"event"},{"anonymous":false,"inputs":[{"indexed":true,"internalType":"address","name":"trader","type":"address"},{"indexed":false,"internalType":"address","name":"tokenIn","type":"address"},{"indexed":false,"internalType":"address","name":"tokenOut","type":"address"},{"indexed":false,"internalType":"uint256","name":"amountIn","type":"uint256"},{"indexed":false,"internalType":"uint256","name":"amountOut","type":"uint256"},{"indexed":false,"internalType":"uint256","name":"fee","type":"uint256"},{"indexed":false,"internalType":"uint256","name":"newReserveA","type":"uint256"},{"indexed":false,"internalType":"uint256","name":"newReserveB","type":"uint256"},{"indexed":false,"internalType":"uint256","name":"timestamp","type":"uint256"}],"name":"Swap","type":"event"},{"inputs":[{"internalType":"uint256","name":"amountA","type":"uint256"},{"internalType":"uint256","name":"amountB","type":"uint256"}],"name":"addLiquidity","outputs":[{"internalType":"uint256","name":"shares","type":"uint256"}],"stateMutability":"nonpayable","type":"function"},{"inputs":[{"internalType":"address","name":"user","type":"address"}],"name":"getLPBalance","outputs":[{"internalType":"uint256","name":"","type":"uint256"}],"stateMutability":"view","type":"function"},{"inputs":[],"name":"getPoolStats","outputs":[{"internalType":"uint256","name":"_reserveA","type":"uint256"},{"internalType":"uint256","name":"_reserveB","type":"uint256"},{"internalType":"uint256","name":"_totalLPShares","type":"uint256"},{"internalType":"uint256","name":"_totalSwaps","type":"uint256"},{"internalType":"uint256","name":"_feesA","type":"uint256"},{"internalType":"uint256","name":"_feesB","type":"uint256"}],"stateMutability":"view","type":"function"},{"inputs":[],"name":"getReserves","outputs":[{"internalType":"uint256","name":"","type":"uint256"},{"internalType":"uint256","name":"","type":"uint256"}],"stateMutability":"view","type":"function"},{"inputs":[{"internalType":"address","name":"tokenIn","type":"address"},{"internalType":"uint256","name":"amountIn","type":"uint256"}],"name":"getSwapQuote","outputs":[{"internalType":"uint256","name":"amountOut","type":"uint256"},{"internalType":"uint256","name":"fee","type":"uint256"}],"stateMutability":"view","type":"function"},{"inputs":[{"internalType":"address","name":"","type":"address"}],"name":"lpShares","outputs":[{"internalType":"uint256","name":"","type":"uint256"}],"stateMutability":"view","type":"function"},{"inputs":[],"name":"owner","outputs":[{"internalType":"address","name":"","type":"address"}],"stateMutability":"view","type":"function"},{"inputs":[],"name":"poolName","outputs":[{"internalType":"string","name":"","type":"string"}],"stateMutability":"view","type":"function"},{"inputs":[{"internalType":"uint256","name":"addA","type":"uint256"},{"internalType":"uint256","name":"addB","type":"uint256"},{"internalType":"string","name":"reason","type":"string"}],"name":"rebalance","outputs":[],"stateMutability":"nonpayable","type":"function"},{"inputs":[{"internalType":"uint256","name":"sharesToBurn","type":"uint256"}],"name":"removeLiquidity","outputs":[{"internalType":"uint256","name":"amountA","type":"uint256"},{"internalType":"uint256","name":"amountB","type":"uint256"}],"stateMutability":"nonpayable","type":"function"},{"inputs":[],"name":"renounceOwnership","outputs":[],"stateMutability":"nonpayable","type":"function"},{"inputs":[],"name":"reserveA","outputs":[{"internalType":"uint256","name":"","type":"uint256"}],"stateMutability":"view","type":"function"},{"inputs":[],"name":"reserveB","outputs":[{"internalType":"uint256","name":"","type":"uint256"}],"stateMutability":"view","type":"function"},{"inputs":[{"internalType":"address","name":"tokenIn","type":"address"},{"internalType":"uint256","name":"amountIn","type":"uint256"}],"name":"swap","outputs":[{"internalType":"uint256","name":"amountOut","type":"uint256"}],"stateMutability":"nonpayable","type":"function"},{"inputs":[],"name":"swapFeeDenominator","outputs":[{"internalType":"uint256","name":"","type":"uint256"}],"stateMutability":"view","type":"function"},{"inputs":[],"name":"swapFeeNumerator","outputs":[{"internalType":"uint256","name":"","type":"uint256"}],"stateMutability":"view","type":"function"},{"inputs":[],"name":"tokenA","outputs":[{"internalType":"contract IERC20","name":"","type":"address"}],"stateMutability":"view","type":"function"},{"inputs":[],"name":"tokenB","outputs":[{"internalType":"contract IERC20","name":"","type":"address"}],"stateMutability":"view","type":"function"},{"inputs":[],"name":"totalFeesCollectedA","outputs":[{"internalType":"uint256","name":"","type":"uint256"}],"stateMutability":"view","type":"function"},{"inputs":[],"name":"totalFeesCollectedB","outputs":[{"internalType":"uint256","name":"","type":"uint256"}],"stateMutability":"view","type":"function"},{"inputs":[],"name":"totalLPShares","outputs":[{"internalType":"uint256","name":"","type":"uint256"}],"stateMutability":"view","type":"function"},{"inputs":[],"name":"totalLiquidityAdded","outputs":[{"internalType":"uint256","name":"","type":"uint256"}],"stateMutability":"view","type":"function"},{"inputs":[],"name":"totalLiquidityRemoved","outputs":[{"internalType":"uint256","name":"","type":"uint256"}],"stateMutability":"view","type":"function"},{"inputs":[],"name":"totalSwaps","outputs":[{"internalType":"uint256","name":"","type":"uint256"}],"stateMutability":"view","type":"function"},{"inputs":[{"internalType":"address","name":"newOwner","type":"address"}],"name":"transferOwnership","outputs":[],"stateMutability":"nonpayable","type":"function"}],"evm":{"bytecode":{"linkReferences":{},"object":"608060405260036009556103e8600a553480156200001c57600080fd5b5060405162001897380380620018978339810160408190526200003f91620001fa565b33806200006757604051631e4fbdf760e01b8152600060048201526024015b60405180910390fd5b620000728162000177565b50600180556001600160a01b038316158015906200009857506001600160a01b03821615155b620000d85760405162461bcd60e51b815260206004820152600f60248201526e2837b7b61d103d32b9379030b2323960891b60448201526064016200005e565b816001600160a01b0316836001600160a01b0316036200012f5760405162461bcd60e51b8152602060048201526011602482015270506f6f6c3a2073616d6520746f6b656e7360781b60448201526064016200005e565b600280546001600160a01b038086166001600160a01b031992831617909255600380549285169290911691909117905560046200016d828262000385565b5050505062000451565b600080546001600160a01b038381166001600160a01b0319831681178455604051919092169283917f8be0079c531659141344cd1fd0a4f28419497f9722a3daafe3b4186f6b6457e09190a35050565b80516001600160a01b0381168114620001df57600080fd5b919050565b634e487b7160e01b600052604160045260246000fd5b6000806000606084860312156200021057600080fd5b6200021b84620001c7565b925060206200022c818601620001c7565b60408601519093506001600160401b03808211156200024a57600080fd5b818701915087601f8301126200025f57600080fd5b815181811115620002745762000274620001e4565b604051601f8201601f19908116603f011681019083821181831017156200029f576200029f620001e4565b816040528281528a86848701011115620002b857600080fd5b600093505b82841015620002dc5784840186015181850187015292850192620002bd565b60008684830101528096505050505050509250925092565b600181811c908216806200030957607f821691505b6020821081036200032a57634e487b7160e01b600052602260045260246000fd5b50919050565b601f82111562000380576000816000526020600020601f850160051c810160208610156200035b5750805b601f850160051c820191505b818110156200037c5782815560010162000367565b5050505b505050565b81516001600160401b03811115620003a157620003a1620001e4565b620003b981620003b28454620002f4565b8462000330565b602080601f831160018114620003f15760008415620003d85750858301515b600019600386901b1c1916600185901b1785556200037c565b600085815260208120601f198616915b82811015620004225788860151825594840194600190910190840162000401565b5085821015620004415787850151600019600388901b60f8161c191681555b5050505050600190811b01905550565b61143680620004616000396000f3fe608060405234801561001057600080fd5b50600436106101735760003560e01c8063b492fc69116100de578063d2258beb11610097578063dce06be811610071578063dce06be81461032f578063f2fde38b14610338578063f3466dfa1461034b578063fef462241461036057600080fd5b8063d2258beb146102f4578063d789760e1461031d578063dc5fa6c51461032657600080fd5b8063b492fc691461025d578063b4a800ce14610270578063b4b01d8f14610279578063bbb8518814610282578063c109a6dc146102c1578063d004f0f7146102e157600080fd5b80635f64b55b116101305780635f64b55b14610202578063715018a6146102155780638da5cb5b1461021d578063985c1a011461022e5780639c8f9f23146102375780639cd441da1461024a57600080fd5b80630902f1ac146101785780630fc63d1014610199578063107fbd42146101c457806319e36f3b146101db57806335d17e97146101e457806343b63b9d146101f9575b600080fd5b6005546006545b604080519283526020830191909152015b60405180910390f35b6002546101ac906001600160a01b031681565b6040516001600160a01b039091168152602001610190565b6101cd600a5481565b604051908152602001610190565b6101cd60065481565b6101f76101f2366004611177565b610369565b005b6101cd600e5481565b6003546101ac906001600160a01b031681565b6101f761043c565b6000546001600160a01b03166101ac565b6101cd600d5481565b61017f6102453660046111f7565b610450565b6101cd610258366004611210565b6106b8565b61017f61026b36600461124e565b6108f7565b6101cd600b5481565b6101cd600f5481565b600554600654600754600b54600c54600d54604080519687526020870195909552938501929092526060840152608083015260a082015260c001610190565b6101cd6102cf366004611278565b60086020526000908152604090205481565b6101cd6102ef36600461124e565b6109ee565b6101cd610302366004611278565b6001600160a01b031660009081526008602052604090205490565b6101cd60075481565b6101cd60055481565b6101cd600c5481565b6101f7610346366004611278565b610e86565b610353610ec4565b604051610190919061129a565b6101cd60095481565b610371610f52565b60055460065485156103ad57600254610395906001600160a01b0316333089610f7f565b85600560008282546103a791906112ff565b90915550505b84156103e3576003546103cb906001600160a01b0316333088610f7f565b84600660008282546103dd91906112ff565b90915550505b336001600160a01b03167f12792ca3bd5123a2dd39823ef3a420666d360378e5a33bd7d73765763f0c060b838360055460065489894260405161042c9796959493929190611312565b60405180910390a2505050505050565b610444610f52565b61044e6000610fec565b565b60008061045b61103c565b600083116104a45760405162461bcd60e51b8152602060048201526011602482015270506f6f6c3a207a65726f2073686172657360781b60448201526064015b60405180910390fd5b336000908152600860205260409020548311156105035760405162461bcd60e51b815260206004820152601960248201527f506f6f6c3a20696e73756666696369656e742073686172657300000000000000604482015260640161049b565b6007546005546105139085611367565b61051d919061137e565b9150600754600654846105309190611367565b61053a919061137e565b905060008211801561054c5750600081115b6105905760405162461bcd60e51b8152602060048201526015602482015274141bdbdb0e881e995c9bc81dda5d1a191c985dd85b605a1b604482015260640161049b565b33600090815260086020526040812080548592906105af9084906113a0565b9250508190555082600760008282546105c891906113a0565b9250508190555081600560008282546105e191906113a0565b9250508190555080600660008282546105fa91906113a0565b9091555061060a905081836112ff565b600f600082825461061b91906112ff565b9091555050600254610637906001600160a01b03163384611066565b60035461064e906001600160a01b03163383611066565b6005546006546040805185815260208101859052908101869052606081019290925260808201524260a082015233907f16db8cd72937fc971d5ff44547c6a645bfee7a7537d2a2eacd0b7d919ecfbf0f9060c00160405180910390a26106b360018055565b915091565b60006106c261103c565b6000831180156106d25750600082115b6107135760405162461bcd60e51b8152602060048201526012602482015271506f6f6c3a207a65726f20616d6f756e747360701b604482015260640161049b565b60025461072b906001600160a01b0316333086610f7f565b600354610743906001600160a01b0316333085610f7f565b6007546000036107665761075f61075a8385611367565b61109c565b90506107b8565b6000600554600754856107799190611367565b610783919061137e565b90506000600654600754856107989190611367565b6107a2919061137e565b90508082106107b157806107b3565b815b925050505b600081116107fc5760405162461bcd60e51b8152602060048201526011602482015270506f6f6c3a207a65726f2073686172657360781b604482015260640161049b565b336000908152600860205260408120805483929061081b9084906112ff565b92505081905550806007600082825461083491906112ff565b92505081905550826005600082825461084d91906112ff565b92505081905550816006600082825461086691906112ff565b90915550610876905082846112ff565b600e600082825461088791906112ff565b90915550506005546006546040805186815260208101869052908101849052606081019290925260808201524260a082015233907fc7453e3ef562c31977302710e5ff58ae67ad8fa521dcdd8c76f877c4c0d913689060c00160405180910390a26108f160018055565b92915050565b600080600060055411801561090e57506000600654115b61094f5760405162461bcd60e51b8152602060048201526012602482015271506f6f6c3a206e6f206c697175696469747960701b604482015260640161049b565b600a5460095461095f9085611367565b610969919061137e565b9050600061097782856113a0565b6002549091506001600160a01b0386811691161480156109bd578160055461099f91906112ff565b6006546109ac9084611367565b6109b6919061137e565b93506109e5565b816006546109cb91906112ff565b6005546109d89084611367565b6109e2919061137e565b93505b50509250929050565b60006109f861103c565b60008211610a3b5760405162461bcd60e51b815260206004820152601060248201526f141bdbdb0e881e995c9bc81a5b9c1d5d60821b604482015260640161049b565b6002546001600160a01b0384811691161480610a6457506003546001600160a01b038481169116145b610aa65760405162461bcd60e51b81526020600482015260136024820152722837b7b61d1034b73b30b634b2103a37b5b2b760691b604482015260640161049b565b6000600554118015610aba57506000600654115b610afb5760405162461bcd60e51b8152602060048201526012602482015271506f6f6c3a206e6f206c697175696469747960701b604482015260640161049b565b600254600a546009546001600160a01b038681169316929092149160009190610b249086611367565b610b2e919061137e565b90506000610b3c82866113a0565b90508215610c3f5780600554610b5291906112ff565b600654610b5f9083611367565b610b69919061137e565b9350600084118015610b7c575060065484105b610bc15760405162461bcd60e51b8152602060048201526016602482015275141bdbdb0e881a5b9cdd59999a58da595b9d081bdd5d60521b604482015260640161049b565b600254610bd9906001600160a01b0316333088610f7f565b600354610bf0906001600160a01b03163386611066565b8460056000828254610c0291906112ff565b925050819055508360066000828254610c1b91906113a0565b9250508190555081600c6000828254610c3491906112ff565b90915550610d359050565b80600654610c4d91906112ff565b600554610c5a9083611367565b610c64919061137e565b9350600084118015610c77575060055484105b610cbc5760405162461bcd60e51b8152602060048201526016602482015275141bdbdb0e881a5b9cdd59999a58da595b9d081bdd5d60521b604482015260640161049b565b600354610cd4906001600160a01b0316333088610f7f565b600254610ceb906001600160a01b03163386611066565b8460066000828254610cfd91906112ff565b925050819055508360056000828254610d1691906113a0565b9250508190555081600d6000828254610d2f91906112ff565b90915550505b600b8054906000610d45836113b3565b909155503390507f64bd4ed19c2f6f7990b182aeaa7f87f1578355403b7034b18cbdb864a4c355348785610d84576002546001600160a01b0316610d91565b6003546001600160a01b03165b600554600654604080516001600160a01b0395861681529490931660208501529183018a9052606083018990526080830187905260a083015260c08201524260e08201526101000160405180910390a2600083610df057600654610df4565b6005545b9050610e01816005611367565b610e0c876064611367565b1115610e7957600081610e2188612710611367565b610e2b919061137e565b604080518981526020810189905290810182905242606082015290915033907f09aa373adc9aae17a5284eae88a3223000ef0b6709ad05519ca78b2144487d6b9060800160405180910390a2505b505050506108f160018055565b610e8e610f52565b6001600160a01b038116610eb857604051631e4fbdf760e01b81526000600482015260240161049b565b610ec181610fec565b50565b60048054610ed1906113cc565b80601f0160208091040260200160405190810160405280929190818152602001828054610efd906113cc565b8015610f4a5780601f10610f1f57610100808354040283529160200191610f4a565b820191906000526020600020905b815481529060010190602001808311610f2d57829003601f168201915b505050505081565b6000546001600160a01b0316331461044e5760405163118cdaa760e01b815233600482015260240161049b565b6040516001600160a01b038481166024830152838116604483015260648201839052610fe69186918216906323b872dd906084015b604051602081830303815290604052915060e01b6020820180516001600160e01b038381831617835250505050611106565b50505050565b600080546001600160a01b038381166001600160a01b0319831681178455604051919092169283917f8be0079c531659141344cd1fd0a4f28419497f9722a3daafe3b4186f6b6457e09190a35050565b60026001540361105f57604051633ee5aeb560e01b815260040160405180910390fd5b6002600155565b6040516001600160a01b0383811660248301526044820183905261109791859182169063a9059cbb90606401610fb4565b505050565b6000816000036110ae57506000919050565b600060026110bd8460016112ff565b6110c7919061137e565b90508291505b81811015611100579050806002816110e5818661137e565b6110ef91906112ff565b6110f9919061137e565b90506110cd565b50919050565b600080602060008451602086016000885af180611129576040513d6000823e3d81fd5b50506000513d9150811561114157806001141561114e565b6001600160a01b0384163b155b15610fe657604051635274afe760e01b81526001600160a01b038516600482015260240161049b565b6000806000806060858703121561118d57600080fd5b8435935060208501359250604085013567ffffffffffffffff808211156111b357600080fd5b818701915087601f8301126111c757600080fd5b8135818111156111d657600080fd5b8860208285010111156111e857600080fd5b95989497505060200194505050565b60006020828403121561120957600080fd5b5035919050565b6000806040838503121561122357600080fd5b50508035926020909101359150565b80356001600160a01b038116811461124957600080fd5b919050565b6000806040838503121561126157600080fd5b61126a83611232565b946020939093013593505050565b60006020828403121561128a57600080fd5b61129382611232565b9392505050565b60006020808352835180602085015260005b818110156112c8578581018301518582016040015282016112ac565b506000604082860101526040601f19601f8301168501019250505092915050565b634e487b7160e01b600052601160045260246000fd5b808201808211156108f1576108f16112e9565b87815286602082015285604082015284606082015260c060808201528260c0820152828460e0830137600060e08483010152600060e0601f19601f86011683010190508260a083015298975050505050505050565b80820281158282048414176108f1576108f16112e9565b60008261139b57634e487b7160e01b600052601260045260246000fd5b500490565b818103818111156108f1576108f16112e9565b6000600182016113c5576113c56112e9565b5060010190565b600181811c908216806113e057607f821691505b60208210810361110057634e487b7160e01b600052602260045260246000fdfea264697066735822122063b06a3c936f4d17f17e30cf46ecd8a7d2076ddd5c75ae5e83c00a80542bc26b64736f6c63430008180033","opcodes":"PUSH1 0x80 PUSH1 0x40 MSTORE PUSH1 0x3 PUSH1 0x9 SSTORE PUSH2 0x3E8 PUSH1 0xA SSTORE CALLVALUE DUP1 ISZERO PUSH3 0x1C JUMPI PUSH1 0x0 DUP1 REVERT JUMPDEST POP PUSH1 0x40 MLOAD PUSH3 0x1897 CODESIZE SUB DUP1 PUSH3 0x1897 DUP4 CODECOPY DUP2 ADD PUSH1 0x40 DUP2 SWAP1 MSTORE PUSH3 0x3F SWAP2 PUSH3 0x1FA JUMP JUMPDEST CALLER DUP1 PUSH3 0x67 JUMPI PUSH1 0x40 MLOAD PUSH4 0x1E4FBDF7 PUSH1 0xE0 SHL DUP2 MSTORE PUSH1 0x0 PUSH1 0x4 DUP3 ADD MSTORE PUSH1 0x24 ADD JUMPDEST PUSH1 0x40 MLOAD DUP1 SWAP2 SUB SWAP1 REVERT JUMPDEST PUSH3 0x72 DUP2 PUSH3 0x177 JUMP JUMPDEST POP PUSH1 0x1 DUP1 SSTORE PUSH1 0x1 PUSH1 0x1 PUSH1 0xA0 SHL SUB DUP4 AND ISZERO DUP1 ISZERO SWAP1 PUSH3 0x98 JUMPI POP PUSH1 0x1 PUSH1 0x1 PUSH1 0xA0 SHL SUB DUP3 AND ISZERO ISZERO JUMPDEST PUSH3 0xD8 JUMPI PUSH1 0x40 MLOAD PUSH3 0x461BCD PUSH1 0xE5 SHL DUP2 MSTORE PUSH1 0x20 PUSH1 0x4 DUP3 ADD MSTORE PUSH1 0xF PUSH1 0x24 DUP3 ADD MSTORE PUSH15 0x2837B7B61D103D32B9379030B23239 PUSH1 0x89 SHL PUSH1 0x44 DUP3 ADD MSTORE PUSH1 0x64 ADD PUSH3 0x5E JUMP JUMPDEST DUP2 PUSH1 0x1 PUSH1 0x1 PUSH1 0xA0 SHL SUB AND DUP4 PUSH1 0x1 PUSH1 0x1 PUSH1 0xA0 SHL SUB AND SUB PUSH3 0x12F JUMPI PUSH1 0x40 MLOAD PUSH3 0x461BCD PUSH1 0xE5 SHL DUP2 MSTORE PUSH1 0x20 PUSH1 0x4 DUP3 ADD MSTORE PUSH1 0x11 PUSH1 0x24 DUP3 ADD MSTORE PUSH17 0x506F6F6C3A2073616D6520746F6B656E73 PUSH1 0x78 SHL PUSH1 0x44 DUP3 ADD MSTORE PUSH1 0x64 ADD PUSH3 0x5E JUMP JUMPDEST PUSH1 0x2 DUP1 SLOAD PUSH1 0x1 PUSH1 0x1 PUSH1 0xA0 SHL SUB DUP1 DUP7 AND PUSH1 0x1 PUSH1 0x1 PUSH1 0xA0 SHL SUB NOT SWAP3 DUP4 AND OR SWAP1 SWAP3 SSTORE PUSH1 0x3 DUP1 SLOAD SWAP3 DUP6 AND SWAP3 SWAP1 SWAP2 AND SWAP2 SWAP1 SWAP2 OR SWAP1 SSTORE PUSH1 0x4 PUSH3 0x16D DUP3 DUP3 PUSH3 0x385 JUMP JUMPDEST POP POP POP POP PUSH3 0x451 JUMP JUMPDEST PUSH1 0x0 DUP1 SLOAD PUSH1 0x1 PUSH1 0x1 PUSH1 0xA0 SHL SUB DUP4 DUP2 AND PUSH1 0x1 PUSH1 0x1 PUSH1 0xA0 SHL SUB NOT DUP4 AND DUP2 OR DUP5 SSTORE PUSH1 0x40 MLOAD SWAP2 SWAP1 SWAP3 AND SWAP3 DUP4 SWAP2 PUSH32 0x8BE0079C531659141344CD1FD0A4F28419497F9722A3DAAFE3B4186F6B6457E0 SWAP2 SWAP1 LOG3 POP POP JUMP JUMPDEST DUP1 MLOAD PUSH1 0x1 PUSH1 0x1 PUSH1 0xA0 SHL SUB DUP2 AND DUP2 EQ PUSH3 0x1DF JUMPI PUSH1 0x0 DUP1 REVERT JUMPDEST SWAP2 SWAP1 POP JUMP JUMPDEST PUSH4 0x4E487B71 PUSH1 0xE0 SHL PUSH1 0x0 MSTORE PUSH1 0x41 PUSH1 0x4 MSTORE PUSH1 0x24 PUSH1 0x0 REVERT JUMPDEST PUSH1 0x0 DUP1 PUSH1 0x0 PUSH1 0x60 DUP5 DUP7 SUB SLT ISZERO PUSH3 0x210 JUMPI PUSH1 0x0 DUP1 REVERT JUMPDEST PUSH3 0x21B DUP5 PUSH3 0x1C7 JUMP JUMPDEST SWAP3 POP PUSH1 0x20 PUSH3 0x22C DUP2 DUP7 ADD PUSH3 0x1C7 JUMP JUMPDEST PUSH1 0x40 DUP7 ADD MLOAD SWAP1 SWAP4 POP PUSH1 0x1 PUSH1 0x1 PUSH1 0x40 SHL SUB DUP1 DUP3 GT ISZERO PUSH3 0x24A JUMPI PUSH1 0x0 DUP1 REVERT JUMPDEST DUP2 DUP8 ADD SWAP2 POP DUP8 PUSH1 0x1F DUP4 ADD SLT PUSH3 0x25F JUMPI PUSH1 0x0 DUP1 REVERT JUMPDEST DUP2 MLOAD DUP2 DUP2 GT ISZERO PUSH3 0x274 JUMPI PUSH3 0x274 PUSH3 0x1E4 JUMP JUMPDEST PUSH1 0x40 MLOAD PUSH1 0x1F DUP3 ADD PUSH1 0x1F NOT SWAP1 DUP2 AND PUSH1 0x3F ADD AND DUP2 ADD SWAP1 DUP4 DUP3 GT DUP2 DUP4 LT OR ISZERO PUSH3 0x29F JUMPI PUSH3 0x29F PUSH3 0x1E4 JUMP JUMPDEST DUP2 PUSH1 0x40 MSTORE DUP3 DUP2 MSTORE DUP11 DUP7 DUP5 DUP8 ADD ADD GT ISZERO PUSH3 0x2B8 JUMPI PUSH1 0x0 DUP1 REVERT JUMPDEST PUSH1 0x0 SWAP4 POP JUMPDEST DUP3 DUP5 LT ISZERO PUSH3 0x2DC JUMPI DUP5 DUP5 ADD DUP7 ADD MLOAD DUP2 DUP6 ADD DUP8 ADD MSTORE SWAP3 DUP6 ADD SWAP3 PUSH3 0x2BD JUMP JUMPDEST PUSH1 0x0 DUP7 DUP5 DUP4 ADD ADD MSTORE DUP1 SWAP7 POP POP POP POP POP POP POP SWAP3 POP SWAP3 POP SWAP3 JUMP JUMPDEST PUSH1 0x1 DUP2 DUP2 SHR SWAP1 DUP3 AND DUP1 PUSH3 0x309 JUMPI PUSH1 0x7F DUP3 AND SWAP2 POP JUMPDEST PUSH1 0x20 DUP3 LT DUP2 SUB PUSH3 0x32A JUMPI PUSH4 0x4E487B71 PUSH1 0xE0 SHL PUSH1 0x0 MSTORE PUSH1 0x22 PUSH1 0x4 MSTORE PUSH1 0x24 PUSH1 0x0 REVERT JUMPDEST POP SWAP2 SWAP1 POP JUMP JUMPDEST PUSH1 0x1F DUP3 GT ISZERO PUSH3 0x380 JUMPI PUSH1 0x0 DUP2 PUSH1 0x0 MSTORE PUSH1 0x20 PUSH1 0x0 KECCAK256 PUSH1 0x1F DUP6 ADD PUSH1 0x5 SHR DUP2 ADD PUSH1 0x20 DUP7 LT ISZERO PUSH3 0x35B JUMPI POP DUP1 JUMPDEST PUSH1 0x1F DUP6 ADD PUSH1 0x5 SHR DUP3 ADD SWAP2 POP JUMPDEST DUP2 DUP2 LT ISZERO PUSH3 0x37C JUMPI DUP3 DUP2 SSTORE PUSH1 0x1 ADD PUSH3 0x367 JUMP JUMPDEST POP POP POP JUMPDEST POP POP POP JUMP JUMPDEST DUP2 MLOAD PUSH1 0x1 PUSH1 0x1 PUSH1 0x40 SHL SUB DUP2 GT ISZERO PUSH3 0x3A1 JUMPI PUSH3 0x3A1 PUSH3 0x1E4 JUMP JUMPDEST PUSH3 0x3B9 DUP2 PUSH3 0x3B2 DUP5 SLOAD PUSH3 0x2F4 JUMP JUMPDEST DUP5 PUSH3 0x330 JUMP JUMPDEST PUSH1 0x20 DUP1 PUSH1 0x1F DUP4 GT PUSH1 0x1 DUP2 EQ PUSH3 0x3F1 JUMPI PUSH1 0x0 DUP5 ISZERO PUSH3 0x3D8 JUMPI POP DUP6 DUP4 ADD MLOAD JUMPDEST PUSH1 0x0 NOT PUSH1 0x3 DUP7 SWAP1 SHL SHR NOT AND PUSH1 0x1 DUP6 SWAP1 SHL OR DUP6 SSTORE PUSH3 0x37C JUMP JUMPDEST PUSH1 0x0 DUP6 DUP2 MSTORE PUSH1 0x20 DUP2 KECCAK256 PUSH1 0x1F NOT DUP7 AND SWAP2 JUMPDEST DUP3 DUP2 LT ISZERO PUSH3 0x422 JUMPI DUP9 DUP7 ADD MLOAD DUP3 SSTORE SWAP5 DUP5 ADD SWAP5 PUSH1 0x1 SWAP1 SWAP2 ADD SWAP1 DUP5 ADD PUSH3 0x401 JUMP JUMPDEST POP DUP6 DUP3 LT ISZERO PUSH3 0x441 JUMPI DUP8 DUP6 ADD MLOAD PUSH1 0x0 NOT PUSH1 0x3 DUP9 SWAP1 SHL PUSH1 0xF8 AND SHR NOT AND DUP2 SSTORE JUMPDEST POP POP POP POP POP PUSH1 0x1 SWAP1 DUP2 SHL ADD SWAP1 SSTORE POP JUMP JUMPDEST PUSH2 0x1436 DUP1 PUSH3 0x461 PUSH1 0x0 CODECOPY PUSH1 0x0 RETURN INVALID PUSH1 0x80 PUSH1 0x40 MSTORE CALLVALUE DUP1 ISZERO PUSH2 0x10 JUMPI PUSH1 0x0 DUP1 REVERT JUMPDEST POP PUSH1 0x4 CALLDATASIZE LT PUSH2 0x173 JUMPI PUSH1 0x0 CALLDATALOAD PUSH1 0xE0 SHR DUP1 PUSH4 0xB492FC69 GT PUSH2 0xDE JUMPI DUP1 PUSH4 0xD2258BEB GT PUSH2 0x97 JUMPI DUP1 PUSH4 0xDCE06BE8 GT PUSH2 0x71 JUMPI DUP1 PUSH4 0xDCE06BE8 EQ PUSH2 0x32F JUMPI DUP1 PUSH4 0xF2FDE38B EQ PUSH2 0x338 JUMPI DUP1 PUSH4 0xF3466DFA EQ PUSH2 0x34B JUMPI DUP1 PUSH4 0xFEF46224 EQ PUSH2 0x360 JUMPI PUSH1 0x0 DUP1 REVERT JUMPDEST DUP1 PUSH4 0xD2258BEB EQ PUSH2 0x2F4 JUMPI DUP1 PUSH4 0xD789760E EQ PUSH2 0x31D JUMPI DUP1 PUSH4 0xDC5FA6C5 EQ PUSH2 0x326 JUMPI PUSH1 0x0 DUP1 REVERT JUMPDEST DUP1 PUSH4 0xB492FC69 EQ PUSH2 0x25D JUMPI DUP1 PUSH4 0xB4A800CE EQ PUSH2 0x270 JUMPI DUP1 PUSH4 0xB4B01D8F EQ PUSH2 0x279 JUMPI DUP1 PUSH4 0xBBB85188 EQ PUSH2 0x282 JUMPI DUP1 PUSH4 0xC109A6DC EQ PUSH2 0x2C1 JUMPI DUP1 PUSH4 0xD004F0F7 EQ PUSH2 0x2E1 JUMPI PUSH1 0x0 DUP1 REVERT JUMPDEST DUP1 PUSH4 0x5F64B55B GT PUSH2 0x130 JUMPI DUP1 PUSH4 0x5F64B55B EQ PUSH2 0x202 JUMPI DUP1 PUSH4 0x715018A6 EQ PUSH2 0x215 JUMPI DUP1 PUSH4 0x8DA5CB5B EQ PUSH2 0x21D JUMPI DUP1 PUSH4 0x985C1A01 EQ PUSH2 0x22E JUMPI DUP1 PUSH4 0x9C8F9F23 EQ PUSH2 0x237 JUMPI DUP1 PUSH4 0x9CD441DA EQ PUSH2 0x24A JUMPI PUSH1 0x0 DUP1 REVERT JUMPDEST DUP1 PUSH4 0x902F1AC EQ PUSH2 0x178 JUMPI DUP1 PUSH4 0xFC63D10 EQ PUSH2 0x199 JUMPI DUP1 PUSH4 0x107FBD42 EQ PUSH2 0x1C4 JUMPI DUP1 PUSH4 0x19E36F3B EQ PUSH2 0x1DB JUMPI DUP1 PUSH4 0x35D17E97 EQ PUSH2 0x1E4 JUMPI DUP1 PUSH4 0x43B63B9D EQ PUSH2 0x1F9 JUMPI JUMPDEST PUSH1 0x0 DUP1 REVERT JUMPDEST PUSH1 0x5 SLOAD PUSH1 0x6 SLOAD JUMPDEST PUSH1 0x40 DUP1 MLOAD SWAP3 DUP4 MSTORE PUSH1 0x20 DUP4 ADD SWAP2 SWAP1 SWAP2 MSTORE ADD JUMPDEST PUSH1 0x40 MLOAD DUP1 SWAP2 SUB SWAP1 RETURN JUMPDEST PUSH1 0x2 SLOAD PUSH2 0x1AC SWAP1 PUSH1 0x1 PUSH1 0x1 PUSH1 0xA0 SHL SUB AND DUP2 JUMP JUMPDEST PUSH1 0x40 MLOAD PUSH1 0x1 PUSH1 0x1 PUSH1 0xA0 SHL SUB SWAP1 SWAP2 AND DUP2 MSTORE PUSH1 0x20 ADD PUSH2 0x190 JUMP JUMPDEST PUSH2 0x1CD PUSH1 0xA SLOAD DUP2 JUMP JUMPDEST PUSH1 0x40 MLOAD SWAP1 DUP2 MSTORE PUSH1 0x20 ADD PUSH2 0x190 JUMP JUMPDEST PUSH2 0x1CD PUSH1 0x6 SLOAD DUP2 JUMP JUMPDEST PUSH2 0x1F7 PUSH2 0x1F2 CALLDATASIZE PUSH1 0x4 PUSH2 0x1177 JUMP JUMPDEST PUSH2 0x369 JUMP JUMPDEST STOP JUMPDEST PUSH2 0x1CD PUSH1 0xE SLOAD DUP2 JUMP JUMPDEST PUSH1 0x3 SLOAD PUSH2 0x1AC SWAP1 PUSH1 0x1 PUSH1 0x1 PUSH1 0xA0 SHL SUB AND DUP2 JUMP JUMPDEST PUSH2 0x1F7 PUSH2 0x43C JUMP JUMPDEST PUSH1 0x0 SLOAD PUSH1 0x1 PUSH1 0x1 PUSH1 0xA0 SHL SUB AND PUSH2 0x1AC JUMP JUMPDEST PUSH2 0x1CD PUSH1 0xD SLOAD DUP2 JUMP JUMPDEST PUSH2 0x17F PUSH2 0x245 CALLDATASIZE PUSH1 0x4 PUSH2 0x11F7 JUMP JUMPDEST PUSH2 0x450 JUMP JUMPDEST PUSH2 0x1CD PUSH2 0x258 CALLDATASIZE PUSH1 0x4 PUSH2 0x1210 JUMP JUMPDEST PUSH2 0x6B8 JUMP JUMPDEST PUSH2 0x17F PUSH2 0x26B CALLDATASIZE PUSH1 0x4 PUSH2 0x124E JUMP JUMPDEST PUSH2 0x8F7 JUMP JUMPDEST PUSH2 0x1CD PUSH1 0xB SLOAD DUP2 JUMP JUMPDEST PUSH2 0x1CD PUSH1 0xF SLOAD DUP2 JUMP JUMPDEST PUSH1 0x5 SLOAD PUSH1 0x6 SLOAD PUSH1 0x7 SLOAD PUSH1 0xB SLOAD PUSH1 0xC SLOAD PUSH1 0xD SLOAD PUSH1 0x40 DUP1 MLOAD SWAP7 DUP8 MSTORE PUSH1 0x20 DUP8 ADD SWAP6 SWAP1 SWAP6 MSTORE SWAP4 DUP6 ADD SWAP3 SWAP1 SWAP3 MSTORE PUSH1 0x60 DUP5 ADD MSTORE PUSH1 0x80 DUP4 ADD MSTORE PUSH1 0xA0 DUP3 ADD MSTORE PUSH1 0xC0 ADD PUSH2 0x190 JUMP JUMPDEST PUSH2 0x1CD PUSH2 0x2CF CALLDATASIZE PUSH1 0x4 PUSH2 0x1278 JUMP JUMPDEST PUSH1 0x8 PUSH1 0x20 MSTORE PUSH1 0x0 SWAP1 DUP2 MSTORE PUSH1 0x40 SWAP1 KECCAK256 SLOAD DUP2 JUMP JUMPDEST PUSH2 0x1CD PUSH2 0x2EF CALLDATASIZE PUSH1 0x4 PUSH2 0x124E JUMP JUMPDEST PUSH2 0x9EE JUMP JUMPDEST PUSH2 0x1CD PUSH2 0x302 CALLDATASIZE PUSH1 0x4 PUSH2 0x1278 JUMP JUMPDEST PUSH1 0x1 PUSH1 0x1 PUSH1 0xA0 SHL SUB AND PUSH1 0x0 SWAP1 DUP2 MSTORE PUSH1 0x8 PUSH1 0x20 MSTORE PUSH1 0x40 SWAP1 KECCAK256 SLOAD SWAP1 JUMP JUMPDEST PUSH2 0x1CD PUSH1 0x7 SLOAD DUP2 JUMP JUMPDEST PUSH2 0x1CD PUSH1 0x5 SLOAD DUP2 JUMP JUMPDEST PUSH2 0x1CD PUSH1 0xC SLOAD DUP2 JUMP JUMPDEST PUSH2 0x1F7 PUSH2 0x346 CALLDATASIZE PUSH1 0x4 PUSH2 0x1278 JUMP JUMPDEST PUSH2 0xE86 JUMP JUMPDEST PUSH2 0x353 PUSH2 0xEC4 JUMP JUMPDEST PUSH1 0x40 MLOAD PUSH2 0x190 SWAP2 SWAP1 PUSH2 0x129A JUMP JUMPDEST PUSH2 0x1CD PUSH1 0x9 SLOAD DUP2 JUMP JUMPDEST PUSH2 0x371 PUSH2 0xF52 JUMP JUMPDEST PUSH1 0x5 SLOAD PUSH1 0x6 SLOAD DUP6 ISZERO PUSH2 0x3AD JUMPI PUSH1 0x2 SLOAD PUSH2 0x395 SWAP1 PUSH1 0x1 PUSH1 0x1 PUSH1 0xA0 SHL SUB AND CALLER ADDRESS DUP10 PUSH2 0xF7F JUMP JUMPDEST DUP6 PUSH1 0x5 PUSH1 0x0 DUP3 DUP3 SLOAD PUSH2 0x3A7 SWAP2 SWAP1 PUSH2 0x12FF JUMP JUMPDEST SWAP1 SWAP2 SSTORE POP POP JUMPDEST DUP5 ISZERO PUSH2 0x3E3 JUMPI PUSH1 0x3 SLOAD PUSH2 0x3CB SWAP1 PUSH1 0x1 PUSH1 0x1 PUSH1 0xA0 SHL SUB AND CALLER ADDRESS DUP9 PUSH2 0xF7F JUMP JUMPDEST DUP5 PUSH1 0x6 PUSH1 0x0 DUP3 DUP3 SLOAD PUSH2 0x3DD SWAP2 SWAP1 PUSH2 0x12FF JUMP JUMPDEST SWAP1 SWAP2 SSTORE POP POP JUMPDEST CALLER PUSH1 0x1 PUSH1 0x1 PUSH1 0xA0 SHL SUB AND PUSH32 0x12792CA3BD5123A2DD39823EF3A420666D360378E5A33BD7D73765763F0C060B DUP4 DUP4 PUSH1 0x5 SLOAD PUSH1 0x6 SLOAD DUP10 DUP10 TIMESTAMP PUSH1 0x40 MLOAD PUSH2 0x42C SWAP8 SWAP7 SWAP6 SWAP5 SWAP4 SWAP3 SWAP2 SWAP1 PUSH2 0x1312 JUMP JUMPDEST PUSH1 0x40 MLOAD DUP1 SWAP2 SUB SWAP1 LOG2 POP POP POP POP POP POP JUMP JUMPDEST PUSH2 0x444 PUSH2 0xF52 JUMP JUMPDEST PUSH2 0x44E PUSH1 0x0 PUSH2 0xFEC JUMP JUMPDEST JUMP JUMPDEST PUSH1 0x0 DUP1 PUSH2 0x45B PUSH2 0x103C JUMP JUMPDEST PUSH1 0x0 DUP4 GT PUSH2 0x4A4 JUMPI PUSH1 0x40 MLOAD PUSH3 0x461BCD PUSH1 0xE5 SHL DUP2 MSTORE PUSH1 0x20 PUSH1 0x4 DUP3 ADD MSTORE PUSH1 0x11 PUSH1 0x24 DUP3 ADD MSTORE PUSH17 0x506F6F6C3A207A65726F20736861726573 PUSH1 0x78 SHL PUSH1 0x44 DUP3 ADD MSTORE PUSH1 0x64 ADD JUMPDEST PUSH1 0x40 MLOAD DUP1 SWAP2 SUB SWAP1 REVERT JUMPDEST CALLER PUSH1 0x0 SWAP1 DUP2 MSTORE PUSH1 0x8 PUSH1 0x20 MSTORE PUSH1 0x40 SWAP1 KECCAK256 SLOAD DUP4 GT ISZERO PUSH2 0x503 JUMPI PUSH1 0x40 MLOAD PUSH3 0x461BCD PUSH1 0xE5 SHL DUP2 MSTORE PUSH1 0x20 PUSH1 0x4 DUP3 ADD MSTORE PUSH1 0x19 PUSH1 0x24 DUP3 ADD MSTORE PUSH32 0x506F6F6C3A20696E73756666696369656E742073686172657300000000000000 PUSH1 0x44 DUP3 ADD MSTORE PUSH1 0x64 ADD PUSH2 0x49B JUMP JUMPDEST PUSH1 0x7 SLOAD PUSH1 0x5 SLOAD PUSH2 0x513 SWAP1 DUP6 PUSH2 0x1367 JUMP JUMPDEST PUSH2 0x51D SWAP2 SWAP1 PUSH2 0x137E JUMP JUMPDEST SWAP2 POP PUSH1 0x7 SLOAD PUSH1 0x6 SLOAD DUP5 PUSH2 0x530 SWAP2 SWAP1 PUSH2 0x1367 JUMP JUMPDEST PUSH2 0x53A SWAP2 SWAP1 PUSH2 0x137E JUMP JUMPDEST SWAP1 POP PUSH1 0x0 DUP3 GT DUP1 ISZERO PUSH2 0x54C JUMPI POP PUSH1 0x0 DUP2 GT JUMPDEST PUSH2 0x590 JUMPI PUSH1 0x40 MLOAD PUSH3 0x461BCD PUSH1 0xE5 SHL DUP2 MSTORE PUSH1 0x20 PUSH1 0x4 DUP3 ADD MSTORE PUSH1 0x15 PUSH1 0x24 DUP3 ADD MSTORE PUSH21 0x141BDBDB0E881E995C9BC81DDA5D1A191C985DD85B PUSH1 0x5A SHL PUSH1 0x44 DUP3 ADD MSTORE PUSH1 0x64 ADD PUSH2 0x49B JUMP JUMPDEST CALLER PUSH1 0x0 SWAP1 DUP2 MSTORE PUSH1 0x8 PUSH1 0x20 MSTORE PUSH1 0x40 DUP2 KECCAK256 DUP1 SLOAD DUP6 SWAP3 SWAP1 PUSH2 0x5AF SWAP1 DUP5 SWAP1 PUSH2 0x13A0 JUMP JUMPDEST SWAP3 POP POP DUP2 SWAP1 SSTORE POP DUP3 PUSH1 0x7 PUSH1 0x0 DUP3 DUP3 SLOAD PUSH2 0x5C8 SWAP2 SWAP1 PUSH2 0x13A0 JUMP JUMPDEST SWAP3 POP POP DUP2 SWAP1 SSTORE POP DUP2 PUSH1 0x5 PUSH1 0x0 DUP3 DUP3 SLOAD PUSH2 0x5E1 SWAP2 SWAP1 PUSH2 0x13A0 JUMP JUMPDEST SWAP3 POP POP DUP2 SWAP1 SSTORE POP DUP1 PUSH1 0x6 PUSH1 0x0 DUP3 DUP3 SLOAD PUSH2 0x5FA SWAP2 SWAP1 PUSH2 0x13A0 JUMP JUMPDEST SWAP1 SWAP2 SSTORE POP PUSH2 0x60A SWAP1 POP DUP2 DUP4 PUSH2 0x12FF JUMP JUMPDEST PUSH1 0xF PUSH1 0x0 DUP3 DUP3 SLOAD PUSH2 0x61B SWAP2 SWAP1 PUSH2 0x12FF JUMP JUMPDEST SWAP1 SWAP2 SSTORE POP POP PUSH1 0x2 SLOAD PUSH2 0x637 SWAP1 PUSH1 0x1 PUSH1 0x1 PUSH1 0xA0 SHL SUB AND CALLER DUP5 PUSH2 0x1066 JUMP JUMPDEST PUSH1 0x3 SLOAD PUSH2 0x64E SWAP1 PUSH1 0x1 PUSH1 0x1 PUSH1 0xA0 SHL SUB AND CALLER DUP4 PUSH2 0x1066 JUMP JUMPDEST PUSH1 0x5 SLOAD PUSH1 0x6 SLOAD PUSH1 0x40 DUP1 MLOAD DUP6 DUP2 MSTORE PUSH1 0x20 DUP2 ADD DUP6 SWAP1 MSTORE SWAP1 DUP2 ADD DUP7 SWAP1 MSTORE PUSH1 0x60 DUP2 ADD SWAP3 SWAP1 SWAP3 MSTORE PUSH1 0x80 DUP3 ADD MSTORE TIMESTAMP PUSH1 0xA0 DUP3 ADD MSTORE CALLER SWAP1 PUSH32 0x16DB8CD72937FC971D5FF44547C6A645BFEE7A7537D2A2EACD0B7D919ECFBF0F SWAP1 PUSH1 0xC0 ADD PUSH1 0x40 MLOAD DUP1 SWAP2 SUB SWAP1 LOG2 PUSH2 0x6B3 PUSH1 0x1 DUP1 SSTORE JUMP JUMPDEST SWAP2 POP SWAP2 JUMP JUMPDEST PUSH1 0x0 PUSH2 0x6C2 PUSH2 0x103C JUMP JUMPDEST PUSH1 0x0 DUP4 GT DUP1 ISZERO PUSH2 0x6D2 JUMPI POP PUSH1 0x0 DUP3 GT JUMPDEST PUSH2 0x713 JUMPI PUSH1 0x40 MLOAD PUSH3 0x461BCD PUSH1 0xE5 SHL DUP2 MSTORE PUSH1 0x20 PUSH1 0x4 DUP3 ADD MSTORE PUSH1 0x12 PUSH1 0x24 DUP3 ADD MSTORE PUSH18 0x506F6F6C3A207A65726F20616D6F756E7473 PUSH1 0x70 SHL PUSH1 0x44 DUP3 ADD MSTORE PUSH1 0x64 ADD PUSH2 0x49B JUMP JUMPDEST PUSH1 0x2 SLOAD PUSH2 0x72B SWAP1 PUSH1 0x1 PUSH1 0x1 PUSH1 0xA0 SHL SUB AND CALLER ADDRESS DUP7 PUSH2 0xF7F JUMP JUMPDEST PUSH1 0x3 SLOAD PUSH2 0x743 SWAP1 PUSH1 0x1 PUSH1 0x1 PUSH1 0xA0 SHL SUB AND CALLER ADDRESS DUP6 PUSH2 0xF7F JUMP JUMPDEST PUSH1 0x7 SLOAD PUSH1 0x0 SUB PUSH2 0x766 JUMPI PUSH2 0x75F PUSH2 0x75A DUP4 DUP6 PUSH2 0x1367 JUMP JUMPDEST PUSH2 0x109C JUMP JUMPDEST SWAP1 POP PUSH2 0x7B8 JUMP JUMPDEST PUSH1 0x0 PUSH1 0x5 SLOAD PUSH1 0x7 SLOAD DUP6 PUSH2 0x779 SWAP2 SWAP1 PUSH2 0x1367 JUMP JUMPDEST PUSH2 0x783 SWAP2 SWAP1 PUSH2 0x137E JUMP JUMPDEST SWAP1 POP PUSH1 0x0 PUSH1 0x6 SLOAD PUSH1 0x7 SLOAD DUP6 PUSH2 0x798 SWAP2 SWAP1 PUSH2 0x1367 JUMP JUMPDEST PUSH2 0x7A2 SWAP2 SWAP1 PUSH2 0x137E JUMP JUMPDEST SWAP1 POP DUP1 DUP3 LT PUSH2 0x7B1 JUMPI DUP1 PUSH2 0x7B3 JUMP JUMPDEST DUP2 JUMPDEST SWAP3 POP POP POP JUMPDEST PUSH1 0x0 DUP2 GT PUSH2 0x7FC JUMPI PUSH1 0x40 MLOAD PUSH3 0x461BCD PUSH1 0xE5 SHL DUP2 MSTORE PUSH1 0x20 PUSH1 0x4 DUP3 ADD MSTORE PUSH1 0x11 PUSH1 0x24 DUP3 ADD MSTORE PUSH17 0x506F6F6C3A207A65726F20736861726573 PUSH1 0x78 SHL PUSH1 0x44 DUP3 ADD MSTORE PUSH1 0x64 ADD PUSH2 0x49B JUMP JUMPDEST CALLER PUSH1 0x0 SWAP1 DUP2 MSTORE PUSH1 0x8 PUSH1 0x20 MSTORE PUSH1 0x40 DUP2 KECCAK256 DUP1 SLOAD DUP4 SWAP3 SWAP1 PUSH2 0x81B SWAP1 DUP5 SWAP1 PUSH2 0x12FF JUMP JUMPDEST SWAP3 POP POP DUP2 SWAP1 SSTORE POP DUP1 PUSH1 0x7 PUSH1 0x0 DUP3 DUP3 SLOAD PUSH2 0x834 SWAP2 SWAP1 PUSH2 0x12FF JUMP JUMPDEST SWAP3 POP POP DUP2 SWAP1 SSTORE POP DUP3 PUSH1 0x5 PUSH1 0x0 DUP3 DUP3 SLOAD PUSH2 0x84D SWAP2 SWAP1 PUSH2 0x12FF JUMP JUMPDEST SWAP3 POP POP DUP2 SWAP1 SSTORE POP DUP2 PUSH1 0x6 PUSH1 0x0 DUP3 DUP3 SLOAD PUSH2 0x866 SWAP2 SWAP1 PUSH2 0x12FF JUMP JUMPDEST SWAP1 SWAP2 SSTORE POP PUSH2 0x876 SWAP1 POP DUP3 DUP5 PUSH2 0x12FF JUMP JUMPDEST PUSH1 0xE PUSH1 0x0 DUP3 DUP3 SLOAD PUSH2 0x887 SWAP2 SWAP1 PUSH2 0x12FF JUMP JUMPDEST SWAP1 SWAP2 SSTORE POP POP PUSH1 0x5 SLOAD PUSH1 0x6 SLOAD PUSH1 0x40 DUP1 MLOAD DUP7 DUP2 MSTORE PUSH1 0x20 DUP2 ADD DUP7 SWAP1 MSTORE SWAP1 DUP2 ADD DUP5 SWAP1 MSTORE PUSH1 0x60 DUP2 ADD SWAP3 SWAP1 SWAP3 MSTORE PUSH1 0x80 DUP3 ADD MSTORE TIMESTAMP PUSH1 0xA0 DUP3 ADD MSTORE CALLER SWAP1 PUSH32 0xC7453E3EF562C31977302710E5FF58AE67AD8FA521DCDD8C76F877C4C0D91368 SWAP1 PUSH1 0xC0 ADD PUSH1 0x40 MLOAD DUP1 SWAP2 SUB SWAP1 LOG2 PUSH2 0x8F1 PUSH1 0x1 DUP1 SSTORE JUMP JUMPDEST SWAP3 SWAP2 POP POP JUMP JUMPDEST PUSH1 0x0 DUP1 PUSH1 0x0 PUSH1 0x5 SLOAD GT DUP1 ISZERO PUSH2 0x90E JUMPI POP PUSH1 0x0 PUSH1 0x6 SLOAD GT JUMPDEST PUSH2 0x94F JUMPI PUSH1 0x40 MLOAD PUSH3 0x461BCD PUSH1 0xE5 SHL DUP2 MSTORE PUSH1 0x20 PUSH1 0x4 DUP3 ADD MSTORE PUSH1 0x12 PUSH1 0x24 DUP3 ADD MSTORE PUSH18 0x506F6F6C3A206E6F206C6971756964697479 PUSH1 0x70 SHL PUSH1 0x44 DUP3 ADD MSTORE PUSH1 0x64 ADD PUSH2 0x49B JUMP JUMPDEST PUSH1 0xA SLOAD PUSH1 0x9 SLOAD PUSH2 0x95F SWAP1 DUP6 PUSH2 0x1367 JUMP JUMPDEST PUSH2 0x969 SWAP2 SWAP1 PUSH2 0x137E JUMP JUMPDEST SWAP1 POP PUSH1 0x0 PUSH2 0x977 DUP3 DUP6 PUSH2 0x13A0 JUMP JUMPDEST PUSH1 0x2 SLOAD SWAP1 SWAP2 POP PUSH1 0x1 PUSH1 0x1 PUSH1 0xA0 SHL SUB DUP7 DUP2 AND SWAP2 AND EQ DUP1 ISZERO PUSH2 0x9BD JUMPI DUP2 PUSH1 0x5 SLOAD PUSH2 0x99F SWAP2 SWAP1 PUSH2 0x12FF JUMP JUMPDEST PUSH1 0x6 SLOAD PUSH2 0x9AC SWAP1 DUP5 PUSH2 0x1367 JUMP JUMPDEST PUSH2 0x9B6 SWAP2 SWAP1 PUSH2 0x137E JUMP JUMPDEST SWAP4 POP PUSH2 0x9E5 JUMP JUMPDEST DUP2 PUSH1 0x6 SLOAD PUSH2 0x9CB SWAP2 SWAP1 PUSH2 0x12FF JUMP JUMPDEST PUSH1 0x5 SLOAD PUSH2 0x9D8 SWAP1 DUP5 PUSH2 0x1367 JUMP JUMPDEST PUSH2 0x9E2 SWAP2 SWAP1 PUSH2 0x137E JUMP JUMPDEST SWAP4 POP JUMPDEST POP POP SWAP3 POP SWAP3 SWAP1 POP JUMP JUMPDEST PUSH1 0x0 PUSH2 0x9F8 PUSH2 0x103C JUMP JUMPDEST PUSH1 0x0 DUP3 GT PUSH2 0xA3B JUMPI PUSH1 0x40 MLOAD PUSH3 0x461BCD PUSH1 0xE5 SHL DUP2 MSTORE PUSH1 0x20 PUSH1 0x4 DUP3 ADD MSTORE PUSH1 0x10 PUSH1 0x24 DUP3 ADD MSTORE PUSH16 0x141BDBDB0E881E995C9BC81A5B9C1D5D PUSH1 0x82 SHL PUSH1 0x44 DUP3 ADD MSTORE PUSH1 0x64 ADD PUSH2 0x49B JUMP JUMPDEST PUSH1 0x2 SLOAD PUSH1 0x1 PUSH1 0x1 PUSH1 0xA0 SHL SUB DUP5 DUP2 AND SWAP2 AND EQ DUP1 PUSH2 0xA64 JUMPI POP PUSH1 0x3 SLOAD PUSH1 0x1 PUSH1 0x1 PUSH1 0xA0 SHL SUB DUP5 DUP2 AND SWAP2 AND EQ JUMPDEST PUSH2 0xAA6 JUMPI PUSH1 0x40 MLOAD PUSH3 0x461BCD PUSH1 0xE5 SHL DUP2 MSTORE PUSH1 0x20 PUSH1 0x4 DUP3 ADD MSTORE PUSH1 0x13 PUSH1 0x24 DUP3 ADD MSTORE PUSH19 0x2837B7B61D1034B73B30B634B2103A37B5B2B7 PUSH1 0x69 SHL PUSH1 0x44 DUP3 ADD MSTORE PUSH1 0x64 ADD PUSH2 0x49B JUMP JUMPDEST PUSH1 0x0 PUSH1 0x5 SLOAD GT DUP1 ISZERO PUSH2 0xABA JUMPI POP PUSH1 0x0 PUSH1 0x6 SLOAD GT JUMPDEST PUSH2 0xAFB JUMPI PUSH1 0x40 MLOAD PUSH3 0x461BCD PUSH1 0xE5 SHL DUP2 MSTORE PUSH1 0x20 PUSH1 0x4 DUP3 ADD MSTORE PUSH1 0x12 PUSH1 0x24 DUP3 ADD MSTORE PUSH18 0x506F6F6C3A206E6F206C6971756964697479 PUSH1 0x70 SHL PUSH1 0x44 DUP3 ADD MSTORE PUSH1 0x64 ADD PUSH2 0x49B JUMP JUMPDEST PUSH1 0x2 SLOAD PUSH1 0xA SLOAD PUSH1 0x9 SLOAD PUSH1 0x1 PUSH1 0x1 PUSH1 0xA0 SHL SUB DUP7 DUP2 AND SWAP4 AND SWAP3 SWAP1 SWAP3 EQ SWAP2 PUSH1 0x0 SWAP2 SWAP1 PUSH2 0xB24 SWAP1 DUP7 PUSH2 0x1367 JUMP JUMPDEST PUSH2 0xB2E SWAP2 SWAP1 PUSH2 0x137E JUMP JUMPDEST SWAP1 POP PUSH1 0x0 PUSH2 0xB3C DUP3 DUP7 PUSH2 0x13A0 JUMP JUMPDEST SWAP1 POP DUP3 ISZERO PUSH2 0xC3F JUMPI DUP1 PUSH1 0x5 SLOAD PUSH2 0xB52 SWAP2 SWAP1 PUSH2 0x12FF JUMP JUMPDEST PUSH1 0x6 SLOAD PUSH2 0xB5F SWAP1 DUP4 PUSH2 0x1367 JUMP JUMPDEST PUSH2 0xB69 SWAP2 SWAP1 PUSH2 0x137E JUMP JUMPDEST SWAP4 POP PUSH1 0x0 DUP5 GT DUP1 ISZERO PUSH2 0xB7C JUMPI POP PUSH1 0x6 SLOAD DUP5 LT JUMPDEST PUSH2 0xBC1 JUMPI PUSH1 0x40 MLOAD PUSH3 0x461BCD PUSH1 0xE5 SHL DUP2 MSTORE PUSH1 0x20 PUSH1 0x4 DUP3 ADD MSTORE PUSH1 0x16 PUSH1 0x24 DUP3 ADD MSTORE PUSH22 0x141BDBDB0E881A5B9CDD59999A58DA595B9D081BDD5D PUSH1 0x52 SHL PUSH1 0x44 DUP3 ADD MSTORE PUSH1 0x64 ADD PUSH2 0x49B JUMP JUMPDEST PUSH1 0x2 SLOAD PUSH2 0xBD9 SWAP1 PUSH1 0x1 PUSH1 0x1 PUSH1 0xA0 SHL SUB AND CALLER ADDRESS DUP9 PUSH2 0xF7F JUMP JUMPDEST PUSH1 0x3 SLOAD PUSH2 0xBF0 SWAP1 PUSH1 0x1 PUSH1 0x1 PUSH1 0xA0 SHL SUB AND CALLER DUP7 PUSH2 0x1066 JUMP JUMPDEST DUP5 PUSH1 0x5 PUSH1 0x0 DUP3 DUP3 SLOAD PUSH2 0xC02 SWAP2 SWAP1 PUSH2 0x12FF JUMP JUMPDEST SWAP3 POP POP DUP2 SWAP1 SSTORE POP DUP4 PUSH1 0x6 PUSH1 0x0 DUP3 DUP3 SLOAD PUSH2 0xC1B SWAP2 SWAP1 PUSH2 0x13A0 JUMP JUMPDEST SWAP3 POP POP DUP2 SWAP1 SSTORE POP DUP2 PUSH1 0xC PUSH1 0x0 DUP3 DUP3 SLOAD PUSH2 0xC34 SWAP2 SWAP1 PUSH2 0x12FF JUMP JUMPDEST SWAP1 SWAP2 SSTORE POP PUSH2 0xD35 SWAP1 POP JUMP JUMPDEST DUP1 PUSH1 0x6 SLOAD PUSH2 0xC4D SWAP2 SWAP1 PUSH2 0x12FF JUMP JUMPDEST PUSH1 0x5 SLOAD PUSH2 0xC5A SWAP1 DUP4 PUSH2 0x1367 JUMP JUMPDEST PUSH2 0xC64 SWAP2 SWAP1 PUSH2 0x137E JUMP JUMPDEST SWAP4 POP PUSH1 0x0 DUP5 GT DUP1 ISZERO PUSH2 0xC77 JUMPI POP PUSH1 0x5 SLOAD DUP5 LT JUMPDEST PUSH2 0xCBC JUMPI PUSH1 0x40 MLOAD PUSH3 0x461BCD PUSH1 0xE5 SHL DUP2 MSTORE PUSH1 0x20 PUSH1 0x4 DUP3 ADD MSTORE PUSH1 0x16 PUSH1 0x24 DUP3 ADD MSTORE PUSH22 0x141BDBDB0E881A5B9CDD59999A58DA595B9D081BDD5D PUSH1 0x52 SHL PUSH1 0x44 DUP3 ADD MSTORE PUSH1 0x64 ADD PUSH2 0x49B JUMP JUMPDEST PUSH1 0x3 SLOAD PUSH2 0xCD4 SWAP1 PUSH1 0x1 PUSH1 0x1 PUSH1 0xA0 SHL SUB AND CALLER ADDRESS DUP9 PUSH2 0xF7F JUMP JUMPDEST PUSH1 0x2 SLOAD PUSH2 0xCEB SWAP1 PUSH1 0x1 PUSH1 0x1 PUSH1 0xA0 SHL SUB AND CALLER DUP7 PUSH2 0x1066 JUMP JUMPDEST DUP5 PUSH1 0x6 PUSH1 0x0 DUP3 DUP3 SLOAD PUSH2 0xCFD SWAP2 SWAP1 PUSH2 0x12FF JUMP JUMPDEST SWAP3 POP POP DUP2 SWAP1 SSTORE POP DUP4 PUSH1 0x5 PUSH1 0x0 DUP3 DUP3 SLOAD PUSH2 0xD16 SWAP2 SWAP1 PUSH2 0x13A0 JUMP JUMPDEST SWAP3 POP POP DUP2 SWAP1 SSTORE POP DUP2 PUSH1 0xD PUSH1 0x0 DUP3 DUP3 SLOAD PUSH2 0xD2F SWAP2 SWAP1 PUSH2 0x12FF JUMP JUMPDEST SWAP1 SWAP2 SSTORE POP POP JUMPDEST PUSH1 0xB DUP1 SLOAD SWAP1 PUSH1 0x0 PUSH2 0xD45 DUP4 PUSH2 0x13B3 JUMP JUMPDEST SWAP1 SWAP2 SSTORE POP CALLER SWAP1 POP PUSH32 0x64BD4ED19C2F6F7990B182AEAA7F87F1578355403B7034B18CBDB864A4C35534 DUP8 DUP6 PUSH2 0xD84 JUMPI PUSH1 0x2 SLOAD PUSH1 0x1 PUSH1 0x1 PUSH1 0xA0 SHL SUB AND PUSH2 0xD91 JUMP JUMPDEST PUSH1 0x3 SLOAD PUSH1 0x1 PUSH1 0x1 PUSH1 0xA0 SHL SUB AND JUMPDEST PUSH1 0x5 SLOAD PUSH1 0x6 SLOAD PUSH1 0x40 DUP1 MLOAD PUSH1 0x1 PUSH1 0x1 PUSH1 0xA0 SHL SUB SWAP6 DUP7 AND DUP2 MSTORE SWAP5 SWAP1 SWAP4 AND PUSH1 0x20 DUP6 ADD MSTORE SWAP2 DUP4 ADD DUP11 SWAP1 MSTORE PUSH1 0x60 DUP4 ADD DUP10 SWAP1 MSTORE PUSH1 0x80 DUP4 ADD DUP8 SWAP1 MSTORE PUSH1 0xA0 DUP4 ADD MSTORE PUSH1 0xC0 DUP3 ADD MSTORE TIMESTAMP PUSH1 0xE0 DUP3 ADD MSTORE PUSH2 0x100 ADD PUSH1 0x40 MLOAD DUP1 SWAP2 SUB SWAP1 LOG2 PUSH1 0x0 DUP4 PUSH2 0xDF0 JUMPI PUSH1 0x6 SLOAD PUSH2 0xDF4 JUMP JUMPDEST PUSH1 0x5 SLOAD JUMPDEST SWAP1 POP PUSH2 0xE01 DUP2 PUSH1 0x5 PUSH2 0x1367 JUMP JUMPDEST PUSH2 0xE0C DUP8 PUSH1 0x64 PUSH2 0x1367 JUMP JUMPDEST GT ISZERO PUSH2 0xE79 JUMPI PUSH1 0x0 DUP2 PUSH2 0xE21 DUP9 PUSH2 0x2710 PUSH2 0x1367 JUMP JUMPDEST PUSH2 0xE2B SWAP2 SWAP1 PUSH2 0x137E JUMP JUMPDEST PUSH1 0x40 DUP1 MLOAD DUP10 DUP2 MSTORE PUSH1 0x20 DUP2 ADD DUP10 SWAP1 MSTORE SWAP1 DUP2 ADD DUP3 SWAP1 MSTORE TIMESTAMP PUSH1 0x60 DUP3 ADD MSTORE SWAP1 SWAP2 POP CALLER SWAP1 PUSH32 0x9AA373ADC9AAE17A5284EAE88A3223000EF0B6709AD05519CA78B2144487D6B SWAP1 PUSH1 0x80 ADD PUSH1 0x40 MLOAD DUP1 SWAP2 SUB SWAP1 LOG2 POP JUMPDEST POP POP POP POP PUSH2 0x8F1 PUSH1 0x1 DUP1 SSTORE JUMP JUMPDEST PUSH2 0xE8E PUSH2 0xF52 JUMP JUMPDEST PUSH1 0x1 PUSH1 0x1 PUSH1 0xA0 SHL SUB DUP2 AND PUSH2 0xEB8 JUMPI PUSH1 0x40 MLOAD PUSH4 0x1E4FBDF7 PUSH1 0xE0 SHL DUP2 MSTORE PUSH1 0x0 PUSH1 0x4 DUP3 ADD MSTORE PUSH1 0x24 ADD PUSH2 0x49B JUMP JUMPDEST PUSH2 0xEC1 DUP2 PUSH2 0xFEC JUMP JUMPDEST POP JUMP JUMPDEST PUSH1 0x4 DUP1 SLOAD PUSH2 0xED1 SWAP1 PUSH2 0x13CC JUMP JUMPDEST DUP1 PUSH1 0x1F ADD PUSH1 0x20 DUP1 SWAP2 DIV MUL PUSH1 0x20 ADD PUSH1 0x40 MLOAD SWAP1 DUP2 ADD PUSH1 0x40 MSTORE DUP1 SWAP3 SWAP2 SWAP1 DUP2 DUP2 MSTORE PUSH1 0x20 ADD DUP3 DUP1 SLOAD PUSH2 0xEFD SWAP1 PUSH2 0x13CC JUMP JUMPDEST DUP1 ISZERO PUSH2 0xF4A JUMPI DUP1 PUSH1 0x1F LT PUSH2 0xF1F JUMPI PUSH2 0x100 DUP1 DUP4 SLOAD DIV MUL DUP4 MSTORE SWAP2 PUSH1 0x20 ADD SWAP2 PUSH2 0xF4A JUMP JUMPDEST DUP3 ADD SWAP2 SWAP1 PUSH1 0x0 MSTORE PUSH1 0x20 PUSH1 0x0 KECCAK256 SWAP1 JUMPDEST DUP2 SLOAD DUP2 MSTORE SWAP1 PUSH1 0x1 ADD SWAP1 PUSH1 0x20 ADD DUP1 DUP4 GT PUSH2 0xF2D JUMPI DUP3 SWAP1 SUB PUSH1 0x1F AND DUP3 ADD SWAP2 JUMPDEST POP POP POP POP POP DUP2 JUMP JUMPDEST PUSH1 0x0 SLOAD PUSH1 0x1 PUSH1 0x1 PUSH1 0xA0 SHL SUB AND CALLER EQ PUSH2 0x44E JUMPI PUSH1 0x40 MLOAD PUSH4 0x118CDAA7 PUSH1 0xE0 SHL DUP2 MSTORE CALLER PUSH1 0x4 DUP3 ADD MSTORE PUSH1 0x24 ADD PUSH2 0x49B JUMP JUMPDEST PUSH1 0x40 MLOAD PUSH1 0x1 PUSH1 0x1 PUSH1 0xA0 SHL SUB DUP5 DUP2 AND PUSH1 0x24 DUP4 ADD MSTORE DUP4 DUP2 AND PUSH1 0x44 DUP4 ADD MSTORE PUSH1 0x64 DUP3 ADD DUP4 SWAP1 MSTORE PUSH2 0xFE6 SWAP2 DUP7 SWAP2 DUP3 AND SWAP1 PUSH4 0x23B872DD SWAP1 PUSH1 0x84 ADD JUMPDEST PUSH1 0x40 MLOAD PUSH1 0x20 DUP2 DUP4 SUB SUB DUP2 MSTORE SWAP1 PUSH1 0x40 MSTORE SWAP2 POP PUSH1 0xE0 SHL PUSH1 0x20 DUP3 ADD DUP1 MLOAD PUSH1 0x1 PUSH1 0x1 PUSH1 0xE0 SHL SUB DUP4 DUP2 DUP4 AND OR DUP4 MSTORE POP POP POP POP PUSH2 0x1106 JUMP JUMPDEST POP POP POP POP JUMP JUMPDEST PUSH1 0x0 DUP1 SLOAD PUSH1 0x1 PUSH1 0x1 PUSH1 0xA0 SHL SUB DUP4 DUP2 AND PUSH1 0x1 PUSH1 0x1 PUSH1 0xA0 SHL SUB NOT DUP4 AND DUP2 OR DUP5 SSTORE PUSH1 0x40 MLOAD SWAP2 SWAP1 SWAP3 AND SWAP3 DUP4 SWAP2 PUSH32 0x8BE0079C531659141344CD1FD0A4F28419497F9722A3DAAFE3B4186F6B6457E0 SWAP2 SWAP1 LOG3 POP POP JUMP JUMPDEST PUSH1 0x2 PUSH1 0x1 SLOAD SUB PUSH2 0x105F JUMPI PUSH1 0x40 MLOAD PUSH4 0x3EE5AEB5 PUSH1 0xE0 SHL DUP2 MSTORE PUSH1 0x4 ADD PUSH1 0x40 MLOAD DUP1 SWAP2 SUB SWAP1 REVERT JUMPDEST PUSH1 0x2 PUSH1 0x1 SSTORE JUMP JUMPDEST PUSH1 0x40 MLOAD PUSH1 0x1 PUSH1 0x1 PUSH1 0xA0 SHL SUB DUP4 DUP2 AND PUSH1 0x24 DUP4 ADD MSTORE PUSH1 0x44 DUP3 ADD DUP4 SWAP1 MSTORE PUSH2 0x1097 SWAP2 DUP6 SWAP2 DUP3 AND SWAP1 PUSH4 0xA9059CBB SWAP1 PUSH1 0x64 ADD PUSH2 0xFB4 JUMP JUMPDEST POP POP POP JUMP JUMPDEST PUSH1 0x0 DUP2 PUSH1 0x0 SUB PUSH2 0x10AE JUMPI POP PUSH1 0x0 SWAP2 SWAP1 POP JUMP JUMPDEST PUSH1 0x0 PUSH1 0x2 PUSH2 0x10BD DUP5 PUSH1 0x1 PUSH2 0x12FF JUMP JUMPDEST PUSH2 0x10C7 SWAP2 SWAP1 PUSH2 0x137E JUMP JUMPDEST SWAP1 POP DUP3 SWAP2 POP JUMPDEST DUP2 DUP2 LT ISZERO PUSH2 0x1100 JUMPI SWAP1 POP DUP1 PUSH1 0x2 DUP2 PUSH2 0x10E5 DUP2 DUP7 PUSH2 0x137E JUMP JUMPDEST PUSH2 0x10EF SWAP2 SWAP1 PUSH2 0x12FF JUMP JUMPDEST PUSH2 0x10F9 SWAP2 SWAP1 PUSH2 0x137E JUMP JUMPDEST SWAP1 POP PUSH2 0x10CD JUMP JUMPDEST POP SWAP2 SWAP1 POP JUMP JUMPDEST PUSH1 0x0 DUP1 PUSH1 0x20 PUSH1 0x0 DUP5 MLOAD PUSH1 0x20 DUP7 ADD PUSH1 0x0 DUP9 GAS CALL DUP1 PUSH2 0x1129 JUMPI PUSH1 0x40 MLOAD RETURNDATASIZE PUSH1 0x0 DUP3 RETURNDATACOPY RETURNDATASIZE DUP2 REVERT JUMPDEST POP POP PUSH1 0x0 MLOAD RETURNDATASIZE SWAP2 POP DUP2 ISZERO PUSH2 0x1141 JUMPI DUP1 PUSH1 0x1 EQ ISZERO PUSH2 0x114E JUMP JUMPDEST PUSH1 0x1 PUSH1 0x1 PUSH1 0xA0 SHL SUB DUP5 AND EXTCODESIZE ISZERO JUMPDEST ISZERO PUSH2 0xFE6 JUMPI PUSH1 0x40 MLOAD PUSH4 0x5274AFE7 PUSH1 0xE0 SHL DUP2 MSTORE PUSH1 0x1 PUSH1 0x1 PUSH1 0xA0 SHL SUB DUP6 AND PUSH1 0x4 DUP3 ADD MSTORE PUSH1 0x24 ADD PUSH2 0x49B JUMP JUMPDEST PUSH1 0x0 DUP1 PUSH1 0x0 DUP1 PUSH1 0x60 DUP6 DUP8 SUB SLT ISZERO PUSH2 0x118D JUMPI PUSH1 0x0 DUP1 REVERT JUMPDEST DUP5 CALLDATALOAD SWAP4 POP PUSH1 0x20 DUP6 ADD CALLDATALOAD SWAP3 POP PUSH1 0x40 DUP6 ADD CALLDATALOAD PUSH8 0xFFFFFFFFFFFFFFFF DUP1 DUP3 GT ISZERO PUSH2 0x11B3 JUMPI PUSH1 0x0 DUP1 REVERT JUMPDEST DUP2 DUP8 ADD SWAP2 POP DUP8 PUSH1 0x1F DUP4 ADD SLT PUSH2 0x11C7 JUMPI PUSH1 0x0 DUP1 REVERT JUMPDEST DUP2 CALLDATALOAD DUP2 DUP2 GT ISZERO PUSH2 0x11D6 JUMPI PUSH1 0x0 DUP1 REVERT JUMPDEST DUP9 PUSH1 0x20 DUP3 DUP6 ADD ADD GT ISZERO PUSH2 0x11E8 JUMPI PUSH1 0x0 DUP1 REVERT JUMPDEST SWAP6 SWAP9 SWAP5 SWAP8 POP POP PUSH1 0x20 ADD SWAP5 POP POP POP JUMP JUMPDEST PUSH1 0x0 PUSH1 0x20 DUP3 DUP5 SUB SLT ISZERO PUSH2 0x1209 JUMPI PUSH1 0x0 DUP1 REVERT JUMPDEST POP CALLDATALOAD SWAP2 SWAP1 POP JUMP JUMPDEST PUSH1 0x0 DUP1 PUSH1 0x40 DUP4 DUP6 SUB SLT ISZERO PUSH2 0x1223 JUMPI PUSH1 0x0 DUP1 REVERT JUMPDEST POP POP DUP1 CALLDATALOAD SWAP3 PUSH1 0x20 SWAP1 SWAP2 ADD CALLDATALOAD SWAP2 POP JUMP JUMPDEST DUP1 CALLDATALOAD PUSH1 0x1 PUSH1 0x1 PUSH1 0xA0 SHL SUB DUP2 AND DUP2 EQ PUSH2 0x1249 JUMPI PUSH1 0x0 DUP1 REVERT JUMPDEST SWAP2 SWAP1 POP JUMP JUMPDEST PUSH1 0x0 DUP1 PUSH1 0x40 DUP4 DUP6 SUB SLT ISZERO PUSH2 0x1261 JUMPI PUSH1 0x0 DUP1 REVERT JUMPDEST PUSH2 0x126A DUP4 PUSH2 0x1232 JUMP JUMPDEST SWAP5 PUSH1 0x20 SWAP4 SWAP1 SWAP4 ADD CALLDATALOAD SWAP4 POP POP POP JUMP JUMPDEST PUSH1 0x0 PUSH1 0x20 DUP3 DUP5 SUB SLT ISZERO PUSH2 0x128A JUMPI PUSH1 0x0 DUP1 REVERT JUMPDEST PUSH2 0x1293 DUP3 PUSH2 0x1232 JUMP JUMPDEST SWAP4 SWAP3 POP POP POP JUMP JUMPDEST PUSH1 0x0 PUSH1 0x20 DUP1 DUP4 MSTORE DUP4 MLOAD DUP1 PUSH1 0x20 DUP6 ADD MSTORE PUSH1 0x0 JUMPDEST DUP2 DUP2 LT ISZERO PUSH2 0x12C8 JUMPI DUP6 DUP2 ADD DUP4 ADD MLOAD DUP6 DUP3 ADD PUSH1 0x40 ADD MSTORE DUP3 ADD PUSH2 0x12AC JUMP JUMPDEST POP PUSH1 0x0 PUSH1 0x40 DUP3 DUP7 ADD ADD MSTORE PUSH1 0x40 PUSH1 0x1F NOT PUSH1 0x1F DUP4 ADD AND DUP6 ADD ADD SWAP3 POP POP POP SWAP3 SWAP2 POP POP JUMP JUMPDEST PUSH4 0x4E487B71 PUSH1 0xE0 SHL PUSH1 0x0 MSTORE PUSH1 0x11 PUSH1 0x4 MSTORE PUSH1 0x24 PUSH1 0x0 REVERT JUMPDEST DUP1 DUP3 ADD DUP1 DUP3 GT ISZERO PUSH2 0x8F1 JUMPI PUSH2 0x8F1 PUSH2 0x12E9 JUMP JUMPDEST DUP8 DUP2 MSTORE DUP7 PUSH1 0x20 DUP3 ADD MSTORE DUP6 PUSH1 0x40 DUP3 ADD MSTORE DUP5 PUSH1 0x60 DUP3 ADD MSTORE PUSH1 0xC0 PUSH1 0x80 DUP3 ADD MSTORE DUP3 PUSH1 0xC0 DUP3 ADD MSTORE DUP3 DUP5 PUSH1 0xE0 DUP4 ADD CALLDATACOPY PUSH1 0x0 PUSH1 0xE0 DUP5 DUP4 ADD ADD MSTORE PUSH1 0x0 PUSH1 0xE0 PUSH1 0x1F NOT PUSH1 0x1F DUP7 ADD AND DUP4 ADD ADD SWAP1 POP DUP3 PUSH1 0xA0 DUP4 ADD MSTORE SWAP9 SWAP8 POP POP POP POP POP POP POP POP JUMP JUMPDEST DUP1 DUP3 MUL DUP2 ISZERO DUP3 DUP3 DIV DUP5 EQ OR PUSH2 0x8F1 JUMPI PUSH2 0x8F1 PUSH2 0x12E9 JUMP JUMPDEST PUSH1 0x0 DUP3 PUSH2 0x139B JUMPI PUSH4 0x4E487B71 PUSH1 0xE0 SHL PUSH1 0x0 MSTORE PUSH1 0x12 PUSH1 0x4 MSTORE PUSH1 0x24 PUSH1 0x0 REVERT JUMPDEST POP DIV SWAP1 JUMP JUMPDEST DUP2 DUP2 SUB DUP2 DUP2 GT ISZERO PUSH2 0x8F1 JUMPI PUSH2 0x8F1 PUSH2 0x12E9 JUMP JUMPDEST PUSH1 0x0 PUSH1 0x1 DUP3 ADD PUSH2 0x13C5 JUMPI PUSH2 0x13C5 PUSH2 0x12E9 JUMP JUMPDEST POP PUSH1 0x1 ADD SWAP1 JUMP JUMPDEST PUSH1 0x1 DUP2 DUP2 SHR SWAP1 DUP3 AND DUP1 PUSH2 0x13E0 JUMPI PUSH1 0x7F DUP3 AND SWAP2 POP JUMPDEST PUSH1 0x20 DUP3 LT DUP2 SUB PUSH2 0x1100 JUMPI PUSH4 0x4E487B71 PUSH1 0xE0 SHL PUSH1 0x0 MSTORE PUSH1 0x22 PUSH1 0x4 MSTORE PUSH1 0x24 PUSH1 0x0 REVERT INVALID LOG2 PUSH5 0x6970667358 0x22 SLT KECCAK256 PUSH4 0xB06A3C93 PUSH16 0x4D17F17E30CF46ECD8A7D2076DDD5C75 0xAE MCOPY DUP4 0xC0 EXP DUP1 SLOAD 0x2B 0xC2 PUSH12 0x64736F6C6343000818003300 "},"methodIdentifiers":{"addLiquidity(uint256,uint256)":"9cd441da","getLPBalance(address)":"d2258beb","getPoolStats()":"bbb85188","getReserves()":"0902f1ac","getSwapQuote(address,uint256)":"b492fc69","lpShares(address)":"c109a6dc","owner()":"8da5cb5b","poolName()":"f3466dfa","rebalance(uint256,uint256,string)":"35d17e97","removeLiquidity(uint256)":"9c8f9f23","renounceOwnership()":"715018a6","reserveA()":"dc5fa6c5","reserveB()":"19e36f3b","swap(address,uint256)":"d004f0f7","swapFeeDenominator()":"107fbd42","swapFeeNumerator()":"fef46224","tokenA()":"0fc63d10","tokenB()":"5f64b55b","totalFeesCollectedA()":"dce06be8","totalFeesCollectedB()":"985c1a01","totalLPShares()":"d789760e","totalLiquidityAdded()":"43b63b9d","totalLiquidityRemoved()":"b4b01d8f","totalSwaps()":"b4a800ce","transferOwnership(address)":"f2fde38b"}}}}}