{
  "_format": "hh-sol-artifact-1",
  "contractName": "GenesisGovernance",
  "sourceName": "contracts/GenesisGovernance.sol",
  "abi": [
    {
      "inputs": [],
      "stateMutability": "nonpayable",
      "type": "constructor"
    },
    {
      "inputs": [
        {
          "internalType": "address",
          "name": "owner",
          "type": "address"
        }
      ],
      "name": "OwnableInvalidOwner",
      "type": "error"
    },
    {
      "inputs": [
        {
          "internalType": "address",
          "name": "account",
          "type": "address"
        }
      ],
      "name": "OwnableUnauthorizedAccount",
      "type": "error"
    },
    {
      "anonymous": false,
      "inputs": [
        {
          "indexed": false,
          "internalType": "string",
          "name": "parameter",
          "type": "string"
        },
        {
          "indexed": false,
          "internalType": "uint256",
          "name": "oldValue",
          "type": "uint256"
        },
        {
          "indexed": false,
          "internalType": "uint256",
          "name": "newValue",
          "type": "uint256"
        },
        {
          "indexed": false,
          "internalType": "uint256",
          "name": "timestamp",
          "type": "uint256"
        }
      ],
      "name": "GovernanceConfigChanged",
      "type": "event"
    },
    {
      "anonymous": false,
      "inputs": [
        {
          "indexed": true,
          "internalType": "address",
          "name": "previousOwner",
          "type": "address"
        },
        {
          "indexed": true,
          "internalType": "address",
          "name": "newOwner",
          "type": "address"
        }
      ],
      "name": "OwnershipTransferred",
      "type": "event"
    },
    {
      "anonymous": false,
      "inputs": [
        {
          "indexed": true,
          "internalType": "uint256",
          "name": "proposalId",
          "type": "uint256"
        },
        {
          "indexed": true,
          "internalType": "address",
          "name": "canceller",
          "type": "address"
        },
        {
          "indexed": false,
          "internalType": "string",
          "name": "reason",
          "type": "string"
        },
        {
          "indexed": false,
          "internalType": "uint256",
          "name": "timestamp",
          "type": "uint256"
        }
      ],
      "name": "ProposalCancelled",
      "type": "event"
    },
    {
      "anonymous": false,
      "inputs": [
        {
          "indexed": true,
          "internalType": "uint256",
          "name": "proposalId",
          "type": "uint256"
        },
        {
          "indexed": true,
          "internalType": "address",
          "name": "proposer",
          "type": "address"
        },
        {
          "indexed": false,
          "internalType": "string",
          "name": "title",
          "type": "string"
        },
        {
          "indexed": false,
          "internalType": "string",
          "name": "description",
          "type": "string"
        },
        {
          "indexed": false,
          "internalType": "uint256",
          "name": "startTime",
          "type": "uint256"
        },
        {
          "indexed": false,
          "internalType": "uint256",
          "name": "endTime",
          "type": "uint256"
        },
        {
          "indexed": false,
          "internalType": "uint256",
          "name": "timestamp",
          "type": "uint256"
        }
      ],
      "name": "ProposalCreated",
      "type": "event"
    },
    {
      "anonymous": false,
      "inputs": [
        {
          "indexed": true,
          "internalType": "uint256",
          "name": "proposalId",
          "type": "uint256"
        },
        {
          "indexed": true,
          "internalType": "address",
          "name": "executor",
          "type": "address"
        },
        {
          "indexed": false,
          "internalType": "uint256",
          "name": "votesFor",
          "type": "uint256"
        },
        {
          "indexed": false,
          "internalType": "uint256",
          "name": "votesAgainst",
          "type": "uint256"
        },
        {
          "indexed": false,
          "internalType": "uint256",
          "name": "timestamp",
          "type": "uint256"
        }
      ],
      "name": "ProposalExecuted",
      "type": "event"
    },
    {
      "anonymous": false,
      "inputs": [
        {
          "indexed": true,
          "internalType": "uint256",
          "name": "proposalId",
          "type": "uint256"
        },
        {
          "indexed": false,
          "internalType": "enum GenesisGovernance.ProposalState",
          "name": "oldState",
          "type": "uint8"
        },
        {
          "indexed": false,
          "internalType": "enum GenesisGovernance.ProposalState",
          "name": "newState",
          "type": "uint8"
        },
        {
          "indexed": false,
          "internalType": "uint256",
          "name": "timestamp",
          "type": "uint256"
        }
      ],
      "name": "ProposalStateChanged",
      "type": "event"
    },
    {
      "anonymous": false,
      "inputs": [
        {
          "indexed": true,
          "internalType": "uint256",
          "name": "proposalId",
          "type": "uint256"
        },
        {
          "indexed": true,
          "internalType": "address",
          "name": "voter",
          "type": "address"
        },
        {
          "indexed": false,
          "internalType": "enum GenesisGovernance.VoteType",
          "name": "voteType",
          "type": "uint8"
        },
        {
          "indexed": false,
          "internalType": "uint256",
          "name": "weight",
          "type": "uint256"
        },
        {
          "indexed": false,
          "internalType": "string",
          "name": "reason",
          "type": "string"
        },
        {
          "indexed": false,
          "internalType": "uint256",
          "name": "timestamp",
          "type": "uint256"
        }
      ],
      "name": "VoteCast",
      "type": "event"
    },
    {
      "inputs": [
        {
          "internalType": "uint256",
          "name": "proposalId",
          "type": "uint256"
        },
        {
          "internalType": "string",
          "name": "reason",
          "type": "string"
        }
      ],
      "name": "cancelProposal",
      "outputs": [],
      "stateMutability": "nonpayable",
      "type": "function"
    },
    {
      "inputs": [
        {
          "internalType": "uint256",
          "name": "proposalId",
          "type": "uint256"
        },
        {
          "internalType": "enum GenesisGovernance.VoteType",
          "name": "voteType",
          "type": "uint8"
        },
        {
          "internalType": "uint256",
          "name": "weight",
          "type": "uint256"
        },
        {
          "internalType": "string",
          "name": "reason",
          "type": "string"
        }
      ],
      "name": "castVote",
      "outputs": [],
      "stateMutability": "nonpayable",
      "type": "function"
    },
    {
      "inputs": [
        {
          "internalType": "string",
          "name": "title",
          "type": "string"
        },
        {
          "internalType": "string",
          "name": "description",
          "type": "string"
        },
        {
          "internalType": "uint256",
          "name": "durationOverride",
          "type": "uint256"
        }
      ],
      "name": "createProposal",
      "outputs": [
        {
          "internalType": "uint256",
          "name": "proposalId",
          "type": "uint256"
        }
      ],
      "stateMutability": "nonpayable",
      "type": "function"
    },
    {
      "inputs": [
        {
          "internalType": "uint256",
          "name": "proposalId",
          "type": "uint256"
        }
      ],
      "name": "executeProposal",
      "outputs": [],
      "stateMutability": "nonpayable",
      "type": "function"
    },
    {
      "inputs": [
        {
          "internalType": "uint256",
          "name": "proposalId",
          "type": "uint256"
        }
      ],
      "name": "finalizeProposal",
      "outputs": [],
      "stateMutability": "nonpayable",
      "type": "function"
    },
    {
      "inputs": [],
      "name": "getProposalCount",
      "outputs": [
        {
          "internalType": "uint256",
          "name": "",
          "type": "uint256"
        }
      ],
      "stateMutability": "view",
      "type": "function"
    },
    {
      "inputs": [
        {
          "internalType": "uint256",
          "name": "proposalId",
          "type": "uint256"
        }
      ],
      "name": "getProposalInfo",
      "outputs": [
        {
          "internalType": "address",
          "name": "proposer",
          "type": "address"
        },
        {
          "internalType": "string",
          "name": "title",
          "type": "string"
        },
        {
          "internalType": "uint256",
          "name": "votesFor",
          "type": "uint256"
        },
        {
          "internalType": "uint256",
          "name": "votesAgainst",
          "type": "uint256"
        },
        {
          "internalType": "uint256",
          "name": "votesAbstain",
          "type": "uint256"
        },
        {
          "internalType": "enum GenesisGovernance.ProposalState",
          "name": "state",
          "type": "uint8"
        },
        {
          "internalType": "bool",
          "name": "executed",
          "type": "bool"
        }
      ],
      "stateMutability": "view",
      "type": "function"
    },
    {
      "inputs": [
        {
          "internalType": "uint256",
          "name": "proposalId",
          "type": "uint256"
        }
      ],
      "name": "getVoteResult",
      "outputs": [
        {
          "internalType": "uint256",
          "name": "forVotes",
          "type": "uint256"
        },
        {
          "internalType": "uint256",
          "name": "againstVotes",
          "type": "uint256"
        },
        {
          "internalType": "uint256",
          "name": "abstainVotes",
          "type": "uint256"
        },
        {
          "internalType": "uint256",
          "name": "totalVotes",
          "type": "uint256"
        },
        {
          "internalType": "bool",
          "name": "quorumReached",
          "type": "bool"
        },
        {
          "internalType": "bool",
          "name": "passed",
          "type": "bool"
        }
      ],
      "stateMutability": "view",
      "type": "function"
    },
    {
      "inputs": [
        {
          "internalType": "uint256",
          "name": "",
          "type": "uint256"
        },
        {
          "internalType": "address",
          "name": "",
          "type": "address"
        }
      ],
      "name": "hasVoted",
      "outputs": [
        {
          "internalType": "bool",
          "name": "",
          "type": "bool"
        }
      ],
      "stateMutability": "view",
      "type": "function"
    },
    {
      "inputs": [],
      "name": "owner",
      "outputs": [
        {
          "internalType": "address",
          "name": "",
          "type": "address"
        }
      ],
      "stateMutability": "view",
      "type": "function"
    },
    {
      "inputs": [],
      "name": "proposalThreshold",
      "outputs": [
        {
          "internalType": "uint256",
          "name": "",
          "type": "uint256"
        }
      ],
      "stateMutability": "view",
      "type": "function"
    },
    {
      "inputs": [
        {
          "internalType": "uint256",
          "name": "",
          "type": "uint256"
        }
      ],
      "name": "proposals",
      "outputs": [
        {
          "internalType": "uint256",
          "name": "id",
          "type": "uint256"
        },
        {
          "internalType": "address",
          "name": "proposer",
          "type": "address"
        },
        {
          "internalType": "string",
          "name": "title",
          "type": "string"
        },
        {
          "internalType": "string",
          "name": "description",
          "type": "string"
        },
        {
          "internalType": "uint256",
          "name": "votesFor",
          "type": "uint256"
        },
        {
          "internalType": "uint256",
          "name": "votesAgainst",
          "type": "uint256"
        },
        {
          "internalType": "uint256",
          "name": "votesAbstain",
          "type": "uint256"
        },
        {
          "internalType": "uint256",
          "name": "startTime",
          "type": "uint256"
        },
        {
          "internalType": "uint256",
          "name": "endTime",
          "type": "uint256"
        },
        {
          "internalType": "enum GenesisGovernance.ProposalState",
          "name": "state",
          "type": "uint8"
        },
        {
          "internalType": "bool",
          "name": "executed",
          "type": "bool"
        }
      ],
      "stateMutability": "view",
      "type": "function"
    },
    {
      "inputs": [],
      "name": "quorumVotes",
      "outputs": [
        {
          "internalType": "uint256",
          "name": "",
          "type": "uint256"
        }
      ],
      "stateMutability": "view",
      "type": "function"
    },
    {
      "inputs": [],
      "name": "renounceOwnership",
      "outputs": [],
      "stateMutability": "nonpayable",
      "type": "function"
    },
    {
      "inputs": [
        {
          "internalType": "uint256",
          "name": "newThreshold",
          "type": "uint256"
        }
      ],
      "name": "setProposalThreshold",
      "outputs": [],
      "stateMutability": "nonpayable",
      "type": "function"
    },
    {
      "inputs": [
        {
          "internalType": "uint256",
          "name": "newQuorum",
          "type": "uint256"
        }
      ],
      "name": "setQuorum",
      "outputs": [],
      "stateMutability": "nonpayable",
      "type": "function"
    },
    {
      "inputs": [
        {
          "internalType": "uint256",
          "name": "newDuration",
          "type": "uint256"
        }
      ],
      "name": "setVotingDuration",
      "outputs": [],
      "stateMutability": "nonpayable",
      "type": "function"
    },
    {
      "inputs": [],
      "name": "totalProposals",
      "outputs": [
        {
          "internalType": "uint256",
          "name": "",
          "type": "uint256"
        }
      ],
      "stateMutability": "view",
      "type": "function"
    },
    {
      "inputs": [],
      "name": "totalVotesCast",
      "outputs": [
        {
          "internalType": "uint256",
          "name": "",
          "type": "uint256"
        }
      ],
      "stateMutability": "view",
      "type": "function"
    },
    {
      "inputs": [
        {
          "internalType": "address",
          "name": "newOwner",
          "type": "address"
        }
      ],
      "name": "transferOwnership",
      "outputs": [],
      "stateMutability": "nonpayable",
      "type": "function"
    },
    {
      "inputs": [
        {
          "internalType": "uint256",
          "name": "",
          "type": "uint256"
        },
        {
          "internalType": "address",
          "name": "",
          "type": "address"
        }
      ],
      "name": "voterChoice",
      "outputs": [
        {
          "internalType": "enum GenesisGovernance.VoteType",
          "name": "",
          "type": "uint8"
        }
      ],
      "stateMutability": "view",
      "type": "function"
    },
    {
      "inputs": [],
      "name": "votingDuration",
      "outputs": [
        {
          "internalType": "uint256",
          "name": "",
          "type": "uint256"
        }
      ],
      "stateMutability": "view",
      "type": "function"
    }
  ],
  "bytecode": "0x60806040526203f480600455633b9aca006005556305f5e10060065534801561002757600080fd5b50338061004e57604051631e4fbdf760e01b81526000600482015260240160405180910390fd5b6100578161005d565b506100ad565b600080546001600160a01b038381166001600160a01b0319831681178455604051919092169283917f8be0079c531659141344cd1fd0a4f28419497f9722a3daafe3b4186f6b6457e09190a35050565b611916806100bc6000396000f3fe608060405234801561001057600080fd5b50600436106101425760003560e01c80638da5cb5b116100b8578063bc903cb81161007c578063bc903cb8146102c5578063bfa0fc93146102eb578063c08cc02d1461032f578063c1ba4e5914610337578063ece40cc11461034a578063f2fde38b1461035d57600080fd5b80638da5cb5b14610272578063a351f6151461028d578063a78d80fc146102a0578063aa732a30146102a9578063b58131b0146102bc57600080fd5b8063438596321161010a57806343859632146101c257806351477141146102005780635652077c1461023b5780635bcfadb51461024e578063715018a6146102615780637de418d51461026957600080fd5b8063013cf08b146101475780630ce0ebf41461017a5780630d61b5191461019b578063132002fc146101b057806324bc1a64146101b9575b600080fd5b61015a61015536600461126a565b610370565b6040516101719b9a999897969594939291906112f3565b60405180910390f35b61018d6101883660046113c4565b6104fa565b604051908152602001610171565b6101ae6101a936600461126a565b610794565b005b61018d60045481565b61018d60055481565b6101f06101d0366004611454565b600260209081526000928352604080842090915290825290205460ff1681565b6040519015158152602001610171565b61022e61020e366004611454565b600360209081526000928352604080842090915290825290205460ff1681565b6040516101719190611490565b6101ae61024936600461126a565b610928565b6101ae61025c36600461126a565b610a67565b6101ae610ae2565b61018d60085481565b6000546040516001600160a01b039091168152602001610171565b6101ae61029b3660046114a4565b610af6565b61018d60075481565b6101ae6102b73660046114f0565b610c79565b61018d60065481565b6102d86102d336600461126a565b610f23565b604051610171979695949392919061155e565b6102fe6102f936600461126a565b611033565b60408051968752602087019590955293850192909252606084015215156080830152151560a082015260c001610171565b60015461018d565b6101ae61034536600461126a565b6110c9565b6101ae61035836600461126a565b611139565b6101ae61036b3660046115b7565b6111af565b6001818154811061038057600080fd5b60009182526020909120600a90910201805460018201546002830180549294506001600160a01b0390911692916103b6906115d9565b80601f01602080910402602001604051908101604052809291908181526020018280546103e2906115d9565b801561042f5780601f106104045761010080835404028352916020019161042f565b820191906000526020600020905b81548152906001019060200180831161041257829003601f168201915b505050505090806003018054610444906115d9565b80601f0160208091040260200160405190810160405280929190818152602001828054610470906115d9565b80156104bd5780601f10610492576101008083540402835291602001916104bd565b820191906000526020600020905b8154815290600101906020018083116104a057829003601f168201915b5050506004840154600585015460068601546007870154600888015460099098015496979396929550909350919060ff808216916101009004168b565b6000846105415760405162461bcd60e51b815260206004820152601060248201526f476f763a20656d707479207469746c6560801b60448201526064015b60405180910390fd5b600080831161055257600454610554565b825b905060018054905091506001604051806101600160405280848152602001336001600160a01b0316815260200189898080601f016020809104026020016040519081016040528093929190818152602001838380828437600092019190915250505090825250604080516020601f8a0181900481028201810190925288815291810191908990899081908401838280828437600092018290525093855250505060208201819052604082018190526060820152426080820181905260a090910190610620908590611629565b81526020016000815260006020918201819052835460018082018655948252908290208351600a909202019081559082015192810180546001600160a01b0319166001600160a01b03909416939093179092556040810151909190600282019061068a90826116a3565b506060820151600382019061069f90826116a3565b506080820151816004015560a0820151816005015560c0820151816006015560e0820151816007015561010082015181600801556101208201518160090160006101000a81548160ff021916908360048111156106fe576106fe6112c9565b02179055506101409190910151600990910180549115156101000261ff00199092169190911790556007805490600061073683611763565b90915550339050827f16834ed4a5bc4e8c7dd82adde6b35e2f4bb7ea06ff9e4a4d822a61d96c37705f898989894261076e8982611629565b4260405161078297969594939291906117a5565b60405180910390a35095945050505050565b60015481106107b55760405162461bcd60e51b8152600401610538906117ec565b6000600182815481106107ca576107ca61181b565b60009182526020909120600a9091020190506001600982015460ff1660048111156107f7576107f76112c9565b146108365760405162461bcd60e51b815260206004820152600f60248201526e11dbdd8e881b9bdd081c185cdcd959608a1b6044820152606401610538565b6009810154610100900460ff16156108885760405162461bcd60e51b815260206004820152601560248201527411dbdd8e88185b1c9958591e48195e1958dd5d1959605a1b6044820152606401610538565b60098101805461ffff191661010317905560048101546005820154604080519283526020830191909152428282015251339184917f68ab678db8d2ac30ade450d2f61b71d192fb3940bf122fb1748c4d0b4d1d68fa9181900360600190a3817fd8ed8371ab6117327e418ae4493b065e766893c1862c8de3e11e81198001a300600160034260405161091c93929190611831565b60405180910390a25050565b60015481106109495760405162461bcd60e51b8152600401610538906117ec565b60006001828154811061095e5761095e61181b565b600091825260208220600a909102019150600982015460ff166004811115610988576109886112c9565b146109a55760405162461bcd60e51b81526004016105389061185a565b600981015460068201546005830154600484015460ff90931692600092916109cc91611629565b6109d69190611629565b905060055481101580156109f1575082600501548360040154115b15610a0a5760098301805460ff19166001179055610a1a565b60098301805460ff191660021790555b600983015460405185917fd8ed8371ab6117327e418ae4493b065e766893c1862c8de3e11e81198001a30091610a5991869160ff909116904290611831565b60405180910390a250505050565b610a6f6111ed565b6004805490829055604080516080808252600e908201526d3b37ba34b733a23ab930ba34b7b760911b60a0820152602081018390529081018390524260608201527f95aca9c5cbf9fb92249d9548380865e22fdd0ed465f933812c873d232711f4169060c0015b60405180910390a15050565b610aea6111ed565b610af4600061121a565b565b6001548310610b175760405162461bcd60e51b8152600401610538906117ec565b600060018481548110610b2c57610b2c61181b565b60009182526020909120600a9091020160018101549091506001600160a01b0316331480610b6457506000546001600160a01b031633145b610ba65760405162461bcd60e51b815260206004820152601360248201527211dbdd8e881b9bdd08185d5d1a1bdc9a5e9959606a1b6044820152606401610538565b6000600982015460ff166004811115610bc157610bc16112c9565b14610bde5760405162461bcd60e51b81526004016105389061185a565b60098101805460ff19811660041790915560405160ff90911690339086907f2fedf03a050389695bf44ccd4813a702924aa4865aa2d738f9ab63cb05f9645790610c2d90889088904290611883565b60405180910390a3847fd8ed8371ab6117327e418ae4493b065e766893c1862c8de3e11e81198001a30082600442604051610c6a93929190611831565b60405180910390a25050505050565b6001548510610c9a5760405162461bcd60e51b8152600401610538906117ec565b600060018681548110610caf57610caf61181b565b600091825260208220600a909102019150600982015460ff166004811115610cd957610cd96112c9565b14610cf65760405162461bcd60e51b81526004016105389061185a565b8060080154421115610d3e5760405162461bcd60e51b815260206004820152601160248201527011dbdd8e881d9bdd1a5b99c8195b991959607a1b6044820152606401610538565b600086815260026020908152604080832033845290915290205460ff1615610d9d5760405162461bcd60e51b815260206004820152601260248201527111dbdd8e88185b1c9958591e481d9bdd195960721b6044820152606401610538565b60008411610de05760405162461bcd60e51b815260206004820152601060248201526f11dbdd8e881e995c9bc81dd95a59da1d60821b6044820152606401610538565b6000868152600260208181526040808420338086529083528185208054600160ff1991821681179092558c875260038552838720928752919093529320805489949193911691908490811115610e3857610e386112c9565b02179055506001856002811115610e5157610e516112c9565b03610e755783816004016000828254610e6a9190611629565b90915550610ebc9050565b6000856002811115610e8957610e896112c9565b03610ea25783816005016000828254610e6a9190611629565b83816006016000828254610eb69190611629565b90915550505b60088054906000610ecc83611763565b9190505550336001600160a01b0316867f9437db321cb4ef42bcec521bc641b982c485e0e0e91ed59f883bb9c002ba47558787878742604051610f139594939291906118a7565b60405180910390a3505050505050565b6000606060008060008060008060018981548110610f4357610f4361181b565b60009182526020909120600a90910201600181015460048201546005830154600684015460098501546002860180549697506001600160a01b039095169560ff80831692610100900416908690610f99906115d9565b80601f0160208091040260200160405190810160405280929190818152602001828054610fc5906115d9565b80156110125780601f10610fe757610100808354040283529160200191611012565b820191906000526020600020905b815481529060010190602001808311610ff557829003601f168201915b50505050509550975097509750975097509750975050919395979092949650565b6000806000806000806000600188815481106110515761105161181b565b90600052602060002090600a02019050600081600601548260050154836004015461107c9190611629565b6110869190611629565b6004830154600580850154600686015491549394509192849081101583851180156110b357506005548610155b949e939d50919b50995097509095509350505050565b6110d16111ed565b6005805490829055604080516080808252600b908201526a71756f72756d566f74657360a81b60a0820152602081018390529081018390524260608201527f95aca9c5cbf9fb92249d9548380865e22fdd0ed465f933812c873d232711f4169060c001610ad6565b6111416111ed565b6006805490829055604080516080808252601190820152701c1c9bdc1bdcd85b151a1c995cda1bdb19607a1b60a0820152602081018390529081018390524260608201527f95aca9c5cbf9fb92249d9548380865e22fdd0ed465f933812c873d232711f4169060c001610ad6565b6111b76111ed565b6001600160a01b0381166111e157604051631e4fbdf760e01b815260006004820152602401610538565b6111ea8161121a565b50565b6000546001600160a01b03163314610af45760405163118cdaa760e01b8152336004820152602401610538565b600080546001600160a01b038381166001600160a01b0319831681178455604051919092169283917f8be0079c531659141344cd1fd0a4f28419497f9722a3daafe3b4186f6b6457e09190a35050565b60006020828403121561127c57600080fd5b5035919050565b6000815180845260005b818110156112a95760208185018101518683018201520161128d565b506000602082860101526020601f19601f83011685010191505092915050565b634e487b7160e01b600052602160045260246000fd5b600581106112ef576112ef6112c9565b9052565b8b81526001600160a01b038b1660208201526101606040820181905260009061131e8382018d611283565b90508281036060840152611332818c611283565b9150508860808301528760a08301528660c08301528560e0830152846101008301526113626101208301856112df565b8215156101408301529c9b505050505050505050505050565b60008083601f84011261138d57600080fd5b50813567ffffffffffffffff8111156113a557600080fd5b6020830191508360208285010111156113bd57600080fd5b9250929050565b6000806000806000606086880312156113dc57600080fd5b853567ffffffffffffffff808211156113f457600080fd5b61140089838a0161137b565b9097509550602088013591508082111561141957600080fd5b506114268882890161137b565b96999598509660400135949350505050565b80356001600160a01b038116811461144f57600080fd5b919050565b6000806040838503121561146757600080fd5b8235915061147760208401611438565b90509250929050565b600381106112ef576112ef6112c9565b6020810161149e8284611480565b92915050565b6000806000604084860312156114b957600080fd5b83359250602084013567ffffffffffffffff8111156114d757600080fd5b6114e38682870161137b565b9497909650939450505050565b60008060008060006080868803121561150857600080fd5b8535945060208601356003811061151e57600080fd5b935060408601359250606086013567ffffffffffffffff81111561154157600080fd5b61154d8882890161137b565b969995985093965092949392505050565b6001600160a01b038816815260e06020820181905260009061158290830189611283565b90508660408301528560608301528460808301526115a360a08301856112df565b82151560c083015298975050505050505050565b6000602082840312156115c957600080fd5b6115d282611438565b9392505050565b600181811c908216806115ed57607f821691505b60208210810361160d57634e487b7160e01b600052602260045260246000fd5b50919050565b634e487b7160e01b600052601160045260246000fd5b8082018082111561149e5761149e611613565b634e487b7160e01b600052604160045260246000fd5b601f82111561169e576000816000526020600020601f850160051c8101602086101561167b5750805b601f850160051c820191505b8181101561169a57828155600101611687565b5050505b505050565b815167ffffffffffffffff8111156116bd576116bd61163c565b6116d1816116cb84546115d9565b84611652565b602080601f83116001811461170657600084156116ee5750858301515b600019600386901b1c1916600185901b17855561169a565b600085815260208120601f198616915b8281101561173557888601518255948401946001909101908401611716565b50858210156117535787850151600019600388901b60f8161c191681555b5050505050600190811b01905550565b60006001820161177557611775611613565b5060010190565b81835281816020850137506000828201602090810191909152601f909101601f19169091010190565b60a0815260006117b960a08301898b61177c565b82810360208401526117cc81888a61177c565b604084019690965250506060810192909252608090910152949350505050565b60208082526015908201527411dbdd8e881a5b9d985b1a59081c1c9bdc1bdcd85b605a1b604082015260600190565b634e487b7160e01b600052603260045260246000fd5b6060810161183f82866112df565b61184c60208301856112df565b826040830152949350505050565b6020808252600f908201526e476f763a206e6f742061637469766560881b604082015260600190565b60408152600061189760408301858761177c565b9050826020830152949350505050565b6118b18187611480565b8460208201526080604082015260006118ce60808301858761177c565b9050826060830152969550505050505056fea2646970667358221220a14917ef8e0bf59934185d16f40a0bafda5d0d3205d257474c73d55a09f6680c64736f6c63430008180033",
  "linkReferences": {},
  "deployedLinkReferences": {}
}