{
  "_format": "hh-sol-artifact-1",
  "contractName": "GenesisVault",
  "sourceName": "contracts/GenesisVault.sol",
  "abi": [
    {
      "inputs": [
        {
          "internalType": "address",
          "name": "tokenAddress",
          "type": "address"
        }
      ],
      "stateMutability": "nonpayable",
      "type": "constructor"
    },
    {
      "inputs": [
        {
          "internalType": "address",
          "name": "owner",
          "type": "address"
        }
      ],
      "name": "OwnableInvalidOwner",
      "type": "error"
    },
    {
      "inputs": [
        {
          "internalType": "address",
          "name": "account",
          "type": "address"
        }
      ],
      "name": "OwnableUnauthorizedAccount",
      "type": "error"
    },
    {
      "inputs": [],
      "name": "ReentrancyGuardReentrantCall",
      "type": "error"
    },
    {
      "inputs": [
        {
          "internalType": "address",
          "name": "token",
          "type": "address"
        }
      ],
      "name": "SafeERC20FailedOperation",
      "type": "error"
    },
    {
      "anonymous": false,
      "inputs": [
        {
          "indexed": true,
          "internalType": "address",
          "name": "user",
          "type": "address"
        },
        {
          "indexed": false,
          "internalType": "uint256",
          "name": "amount",
          "type": "uint256"
        },
        {
          "indexed": false,
          "internalType": "uint256",
          "name": "newBalance",
          "type": "uint256"
        },
        {
          "indexed": false,
          "internalType": "uint256",
          "name": "timestamp",
          "type": "uint256"
        }
      ],
      "name": "Deposit",
      "type": "event"
    },
    {
      "anonymous": false,
      "inputs": [
        {
          "indexed": false,
          "internalType": "string",
          "name": "action",
          "type": "string"
        },
        {
          "indexed": true,
          "internalType": "address",
          "name": "triggeredBy",
          "type": "address"
        },
        {
          "indexed": false,
          "internalType": "uint256",
          "name": "timestamp",
          "type": "uint256"
        }
      ],
      "name": "EmergencyAction",
      "type": "event"
    },
    {
      "anonymous": false,
      "inputs": [
        {
          "indexed": true,
          "internalType": "address",
          "name": "from",
          "type": "address"
        },
        {
          "indexed": true,
          "internalType": "address",
          "name": "to",
          "type": "address"
        },
        {
          "indexed": false,
          "internalType": "uint256",
          "name": "amount",
          "type": "uint256"
        },
        {
          "indexed": false,
          "internalType": "uint256",
          "name": "timestamp",
          "type": "uint256"
        }
      ],
      "name": "InternalTransfer",
      "type": "event"
    },
    {
      "anonymous": false,
      "inputs": [
        {
          "indexed": true,
          "internalType": "address",
          "name": "user",
          "type": "address"
        },
        {
          "indexed": false,
          "internalType": "string",
          "name": "movementType",
          "type": "string"
        },
        {
          "indexed": false,
          "internalType": "uint256",
          "name": "amount",
          "type": "uint256"
        },
        {
          "indexed": false,
          "internalType": "uint256",
          "name": "thresholdUsed",
          "type": "uint256"
        },
        {
          "indexed": false,
          "internalType": "uint256",
          "name": "timestamp",
          "type": "uint256"
        }
      ],
      "name": "LargeMovement",
      "type": "event"
    },
    {
      "anonymous": false,
      "inputs": [
        {
          "indexed": true,
          "internalType": "address",
          "name": "previousOwner",
          "type": "address"
        },
        {
          "indexed": true,
          "internalType": "address",
          "name": "newOwner",
          "type": "address"
        }
      ],
      "name": "OwnershipTransferred",
      "type": "event"
    },
    {
      "anonymous": false,
      "inputs": [
        {
          "indexed": true,
          "internalType": "address",
          "name": "user",
          "type": "address"
        },
        {
          "indexed": false,
          "internalType": "uint256",
          "name": "amount",
          "type": "uint256"
        },
        {
          "indexed": false,
          "internalType": "uint256",
          "name": "remainingBalance",
          "type": "uint256"
        },
        {
          "indexed": false,
          "internalType": "uint256",
          "name": "timestamp",
          "type": "uint256"
        }
      ],
      "name": "Withdrawal",
      "type": "event"
    },
    {
      "inputs": [
        {
          "internalType": "address",
          "name": "",
          "type": "address"
        }
      ],
      "name": "balances",
      "outputs": [
        {
          "internalType": "uint256",
          "name": "",
          "type": "uint256"
        }
      ],
      "stateMutability": "view",
      "type": "function"
    },
    {
      "inputs": [
        {
          "internalType": "uint256",
          "name": "amount",
          "type": "uint256"
        }
      ],
      "name": "deposit",
      "outputs": [],
      "stateMutability": "nonpayable",
      "type": "function"
    },
    {
      "inputs": [],
      "name": "getVaultStats",
      "outputs": [
        {
          "internalType": "uint256",
          "name": "_totalDeposits",
          "type": "uint256"
        },
        {
          "internalType": "uint256",
          "name": "_totalWithdrawals",
          "type": "uint256"
        },
        {
          "internalType": "uint256",
          "name": "_vaultBalance",
          "type": "uint256"
        },
        {
          "internalType": "bool",
          "name": "_paused",
          "type": "bool"
        }
      ],
      "stateMutability": "view",
      "type": "function"
    },
    {
      "inputs": [
        {
          "internalType": "address",
          "name": "to",
          "type": "address"
        },
        {
          "internalType": "uint256",
          "name": "amount",
          "type": "uint256"
        }
      ],
      "name": "internalTransfer",
      "outputs": [],
      "stateMutability": "nonpayable",
      "type": "function"
    },
    {
      "inputs": [],
      "name": "owner",
      "outputs": [
        {
          "internalType": "address",
          "name": "",
          "type": "address"
        }
      ],
      "stateMutability": "view",
      "type": "function"
    },
    {
      "inputs": [],
      "name": "pause",
      "outputs": [],
      "stateMutability": "nonpayable",
      "type": "function"
    },
    {
      "inputs": [],
      "name": "paused",
      "outputs": [
        {
          "internalType": "bool",
          "name": "",
          "type": "bool"
        }
      ],
      "stateMutability": "view",
      "type": "function"
    },
    {
      "inputs": [],
      "name": "renounceOwnership",
      "outputs": [],
      "stateMutability": "nonpayable",
      "type": "function"
    },
    {
      "inputs": [],
      "name": "token",
      "outputs": [
        {
          "internalType": "contract IERC20",
          "name": "",
          "type": "address"
        }
      ],
      "stateMutability": "view",
      "type": "function"
    },
    {
      "inputs": [],
      "name": "totalDeposits",
      "outputs": [
        {
          "internalType": "uint256",
          "name": "",
          "type": "uint256"
        }
      ],
      "stateMutability": "view",
      "type": "function"
    },
    {
      "inputs": [],
      "name": "totalWithdrawals",
      "outputs": [
        {
          "internalType": "uint256",
          "name": "",
          "type": "uint256"
        }
      ],
      "stateMutability": "view",
      "type": "function"
    },
    {
      "inputs": [
        {
          "internalType": "address",
          "name": "newOwner",
          "type": "address"
        }
      ],
      "name": "transferOwnership",
      "outputs": [],
      "stateMutability": "nonpayable",
      "type": "function"
    },
    {
      "inputs": [],
      "name": "unpause",
      "outputs": [],
      "stateMutability": "nonpayable",
      "type": "function"
    },
    {
      "inputs": [
        {
          "internalType": "uint256",
          "name": "amount",
          "type": "uint256"
        }
      ],
      "name": "withdraw",
      "outputs": [],
      "stateMutability": "nonpayable",
      "type": "function"
    }
  ],
  "bytecode": "0x60a060405234801561001057600080fd5b50604051610d6d380380610d6d83398101604081905261002f916100c4565b338061005557604051631e4fbdf760e01b81526000600482015260240160405180910390fd5b61005e81610074565b50600180556001600160a01b03166080526100f4565b600080546001600160a01b038381166001600160a01b0319831681178455604051919092169283917f8be0079c531659141344cd1fd0a4f28419497f9722a3daafe3b4186f6b6457e09190a35050565b6000602082840312156100d657600080fd5b81516001600160a01b03811681146100ed57600080fd5b9392505050565b608051610c496101246000396000818161020b01528181610350015281816106f901526107f60152610c496000f3fe608060405234801561001057600080fd5b50600436106100ea5760003560e01c80637d8820971161008c578063a59aa5a611610066578063a59aa5a6146101b6578063b6b55f25146101e0578063f2fde38b146101f3578063fc0c546a1461020657600080fd5b80637d882097146101805780638456cb59146101895780638da5cb5b1461019157600080fd5b80633f4ba83a116100c85780633f4ba83a1461014a5780635c975abb14610152578063604646271461016f578063715018a61461017857600080fd5b806327e235e3146100ef5780632e1a7d4d146101225780633e7ba16614610137575b600080fd5b61010f6100fd366004610b2c565b60026020526000908152604090205481565b6040519081526020015b60405180910390f35b610135610130366004610b4e565b61022d565b005b610135610145366004610b67565b61044a565b6101356105e4565b60055461015f9060ff1681565b6040519015158152602001610119565b61010f60045481565b61013561064f565b61010f60035481565b610135610663565b6000546001600160a01b03165b6040516001600160a01b039091168152602001610119565b6101be6106c9565b6040805194855260208501939093529183015215156060820152608001610119565b6101356101ee366004610b4e565b610779565b610135610201366004610b2c565b61091a565b61019e7f000000000000000000000000000000000000000000000000000000000000000081565b610235610955565b60055460ff16156102615760405162461bcd60e51b815260040161025890610b91565b60405180910390fd5b600081116102a65760405162461bcd60e51b815260206004820152601260248201527115985d5b1d0e881e995c9bc8185b5bdd5b9d60721b6044820152606401610258565b336000908152600260205260409020548111156103055760405162461bcd60e51b815260206004820152601b60248201527f5661756c743a20696e73756666696369656e742062616c616e636500000000006044820152606401610258565b3360009081526002602052604081208054839290610324908490610bce565b92505081905550806004600082825461033d9190610be7565b9091555061037790506001600160a01b037f000000000000000000000000000000000000000000000000000000000000000016338361097f565b3360008181526002602090815260409182902054825185815291820152428183015290517f650fdf669e93aa6c8ff3defe2da9c12b64f1548e5e1e54e803f4c1beb6466c8e9181900360600190a264174876e800811061043e57604080516080808252600a90820152691dda5d1a191c985dd85b60b21b60a08201526020810183905264174876e8009181019190915242606082015233907ff2eadd2bed0f82cdb9a027f8d37333cc0c6d4158c9bcda8375da17a907fdae439060c0015b60405180910390a25b61044760018055565b50565b610452610955565b60055460ff16156104755760405162461bcd60e51b815260040161025890610b91565b6001600160a01b0382161580159061049657506001600160a01b0382163314155b6104e25760405162461bcd60e51b815260206004820152601860248201527f5661756c743a20696e76616c696420726563697069656e7400000000000000006044820152606401610258565b336000908152600260205260409020548111156105415760405162461bcd60e51b815260206004820152601b60248201527f5661756c743a20696e73756666696369656e742062616c616e636500000000006044820152606401610258565b3360009081526002602052604081208054839290610560908490610bce565b90915550506001600160a01b0382166000908152600260205260408120805483929061058d908490610be7565b9091555050604080518281524260208201526001600160a01b0384169133917f5c2c89fc62ce088ef60a7bdf15c522d341e775cf0dec28ff50f957be064498b2910160405180910390a36105e060018055565b5050565b6105ec6109e3565b6005805460ff1916905560408051818152600891810191909152671d5b9c185d5cd95960c21b606082015242602082015233907f6758593a60801a617f0db7ba7baa12f6c9e46bafd2d55b3dad6b807d1c215a9c906080015b60405180910390a2565b6106576109e3565b6106616000610a10565b565b61066b6109e3565b6005805460ff1916600117905560408051818152600691810191909152651c185d5cd95960d21b606082015242602082015233907f6758593a60801a617f0db7ba7baa12f6c9e46bafd2d55b3dad6b807d1c215a9c90608001610645565b600354600480546040516370a0823160e01b81523092810192909252600092839283928392916001600160a01b037f000000000000000000000000000000000000000000000000000000000000000016906370a0823190602401602060405180830381865afa158015610740573d6000803e3d6000fd5b505050506040513d601f19601f820116820180604052508101906107649190610bfa565b6005549297919650945060ff90911692509050565b610781610955565b60055460ff16156107a45760405162461bcd60e51b815260040161025890610b91565b600081116107e95760405162461bcd60e51b815260206004820152601260248201527115985d5b1d0e881e995c9bc8185b5bdd5b9d60721b6044820152606401610258565b61081e6001600160a01b037f000000000000000000000000000000000000000000000000000000000000000016333084610a60565b336000908152600260205260408120805483929061083d908490610be7565b9250508190555080600360008282546108569190610be7565b90915550503360008181526002602090815260409182902054825185815291820152428183015290517f36af321ec8d3c75236829c5317affd40ddb308863a1236d2d277a4025cccee1e9181900360600190a264174876e800811061043e576040805160808082526007908201526619195c1bdcda5d60ca1b60a08201526020810183905264174876e8009181019190915242606082015233907ff2eadd2bed0f82cdb9a027f8d37333cc0c6d4158c9bcda8375da17a907fdae439060c001610435565b6109226109e3565b6001600160a01b03811661094c57604051631e4fbdf760e01b815260006004820152602401610258565b61044781610a10565b60026001540361097857604051633ee5aeb560e01b815260040160405180910390fd5b6002600155565b6040516001600160a01b038381166024830152604482018390526109de91859182169063a9059cbb906064015b604051602081830303815290604052915060e01b6020820180516001600160e01b038381831617835250505050610a9f565b505050565b6000546001600160a01b031633146106615760405163118cdaa760e01b8152336004820152602401610258565b600080546001600160a01b038381166001600160a01b0319831681178455604051919092169283917f8be0079c531659141344cd1fd0a4f28419497f9722a3daafe3b4186f6b6457e09190a35050565b6040516001600160a01b038481166024830152838116604483015260648201839052610a999186918216906323b872dd906084016109ac565b50505050565b600080602060008451602086016000885af180610ac2576040513d6000823e3d81fd5b50506000513d91508115610ada578060011415610ae7565b6001600160a01b0384163b155b15610a9957604051635274afe760e01b81526001600160a01b0385166004820152602401610258565b80356001600160a01b0381168114610b2757600080fd5b919050565b600060208284031215610b3e57600080fd5b610b4782610b10565b9392505050565b600060208284031215610b6057600080fd5b5035919050565b60008060408385031215610b7a57600080fd5b610b8383610b10565b946020939093013593505050565b6020808252600d908201526c15985d5b1d0e881c185d5cd959609a1b604082015260600190565b634e487b7160e01b600052601160045260246000fd5b81810381811115610be157610be1610bb8565b92915050565b80820180821115610be157610be1610bb8565b600060208284031215610c0c57600080fd5b505191905056fea26469706673582212206623ce9fc873d2b5e3a435cbe5116adea3c4783d883cf5c52dcbe00ea1c1dec364736f6c63430008180033",
  "linkReferences": {},
  "deployedLinkReferences": {}
}