{
  "_format": "hh-sol-artifact-1",
  "contractName": "GenesisLiquidityPool",
  "sourceName": "contracts/GenesisLiquidityPool.sol",
  "abi": [
    {
      "inputs": [
        {
          "internalType": "address",
          "name": "_tokenA",
          "type": "address"
        },
        {
          "internalType": "address",
          "name": "_tokenB",
          "type": "address"
        },
        {
          "internalType": "string",
          "name": "_poolName",
          "type": "string"
        }
      ],
      "stateMutability": "nonpayable",
      "type": "constructor"
    },
    {
      "inputs": [
        {
          "internalType": "address",
          "name": "owner",
          "type": "address"
        }
      ],
      "name": "OwnableInvalidOwner",
      "type": "error"
    },
    {
      "inputs": [
        {
          "internalType": "address",
          "name": "account",
          "type": "address"
        }
      ],
      "name": "OwnableUnauthorizedAccount",
      "type": "error"
    },
    {
      "inputs": [],
      "name": "ReentrancyGuardReentrantCall",
      "type": "error"
    },
    {
      "inputs": [
        {
          "internalType": "address",
          "name": "token",
          "type": "address"
        }
      ],
      "name": "SafeERC20FailedOperation",
      "type": "error"
    },
    {
      "anonymous": false,
      "inputs": [
        {
          "indexed": true,
          "internalType": "address",
          "name": "trader",
          "type": "address"
        },
        {
          "indexed": false,
          "internalType": "uint256",
          "name": "amountIn",
          "type": "uint256"
        },
        {
          "indexed": false,
          "internalType": "uint256",
          "name": "amountOut",
          "type": "uint256"
        },
        {
          "indexed": false,
          "internalType": "uint256",
          "name": "priceImpactBps",
          "type": "uint256"
        },
        {
          "indexed": false,
          "internalType": "uint256",
          "name": "timestamp",
          "type": "uint256"
        }
      ],
      "name": "LargeSwapDetected",
      "type": "event"
    },
    {
      "anonymous": false,
      "inputs": [
        {
          "indexed": true,
          "internalType": "address",
          "name": "provider",
          "type": "address"
        },
        {
          "indexed": false,
          "internalType": "uint256",
          "name": "amountA",
          "type": "uint256"
        },
        {
          "indexed": false,
          "internalType": "uint256",
          "name": "amountB",
          "type": "uint256"
        },
        {
          "indexed": false,
          "internalType": "uint256",
          "name": "lpSharesMinted",
          "type": "uint256"
        },
        {
          "indexed": false,
          "internalType": "uint256",
          "name": "newReserveA",
          "type": "uint256"
        },
        {
          "indexed": false,
          "internalType": "uint256",
          "name": "newReserveB",
          "type": "uint256"
        },
        {
          "indexed": false,
          "internalType": "uint256",
          "name": "timestamp",
          "type": "uint256"
        }
      ],
      "name": "LiquidityAdded",
      "type": "event"
    },
    {
      "anonymous": false,
      "inputs": [
        {
          "indexed": true,
          "internalType": "address",
          "name": "provider",
          "type": "address"
        },
        {
          "indexed": false,
          "internalType": "uint256",
          "name": "amountA",
          "type": "uint256"
        },
        {
          "indexed": false,
          "internalType": "uint256",
          "name": "amountB",
          "type": "uint256"
        },
        {
          "indexed": false,
          "internalType": "uint256",
          "name": "lpSharesBurned",
          "type": "uint256"
        },
        {
          "indexed": false,
          "internalType": "uint256",
          "name": "newReserveA",
          "type": "uint256"
        },
        {
          "indexed": false,
          "internalType": "uint256",
          "name": "newReserveB",
          "type": "uint256"
        },
        {
          "indexed": false,
          "internalType": "uint256",
          "name": "timestamp",
          "type": "uint256"
        }
      ],
      "name": "LiquidityRemoved",
      "type": "event"
    },
    {
      "anonymous": false,
      "inputs": [
        {
          "indexed": true,
          "internalType": "address",
          "name": "previousOwner",
          "type": "address"
        },
        {
          "indexed": true,
          "internalType": "address",
          "name": "newOwner",
          "type": "address"
        }
      ],
      "name": "OwnershipTransferred",
      "type": "event"
    },
    {
      "anonymous": false,
      "inputs": [
        {
          "indexed": true,
          "internalType": "address",
          "name": "triggeredBy",
          "type": "address"
        },
        {
          "indexed": false,
          "internalType": "uint256",
          "name": "oldReserveA",
          "type": "uint256"
        },
        {
          "indexed": false,
          "internalType": "uint256",
          "name": "oldReserveB",
          "type": "uint256"
        },
        {
          "indexed": false,
          "internalType": "uint256",
          "name": "newReserveA",
          "type": "uint256"
        },
        {
          "indexed": false,
          "internalType": "uint256",
          "name": "newReserveB",
          "type": "uint256"
        },
        {
          "indexed": false,
          "internalType": "string",
          "name": "reason",
          "type": "string"
        },
        {
          "indexed": false,
          "internalType": "uint256",
          "name": "timestamp",
          "type": "uint256"
        }
      ],
      "name": "PoolRebalanced",
      "type": "event"
    },
    {
      "anonymous": false,
      "inputs": [
        {
          "indexed": true,
          "internalType": "address",
          "name": "trader",
          "type": "address"
        },
        {
          "indexed": false,
          "internalType": "address",
          "name": "tokenIn",
          "type": "address"
        },
        {
          "indexed": false,
          "internalType": "address",
          "name": "tokenOut",
          "type": "address"
        },
        {
          "indexed": false,
          "internalType": "uint256",
          "name": "amountIn",
          "type": "uint256"
        },
        {
          "indexed": false,
          "internalType": "uint256",
          "name": "amountOut",
          "type": "uint256"
        },
        {
          "indexed": false,
          "internalType": "uint256",
          "name": "fee",
          "type": "uint256"
        },
        {
          "indexed": false,
          "internalType": "uint256",
          "name": "newReserveA",
          "type": "uint256"
        },
        {
          "indexed": false,
          "internalType": "uint256",
          "name": "newReserveB",
          "type": "uint256"
        },
        {
          "indexed": false,
          "internalType": "uint256",
          "name": "timestamp",
          "type": "uint256"
        }
      ],
      "name": "Swap",
      "type": "event"
    },
    {
      "inputs": [
        {
          "internalType": "uint256",
          "name": "amountA",
          "type": "uint256"
        },
        {
          "internalType": "uint256",
          "name": "amountB",
          "type": "uint256"
        }
      ],
      "name": "addLiquidity",
      "outputs": [
        {
          "internalType": "uint256",
          "name": "shares",
          "type": "uint256"
        }
      ],
      "stateMutability": "nonpayable",
      "type": "function"
    },
    {
      "inputs": [
        {
          "internalType": "address",
          "name": "user",
          "type": "address"
        }
      ],
      "name": "getLPBalance",
      "outputs": [
        {
          "internalType": "uint256",
          "name": "",
          "type": "uint256"
        }
      ],
      "stateMutability": "view",
      "type": "function"
    },
    {
      "inputs": [],
      "name": "getPoolStats",
      "outputs": [
        {
          "internalType": "uint256",
          "name": "_reserveA",
          "type": "uint256"
        },
        {
          "internalType": "uint256",
          "name": "_reserveB",
          "type": "uint256"
        },
        {
          "internalType": "uint256",
          "name": "_totalLPShares",
          "type": "uint256"
        },
        {
          "internalType": "uint256",
          "name": "_totalSwaps",
          "type": "uint256"
        },
        {
          "internalType": "uint256",
          "name": "_feesA",
          "type": "uint256"
        },
        {
          "internalType": "uint256",
          "name": "_feesB",
          "type": "uint256"
        }
      ],
      "stateMutability": "view",
      "type": "function"
    },
    {
      "inputs": [],
      "name": "getReserves",
      "outputs": [
        {
          "internalType": "uint256",
          "name": "",
          "type": "uint256"
        },
        {
          "internalType": "uint256",
          "name": "",
          "type": "uint256"
        }
      ],
      "stateMutability": "view",
      "type": "function"
    },
    {
      "inputs": [
        {
          "internalType": "address",
          "name": "tokenIn",
          "type": "address"
        },
        {
          "internalType": "uint256",
          "name": "amountIn",
          "type": "uint256"
        }
      ],
      "name": "getSwapQuote",
      "outputs": [
        {
          "internalType": "uint256",
          "name": "amountOut",
          "type": "uint256"
        },
        {
          "internalType": "uint256",
          "name": "fee",
          "type": "uint256"
        }
      ],
      "stateMutability": "view",
      "type": "function"
    },
    {
      "inputs": [
        {
          "internalType": "address",
          "name": "",
          "type": "address"
        }
      ],
      "name": "lpShares",
      "outputs": [
        {
          "internalType": "uint256",
          "name": "",
          "type": "uint256"
        }
      ],
      "stateMutability": "view",
      "type": "function"
    },
    {
      "inputs": [],
      "name": "owner",
      "outputs": [
        {
          "internalType": "address",
          "name": "",
          "type": "address"
        }
      ],
      "stateMutability": "view",
      "type": "function"
    },
    {
      "inputs": [],
      "name": "poolName",
      "outputs": [
        {
          "internalType": "string",
          "name": "",
          "type": "string"
        }
      ],
      "stateMutability": "view",
      "type": "function"
    },
    {
      "inputs": [
        {
          "internalType": "uint256",
          "name": "addA",
          "type": "uint256"
        },
        {
          "internalType": "uint256",
          "name": "addB",
          "type": "uint256"
        },
        {
          "internalType": "string",
          "name": "reason",
          "type": "string"
        }
      ],
      "name": "rebalance",
      "outputs": [],
      "stateMutability": "nonpayable",
      "type": "function"
    },
    {
      "inputs": [
        {
          "internalType": "uint256",
          "name": "sharesToBurn",
          "type": "uint256"
        }
      ],
      "name": "removeLiquidity",
      "outputs": [
        {
          "internalType": "uint256",
          "name": "amountA",
          "type": "uint256"
        },
        {
          "internalType": "uint256",
          "name": "amountB",
          "type": "uint256"
        }
      ],
      "stateMutability": "nonpayable",
      "type": "function"
    },
    {
      "inputs": [],
      "name": "renounceOwnership",
      "outputs": [],
      "stateMutability": "nonpayable",
      "type": "function"
    },
    {
      "inputs": [],
      "name": "reserveA",
      "outputs": [
        {
          "internalType": "uint256",
          "name": "",
          "type": "uint256"
        }
      ],
      "stateMutability": "view",
      "type": "function"
    },
    {
      "inputs": [],
      "name": "reserveB",
      "outputs": [
        {
          "internalType": "uint256",
          "name": "",
          "type": "uint256"
        }
      ],
      "stateMutability": "view",
      "type": "function"
    },
    {
      "inputs": [
        {
          "internalType": "address",
          "name": "tokenIn",
          "type": "address"
        },
        {
          "internalType": "uint256",
          "name": "amountIn",
          "type": "uint256"
        }
      ],
      "name": "swap",
      "outputs": [
        {
          "internalType": "uint256",
          "name": "amountOut",
          "type": "uint256"
        }
      ],
      "stateMutability": "nonpayable",
      "type": "function"
    },
    {
      "inputs": [],
      "name": "swapFeeDenominator",
      "outputs": [
        {
          "internalType": "uint256",
          "name": "",
          "type": "uint256"
        }
      ],
      "stateMutability": "view",
      "type": "function"
    },
    {
      "inputs": [],
      "name": "swapFeeNumerator",
      "outputs": [
        {
          "internalType": "uint256",
          "name": "",
          "type": "uint256"
        }
      ],
      "stateMutability": "view",
      "type": "function"
    },
    {
      "inputs": [],
      "name": "tokenA",
      "outputs": [
        {
          "internalType": "contract IERC20",
          "name": "",
          "type": "address"
        }
      ],
      "stateMutability": "view",
      "type": "function"
    },
    {
      "inputs": [],
      "name": "tokenB",
      "outputs": [
        {
          "internalType": "contract IERC20",
          "name": "",
          "type": "address"
        }
      ],
      "stateMutability": "view",
      "type": "function"
    },
    {
      "inputs": [],
      "name": "totalFeesCollectedA",
      "outputs": [
        {
          "internalType": "uint256",
          "name": "",
          "type": "uint256"
        }
      ],
      "stateMutability": "view",
      "type": "function"
    },
    {
      "inputs": [],
      "name": "totalFeesCollectedB",
      "outputs": [
        {
          "internalType": "uint256",
          "name": "",
          "type": "uint256"
        }
      ],
      "stateMutability": "view",
      "type": "function"
    },
    {
      "inputs": [],
      "name": "totalLPShares",
      "outputs": [
        {
          "internalType": "uint256",
          "name": "",
          "type": "uint256"
        }
      ],
      "stateMutability": "view",
      "type": "function"
    },
    {
      "inputs": [],
      "name": "totalLiquidityAdded",
      "outputs": [
        {
          "internalType": "uint256",
          "name": "",
          "type": "uint256"
        }
      ],
      "stateMutability": "view",
      "type": "function"
    },
    {
      "inputs": [],
      "name": "totalLiquidityRemoved",
      "outputs": [
        {
          "internalType": "uint256",
          "name": "",
          "type": "uint256"
        }
      ],
      "stateMutability": "view",
      "type": "function"
    },
    {
      "inputs": [],
      "name": "totalSwaps",
      "outputs": [
        {
          "internalType": "uint256",
          "name": "",
          "type": "uint256"
        }
      ],
      "stateMutability": "view",
      "type": "function"
    },
    {
      "inputs": [
        {
          "internalType": "address",
          "name": "newOwner",
          "type": "address"
        }
      ],
      "name": "transferOwnership",
      "outputs": [],
      "stateMutability": "nonpayable",
      "type": "function"
    }
  ],
  "bytecode": "0x608060405260036009556103e8600a553480156200001c57600080fd5b5060405162001897380380620018978339810160408190526200003f91620001fa565b33806200006757604051631e4fbdf760e01b8152600060048201526024015b60405180910390fd5b620000728162000177565b50600180556001600160a01b038316158015906200009857506001600160a01b03821615155b620000d85760405162461bcd60e51b815260206004820152600f60248201526e2837b7b61d103d32b9379030b2323960891b60448201526064016200005e565b816001600160a01b0316836001600160a01b0316036200012f5760405162461bcd60e51b8152602060048201526011602482015270506f6f6c3a2073616d6520746f6b656e7360781b60448201526064016200005e565b600280546001600160a01b038086166001600160a01b031992831617909255600380549285169290911691909117905560046200016d828262000385565b5050505062000451565b600080546001600160a01b038381166001600160a01b0319831681178455604051919092169283917f8be0079c531659141344cd1fd0a4f28419497f9722a3daafe3b4186f6b6457e09190a35050565b80516001600160a01b0381168114620001df57600080fd5b919050565b634e487b7160e01b600052604160045260246000fd5b6000806000606084860312156200021057600080fd5b6200021b84620001c7565b925060206200022c818601620001c7565b60408601519093506001600160401b03808211156200024a57600080fd5b818701915087601f8301126200025f57600080fd5b815181811115620002745762000274620001e4565b604051601f8201601f19908116603f011681019083821181831017156200029f576200029f620001e4565b816040528281528a86848701011115620002b857600080fd5b600093505b82841015620002dc5784840186015181850187015292850192620002bd565b60008684830101528096505050505050509250925092565b600181811c908216806200030957607f821691505b6020821081036200032a57634e487b7160e01b600052602260045260246000fd5b50919050565b601f82111562000380576000816000526020600020601f850160051c810160208610156200035b5750805b601f850160051c820191505b818110156200037c5782815560010162000367565b5050505b505050565b81516001600160401b03811115620003a157620003a1620001e4565b620003b981620003b28454620002f4565b8462000330565b602080601f831160018114620003f15760008415620003d85750858301515b600019600386901b1c1916600185901b1785556200037c565b600085815260208120601f198616915b82811015620004225788860151825594840194600190910190840162000401565b5085821015620004415787850151600019600388901b60f8161c191681555b5050505050600190811b01905550565b61143680620004616000396000f3fe608060405234801561001057600080fd5b50600436106101735760003560e01c8063b492fc69116100de578063d2258beb11610097578063dce06be811610071578063dce06be81461032f578063f2fde38b14610338578063f3466dfa1461034b578063fef462241461036057600080fd5b8063d2258beb146102f4578063d789760e1461031d578063dc5fa6c51461032657600080fd5b8063b492fc691461025d578063b4a800ce14610270578063b4b01d8f14610279578063bbb8518814610282578063c109a6dc146102c1578063d004f0f7146102e157600080fd5b80635f64b55b116101305780635f64b55b14610202578063715018a6146102155780638da5cb5b1461021d578063985c1a011461022e5780639c8f9f23146102375780639cd441da1461024a57600080fd5b80630902f1ac146101785780630fc63d1014610199578063107fbd42146101c457806319e36f3b146101db57806335d17e97146101e457806343b63b9d146101f9575b600080fd5b6005546006545b604080519283526020830191909152015b60405180910390f35b6002546101ac906001600160a01b031681565b6040516001600160a01b039091168152602001610190565b6101cd600a5481565b604051908152602001610190565b6101cd60065481565b6101f76101f2366004611177565b610369565b005b6101cd600e5481565b6003546101ac906001600160a01b031681565b6101f761043c565b6000546001600160a01b03166101ac565b6101cd600d5481565b61017f6102453660046111f7565b610450565b6101cd610258366004611210565b6106b8565b61017f61026b36600461124e565b6108f7565b6101cd600b5481565b6101cd600f5481565b600554600654600754600b54600c54600d54604080519687526020870195909552938501929092526060840152608083015260a082015260c001610190565b6101cd6102cf366004611278565b60086020526000908152604090205481565b6101cd6102ef36600461124e565b6109ee565b6101cd610302366004611278565b6001600160a01b031660009081526008602052604090205490565b6101cd60075481565b6101cd60055481565b6101cd600c5481565b6101f7610346366004611278565b610e86565b610353610ec4565b604051610190919061129a565b6101cd60095481565b610371610f52565b60055460065485156103ad57600254610395906001600160a01b0316333089610f7f565b85600560008282546103a791906112ff565b90915550505b84156103e3576003546103cb906001600160a01b0316333088610f7f565b84600660008282546103dd91906112ff565b90915550505b336001600160a01b03167f12792ca3bd5123a2dd39823ef3a420666d360378e5a33bd7d73765763f0c060b838360055460065489894260405161042c9796959493929190611312565b60405180910390a2505050505050565b610444610f52565b61044e6000610fec565b565b60008061045b61103c565b600083116104a45760405162461bcd60e51b8152602060048201526011602482015270506f6f6c3a207a65726f2073686172657360781b60448201526064015b60405180910390fd5b336000908152600860205260409020548311156105035760405162461bcd60e51b815260206004820152601960248201527f506f6f6c3a20696e73756666696369656e742073686172657300000000000000604482015260640161049b565b6007546005546105139085611367565b61051d919061137e565b9150600754600654846105309190611367565b61053a919061137e565b905060008211801561054c5750600081115b6105905760405162461bcd60e51b8152602060048201526015602482015274141bdbdb0e881e995c9bc81dda5d1a191c985dd85b605a1b604482015260640161049b565b33600090815260086020526040812080548592906105af9084906113a0565b9250508190555082600760008282546105c891906113a0565b9250508190555081600560008282546105e191906113a0565b9250508190555080600660008282546105fa91906113a0565b9091555061060a905081836112ff565b600f600082825461061b91906112ff565b9091555050600254610637906001600160a01b03163384611066565b60035461064e906001600160a01b03163383611066565b6005546006546040805185815260208101859052908101869052606081019290925260808201524260a082015233907f16db8cd72937fc971d5ff44547c6a645bfee7a7537d2a2eacd0b7d919ecfbf0f9060c00160405180910390a26106b360018055565b915091565b60006106c261103c565b6000831180156106d25750600082115b6107135760405162461bcd60e51b8152602060048201526012602482015271506f6f6c3a207a65726f20616d6f756e747360701b604482015260640161049b565b60025461072b906001600160a01b0316333086610f7f565b600354610743906001600160a01b0316333085610f7f565b6007546000036107665761075f61075a8385611367565b61109c565b90506107b8565b6000600554600754856107799190611367565b610783919061137e565b90506000600654600754856107989190611367565b6107a2919061137e565b90508082106107b157806107b3565b815b925050505b600081116107fc5760405162461bcd60e51b8152602060048201526011602482015270506f6f6c3a207a65726f2073686172657360781b604482015260640161049b565b336000908152600860205260408120805483929061081b9084906112ff565b92505081905550806007600082825461083491906112ff565b92505081905550826005600082825461084d91906112ff565b92505081905550816006600082825461086691906112ff565b90915550610876905082846112ff565b600e600082825461088791906112ff565b90915550506005546006546040805186815260208101869052908101849052606081019290925260808201524260a082015233907fc7453e3ef562c31977302710e5ff58ae67ad8fa521dcdd8c76f877c4c0d913689060c00160405180910390a26108f160018055565b92915050565b600080600060055411801561090e57506000600654115b61094f5760405162461bcd60e51b8152602060048201526012602482015271506f6f6c3a206e6f206c697175696469747960701b604482015260640161049b565b600a5460095461095f9085611367565b610969919061137e565b9050600061097782856113a0565b6002549091506001600160a01b0386811691161480156109bd578160055461099f91906112ff565b6006546109ac9084611367565b6109b6919061137e565b93506109e5565b816006546109cb91906112ff565b6005546109d89084611367565b6109e2919061137e565b93505b50509250929050565b60006109f861103c565b60008211610a3b5760405162461bcd60e51b815260206004820152601060248201526f141bdbdb0e881e995c9bc81a5b9c1d5d60821b604482015260640161049b565b6002546001600160a01b0384811691161480610a6457506003546001600160a01b038481169116145b610aa65760405162461bcd60e51b81526020600482015260136024820152722837b7b61d1034b73b30b634b2103a37b5b2b760691b604482015260640161049b565b6000600554118015610aba57506000600654115b610afb5760405162461bcd60e51b8152602060048201526012602482015271506f6f6c3a206e6f206c697175696469747960701b604482015260640161049b565b600254600a546009546001600160a01b038681169316929092149160009190610b249086611367565b610b2e919061137e565b90506000610b3c82866113a0565b90508215610c3f5780600554610b5291906112ff565b600654610b5f9083611367565b610b69919061137e565b9350600084118015610b7c575060065484105b610bc15760405162461bcd60e51b8152602060048201526016602482015275141bdbdb0e881a5b9cdd59999a58da595b9d081bdd5d60521b604482015260640161049b565b600254610bd9906001600160a01b0316333088610f7f565b600354610bf0906001600160a01b03163386611066565b8460056000828254610c0291906112ff565b925050819055508360066000828254610c1b91906113a0565b9250508190555081600c6000828254610c3491906112ff565b90915550610d359050565b80600654610c4d91906112ff565b600554610c5a9083611367565b610c64919061137e565b9350600084118015610c77575060055484105b610cbc5760405162461bcd60e51b8152602060048201526016602482015275141bdbdb0e881a5b9cdd59999a58da595b9d081bdd5d60521b604482015260640161049b565b600354610cd4906001600160a01b0316333088610f7f565b600254610ceb906001600160a01b03163386611066565b8460066000828254610cfd91906112ff565b925050819055508360056000828254610d1691906113a0565b9250508190555081600d6000828254610d2f91906112ff565b90915550505b600b8054906000610d45836113b3565b909155503390507f64bd4ed19c2f6f7990b182aeaa7f87f1578355403b7034b18cbdb864a4c355348785610d84576002546001600160a01b0316610d91565b6003546001600160a01b03165b600554600654604080516001600160a01b0395861681529490931660208501529183018a9052606083018990526080830187905260a083015260c08201524260e08201526101000160405180910390a2600083610df057600654610df4565b6005545b9050610e01816005611367565b610e0c876064611367565b1115610e7957600081610e2188612710611367565b610e2b919061137e565b604080518981526020810189905290810182905242606082015290915033907f09aa373adc9aae17a5284eae88a3223000ef0b6709ad05519ca78b2144487d6b9060800160405180910390a2505b505050506108f160018055565b610e8e610f52565b6001600160a01b038116610eb857604051631e4fbdf760e01b81526000600482015260240161049b565b610ec181610fec565b50565b60048054610ed1906113cc565b80601f0160208091040260200160405190810160405280929190818152602001828054610efd906113cc565b8015610f4a5780601f10610f1f57610100808354040283529160200191610f4a565b820191906000526020600020905b815481529060010190602001808311610f2d57829003601f168201915b505050505081565b6000546001600160a01b0316331461044e5760405163118cdaa760e01b815233600482015260240161049b565b6040516001600160a01b038481166024830152838116604483015260648201839052610fe69186918216906323b872dd906084015b604051602081830303815290604052915060e01b6020820180516001600160e01b038381831617835250505050611106565b50505050565b600080546001600160a01b038381166001600160a01b0319831681178455604051919092169283917f8be0079c531659141344cd1fd0a4f28419497f9722a3daafe3b4186f6b6457e09190a35050565b60026001540361105f57604051633ee5aeb560e01b815260040160405180910390fd5b6002600155565b6040516001600160a01b0383811660248301526044820183905261109791859182169063a9059cbb90606401610fb4565b505050565b6000816000036110ae57506000919050565b600060026110bd8460016112ff565b6110c7919061137e565b90508291505b81811015611100579050806002816110e5818661137e565b6110ef91906112ff565b6110f9919061137e565b90506110cd565b50919050565b600080602060008451602086016000885af180611129576040513d6000823e3d81fd5b50506000513d9150811561114157806001141561114e565b6001600160a01b0384163b155b15610fe657604051635274afe760e01b81526001600160a01b038516600482015260240161049b565b6000806000806060858703121561118d57600080fd5b8435935060208501359250604085013567ffffffffffffffff808211156111b357600080fd5b818701915087601f8301126111c757600080fd5b8135818111156111d657600080fd5b8860208285010111156111e857600080fd5b95989497505060200194505050565b60006020828403121561120957600080fd5b5035919050565b6000806040838503121561122357600080fd5b50508035926020909101359150565b80356001600160a01b038116811461124957600080fd5b919050565b6000806040838503121561126157600080fd5b61126a83611232565b946020939093013593505050565b60006020828403121561128a57600080fd5b61129382611232565b9392505050565b60006020808352835180602085015260005b818110156112c8578581018301518582016040015282016112ac565b506000604082860101526040601f19601f8301168501019250505092915050565b634e487b7160e01b600052601160045260246000fd5b808201808211156108f1576108f16112e9565b87815286602082015285604082015284606082015260c060808201528260c0820152828460e0830137600060e08483010152600060e0601f19601f86011683010190508260a083015298975050505050505050565b80820281158282048414176108f1576108f16112e9565b60008261139b57634e487b7160e01b600052601260045260246000fd5b500490565b818103818111156108f1576108f16112e9565b6000600182016113c5576113c56112e9565b5060010190565b600181811c908216806113e057607f821691505b60208210810361110057634e487b7160e01b600052602260045260246000fdfea264697066735822122063b06a3c936f4d17f17e30cf46ecd8a7d2076ddd5c75ae5e83c00a80542bc26b64736f6c63430008180033",
  "linkReferences": {},
  "deployedLinkReferences": {}
}