{
  "_format": "hh-sol-artifact-1",
  "contractName": "AlertRegistry",
  "sourceName": "contracts/AlertRegistry.sol",
  "abi": [
    {
      "inputs": [],
      "stateMutability": "nonpayable",
      "type": "constructor"
    },
    {
      "inputs": [
        {
          "internalType": "address",
          "name": "owner",
          "type": "address"
        }
      ],
      "name": "OwnableInvalidOwner",
      "type": "error"
    },
    {
      "inputs": [
        {
          "internalType": "address",
          "name": "account",
          "type": "address"
        }
      ],
      "name": "OwnableUnauthorizedAccount",
      "type": "error"
    },
    {
      "anonymous": false,
      "inputs": [
        {
          "indexed": true,
          "internalType": "uint256",
          "name": "alertId",
          "type": "uint256"
        },
        {
          "indexed": true,
          "internalType": "address",
          "name": "triggeredBy",
          "type": "address"
        },
        {
          "indexed": true,
          "internalType": "address",
          "name": "token",
          "type": "address"
        },
        {
          "indexed": false,
          "internalType": "uint256",
          "name": "amount",
          "type": "uint256"
        },
        {
          "indexed": false,
          "internalType": "enum AlertRegistry.Severity",
          "name": "severity",
          "type": "uint8"
        },
        {
          "indexed": false,
          "internalType": "string",
          "name": "alertType",
          "type": "string"
        },
        {
          "indexed": false,
          "internalType": "string",
          "name": "summary",
          "type": "string"
        },
        {
          "indexed": false,
          "internalType": "uint256",
          "name": "blockNumber",
          "type": "uint256"
        },
        {
          "indexed": false,
          "internalType": "uint256",
          "name": "timestamp",
          "type": "uint256"
        }
      ],
      "name": "AlertRecorded",
      "type": "event"
    },
    {
      "anonymous": false,
      "inputs": [
        {
          "indexed": true,
          "internalType": "address",
          "name": "previousOwner",
          "type": "address"
        },
        {
          "indexed": true,
          "internalType": "address",
          "name": "newOwner",
          "type": "address"
        }
      ],
      "name": "OwnershipTransferred",
      "type": "event"
    },
    {
      "anonymous": false,
      "inputs": [
        {
          "indexed": true,
          "internalType": "address",
          "name": "recorder",
          "type": "address"
        },
        {
          "indexed": false,
          "internalType": "uint256",
          "name": "timestamp",
          "type": "uint256"
        }
      ],
      "name": "RecorderAuthorised",
      "type": "event"
    },
    {
      "anonymous": false,
      "inputs": [
        {
          "indexed": true,
          "internalType": "address",
          "name": "recorder",
          "type": "address"
        },
        {
          "indexed": false,
          "internalType": "uint256",
          "name": "timestamp",
          "type": "uint256"
        }
      ],
      "name": "RecorderRevoked",
      "type": "event"
    },
    {
      "inputs": [],
      "name": "alertCount",
      "outputs": [
        {
          "internalType": "uint256",
          "name": "",
          "type": "uint256"
        }
      ],
      "stateMutability": "view",
      "type": "function"
    },
    {
      "inputs": [
        {
          "internalType": "uint256",
          "name": "",
          "type": "uint256"
        }
      ],
      "name": "alerts",
      "outputs": [
        {
          "internalType": "uint256",
          "name": "id",
          "type": "uint256"
        },
        {
          "internalType": "address",
          "name": "triggeredBy",
          "type": "address"
        },
        {
          "internalType": "address",
          "name": "token",
          "type": "address"
        },
        {
          "internalType": "uint256",
          "name": "amount",
          "type": "uint256"
        },
        {
          "internalType": "enum AlertRegistry.Severity",
          "name": "severity",
          "type": "uint8"
        },
        {
          "internalType": "string",
          "name": "alertType",
          "type": "string"
        },
        {
          "internalType": "string",
          "name": "summary",
          "type": "string"
        },
        {
          "internalType": "uint256",
          "name": "blockNumber",
          "type": "uint256"
        },
        {
          "internalType": "uint256",
          "name": "timestamp",
          "type": "uint256"
        }
      ],
      "stateMutability": "view",
      "type": "function"
    },
    {
      "inputs": [
        {
          "internalType": "address",
          "name": "recorder",
          "type": "address"
        }
      ],
      "name": "authoriseRecorder",
      "outputs": [],
      "stateMutability": "nonpayable",
      "type": "function"
    },
    {
      "inputs": [
        {
          "internalType": "address",
          "name": "",
          "type": "address"
        }
      ],
      "name": "authorisedRecorders",
      "outputs": [
        {
          "internalType": "bool",
          "name": "",
          "type": "bool"
        }
      ],
      "stateMutability": "view",
      "type": "function"
    },
    {
      "inputs": [
        {
          "internalType": "uint256",
          "name": "alertId",
          "type": "uint256"
        }
      ],
      "name": "getAlert",
      "outputs": [
        {
          "components": [
            {
              "internalType": "uint256",
              "name": "id",
              "type": "uint256"
            },
            {
              "internalType": "address",
              "name": "triggeredBy",
              "type": "address"
            },
            {
              "internalType": "address",
              "name": "token",
              "type": "address"
            },
            {
              "internalType": "uint256",
              "name": "amount",
              "type": "uint256"
            },
            {
              "internalType": "enum AlertRegistry.Severity",
              "name": "severity",
              "type": "uint8"
            },
            {
              "internalType": "string",
              "name": "alertType",
              "type": "string"
            },
            {
              "internalType": "string",
              "name": "summary",
              "type": "string"
            },
            {
              "internalType": "uint256",
              "name": "blockNumber",
              "type": "uint256"
            },
            {
              "internalType": "uint256",
              "name": "timestamp",
              "type": "uint256"
            }
          ],
          "internalType": "struct AlertRegistry.Alert",
          "name": "",
          "type": "tuple"
        }
      ],
      "stateMutability": "view",
      "type": "function"
    },
    {
      "inputs": [
        {
          "internalType": "enum AlertRegistry.Severity",
          "name": "severity",
          "type": "uint8"
        }
      ],
      "name": "getAlertsBySeverity",
      "outputs": [
        {
          "components": [
            {
              "internalType": "uint256",
              "name": "id",
              "type": "uint256"
            },
            {
              "internalType": "address",
              "name": "triggeredBy",
              "type": "address"
            },
            {
              "internalType": "address",
              "name": "token",
              "type": "address"
            },
            {
              "internalType": "uint256",
              "name": "amount",
              "type": "uint256"
            },
            {
              "internalType": "enum AlertRegistry.Severity",
              "name": "severity",
              "type": "uint8"
            },
            {
              "internalType": "string",
              "name": "alertType",
              "type": "string"
            },
            {
              "internalType": "string",
              "name": "summary",
              "type": "string"
            },
            {
              "internalType": "uint256",
              "name": "blockNumber",
              "type": "uint256"
            },
            {
              "internalType": "uint256",
              "name": "timestamp",
              "type": "uint256"
            }
          ],
          "internalType": "struct AlertRegistry.Alert[]",
          "name": "",
          "type": "tuple[]"
        }
      ],
      "stateMutability": "view",
      "type": "function"
    },
    {
      "inputs": [
        {
          "internalType": "uint256",
          "name": "count",
          "type": "uint256"
        }
      ],
      "name": "getRecentAlerts",
      "outputs": [
        {
          "components": [
            {
              "internalType": "uint256",
              "name": "id",
              "type": "uint256"
            },
            {
              "internalType": "address",
              "name": "triggeredBy",
              "type": "address"
            },
            {
              "internalType": "address",
              "name": "token",
              "type": "address"
            },
            {
              "internalType": "uint256",
              "name": "amount",
              "type": "uint256"
            },
            {
              "internalType": "enum AlertRegistry.Severity",
              "name": "severity",
              "type": "uint8"
            },
            {
              "internalType": "string",
              "name": "alertType",
              "type": "string"
            },
            {
              "internalType": "string",
              "name": "summary",
              "type": "string"
            },
            {
              "internalType": "uint256",
              "name": "blockNumber",
              "type": "uint256"
            },
            {
              "internalType": "uint256",
              "name": "timestamp",
              "type": "uint256"
            }
          ],
          "internalType": "struct AlertRegistry.Alert[]",
          "name": "",
          "type": "tuple[]"
        }
      ],
      "stateMutability": "view",
      "type": "function"
    },
    {
      "inputs": [],
      "name": "owner",
      "outputs": [
        {
          "internalType": "address",
          "name": "",
          "type": "address"
        }
      ],
      "stateMutability": "view",
      "type": "function"
    },
    {
      "inputs": [
        {
          "internalType": "address",
          "name": "triggeredBy",
          "type": "address"
        },
        {
          "internalType": "address",
          "name": "token",
          "type": "address"
        },
        {
          "internalType": "uint256",
          "name": "amount",
          "type": "uint256"
        },
        {
          "internalType": "enum AlertRegistry.Severity",
          "name": "severity",
          "type": "uint8"
        },
        {
          "internalType": "string",
          "name": "alertType",
          "type": "string"
        },
        {
          "internalType": "string",
          "name": "summary",
          "type": "string"
        }
      ],
      "name": "recordAlert",
      "outputs": [
        {
          "internalType": "uint256",
          "name": "alertId",
          "type": "uint256"
        }
      ],
      "stateMutability": "nonpayable",
      "type": "function"
    },
    {
      "inputs": [],
      "name": "renounceOwnership",
      "outputs": [],
      "stateMutability": "nonpayable",
      "type": "function"
    },
    {
      "inputs": [
        {
          "internalType": "address",
          "name": "recorder",
          "type": "address"
        }
      ],
      "name": "revokeRecorder",
      "outputs": [],
      "stateMutability": "nonpayable",
      "type": "function"
    },
    {
      "inputs": [
        {
          "internalType": "address",
          "name": "newOwner",
          "type": "address"
        }
      ],
      "name": "transferOwnership",
      "outputs": [],
      "stateMutability": "nonpayable",
      "type": "function"
    }
  ],
  "bytecode": "0x608060405234801561001057600080fd5b50338061003757604051631e4fbdf760e01b81526000600482015260240160405180910390fd5b61004081610060565b50336000908152600360205260409020805460ff191660011790556100b0565b600080546001600160a01b038381166001600160a01b0319831681178455604051919092169283917f8be0079c531659141344cd1fd0a4f28419497f9722a3daafe3b4186f6b6457e09190a35050565b6115fd806100bf6000396000f3fe608060405234801561001057600080fd5b50600436106100b45760003560e01c80638da5cb5b116100715780638da5cb5b146101885780639a7dc342146101a3578063ab446491146101b6578063af23e87c146101bf578063b8663735146101d2578063f2fde38b146101e557600080fd5b806305c8f422146100b9578063171d073a146100e2578063715018a61461010a5780637ec0b33b1461011457806384a8147e146101475780638508188614610168575b600080fd5b6100cc6100c7366004611003565b6101f8565b6040516100d99190611151565b60405180910390f35b6100f56100f03660046111b5565b610536565b6040516100d9999897969594939291906111ce565b6101126106b5565b005b610137610122366004611258565b60036020526000908152604090205460ff1681565b60405190151581526020016100d9565b61015a6101553660046112bc565b6106c9565b6040519081526020016100d9565b61017b6101763660046111b5565b610960565b6040516100d99190611367565b6000546040516001600160a01b0390911681526020016100d9565b6100cc6101b13660046111b5565b610b85565b61015a60025481565b6101126101cd366004611258565b610e26565b6101126101e0366004611258565b610e8b565b6101126101f3366004611258565b610ee8565b60606000805b6002548110156102705783600381111561021a5761021a611025565b6001828154811061022d5761022d61137a565b600091825260209091206004600990920201015460ff16600381111561025557610255611025565b036102685781610264816113a6565b9250505b6001016101fe565b5060008167ffffffffffffffff81111561028c5761028c6113bf565b6040519080825280602002602001820160405280156102c557816020015b6102b2610fa3565b8152602001906001900390816102aa5790505b5090506000805b60025481101561052c578560038111156102e8576102e8611025565b600182815481106102fb576102fb61137a565b600091825260209091206004600990920201015460ff16600381111561032357610323611025565b03610524576001818154811061033b5761033b61137a565b6000918252602091829020604080516101208101825260099093029091018054835260018101546001600160a01b039081169484019490945260028101549093169082015260038083015460608301526004830154919291608084019160ff909116908111156103ad576103ad611025565b60038111156103be576103be611025565b81526020016005820180546103d2906113d5565b80601f01602080910402602001604051908101604052809291908181526020018280546103fe906113d5565b801561044b5780601f106104205761010080835404028352916020019161044b565b820191906000526020600020905b81548152906001019060200180831161042e57829003601f168201915b50505050508152602001600682018054610464906113d5565b80601f0160208091040260200160405190810160405280929190818152602001828054610490906113d5565b80156104dd5780601f106104b2576101008083540402835291602001916104dd565b820191906000526020600020905b8154815290600101906020018083116104c057829003601f168201915b5050505050815260200160078201548152602001600882015481525050838380610506906113a6565b9450815181106105185761051861137a565b60200260200101819052505b6001016102cc565b5090949350505050565b6001818154811061054657600080fd5b60009182526020909120600990910201805460018201546002830154600384015460048501546005860180549597506001600160a01b03948516969390941694919360ff9091169291610598906113d5565b80601f01602080910402602001604051908101604052809291908181526020018280546105c4906113d5565b80156106115780601f106105e657610100808354040283529160200191610611565b820191906000526020600020905b8154815290600101906020018083116105f457829003601f168201915b505050505090806006018054610626906113d5565b80601f0160208091040260200160405190810160405280929190818152602001828054610652906113d5565b801561069f5780601f106106745761010080835404028352916020019161069f565b820191906000526020600020905b81548152906001019060200180831161068257829003601f168201915b5050505050908060070154908060080154905089565b6106bd610f26565b6106c76000610f53565b565b3360009081526003602052604081205460ff16806106f157506000546001600160a01b031633145b6107425760405162461bcd60e51b815260206004820152601d60248201527f416c65727452656769737472793a206e6f7420617574686f726973656400000060448201526064015b60405180910390fd5b60028054906000610752836113a6565b91905055905060016040518061012001604052808381526020018b6001600160a01b031681526020018a6001600160a01b031681526020018981526020018860038111156107a2576107a2611025565b815260200187878080601f016020809104026020016040519081016040528093929190818152602001838380828437600092019190915250505090825250604080516020601f88018190048102820181019092528681529181019190879087908190840183828082843760009201829052509385525050436020808501919091524260409485015285546001808201885596845292819020855160099094020192835584015182860180546001600160a01b03199081166001600160a01b03938416179091559385015160028401805490951691161790925560608301516003808301919091556080840151600483018054959693959194509260ff199091169184908111156108b4576108b4611025565b021790555060a082015160058201906108cd9082611460565b5060c082015160068201906108e29082611460565b5060e0820151816007015561010082015181600801555050876001600160a01b0316896001600160a01b0316827fb9acc0a0e7cb65743a2a01f01d18c19e225c6c38e53fbb8eea715e025b25fc1f8a8a8a8a8a8a434260405161094c989796959493929190611549565b60405180910390a498975050505050505050565b610968610fa3565b60025482106109ac5760405162461bcd60e51b815260206004820152601060248201526f125b9d985b1a5908185b195c9d08125160821b6044820152606401610739565b600182815481106109bf576109bf61137a565b6000918252602091829020604080516101208101825260099093029091018054835260018101546001600160a01b039081169484019490945260028101549093169082015260038083015460608301526004830154919291608084019160ff90911690811115610a3157610a31611025565b6003811115610a4257610a42611025565b8152602001600582018054610a56906113d5565b80601f0160208091040260200160405190810160405280929190818152602001828054610a82906113d5565b8015610acf5780601f10610aa457610100808354040283529160200191610acf565b820191906000526020600020905b815481529060010190602001808311610ab257829003601f168201915b50505050508152602001600682018054610ae8906113d5565b80601f0160208091040260200160405190810160405280929190818152602001828054610b14906113d5565b8015610b615780601f10610b3657610100808354040283529160200191610b61565b820191906000526020600020905b815481529060010190602001808311610b4457829003601f168201915b50505050508152602001600782015481526020016008820154815250509050919050565b606060008260025411610b99576000610ba7565b82600254610ba7919061159b565b9050600081600254610bb9919061159b565b905060008167ffffffffffffffff811115610bd657610bd66113bf565b604051908082528060200260200182016040528015610c0f57816020015b610bfc610fa3565b815260200190600190039081610bf45790505b50905060005b82811015610e1d576001610c2982866115b4565b81548110610c3957610c3961137a565b6000918252602091829020604080516101208101825260099093029091018054835260018101546001600160a01b039081169484019490945260028101549093169082015260038083015460608301526004830154919291608084019160ff90911690811115610cab57610cab611025565b6003811115610cbc57610cbc611025565b8152602001600582018054610cd0906113d5565b80601f0160208091040260200160405190810160405280929190818152602001828054610cfc906113d5565b8015610d495780601f10610d1e57610100808354040283529160200191610d49565b820191906000526020600020905b815481529060010190602001808311610d2c57829003601f168201915b50505050508152602001600682018054610d62906113d5565b80601f0160208091040260200160405190810160405280929190818152602001828054610d8e906113d5565b8015610ddb5780601f10610db057610100808354040283529160200191610ddb565b820191906000526020600020905b815481529060010190602001808311610dbe57829003601f168201915b5050505050815260200160078201548152602001600882015481525050828281518110610e0a57610e0a61137a565b6020908102919091010152600101610c15565b50949350505050565b610e2e610f26565b6001600160a01b03811660008181526003602052604090819020805460ff19169055517fb97334beecbac5345d6033a740e223ae39f95795bc4f87bbb13968a7c33843ac90610e809042815260200190565b60405180910390a250565b610e93610f26565b6001600160a01b03811660008181526003602052604090819020805460ff19166001179055517fc3f73ad4e9e78fdd31a2773ac14cccba73704414571efb372dabfe9791b5ecaa90610e809042815260200190565b610ef0610f26565b6001600160a01b038116610f1a57604051631e4fbdf760e01b815260006004820152602401610739565b610f2381610f53565b50565b6000546001600160a01b031633146106c75760405163118cdaa760e01b8152336004820152602401610739565b600080546001600160a01b038381166001600160a01b0319831681178455604051919092169283917f8be0079c531659141344cd1fd0a4f28419497f9722a3daafe3b4186f6b6457e09190a35050565b6040805161012081018252600080825260208201819052918101829052606081018290529060808201908152602001606081526020016060815260200160008152602001600081525090565b803560048110610ffe57600080fd5b919050565b60006020828403121561101557600080fd5b61101e82610fef565b9392505050565b634e487b7160e01b600052602160045260246000fd5b6004811061105957634e487b7160e01b600052602160045260246000fd5b9052565b6000815180845260005b8181101561108357602081850181015186830182015201611067565b506000602082860101526020601f19601f83011685010191505092915050565b60006101208251845260208301516110c660208601826001600160a01b03169052565b5060408301516110e160408601826001600160a01b03169052565b506060830151606085015260808301516110fe608086018261103b565b5060a08301518160a08601526111168286018261105d565b91505060c083015184820360c0860152611130828261105d565b60e08581015190870152610100948501519490950193909352509192915050565b600060208083016020845280855180835260408601915060408160051b87010192506020870160005b828110156111a857603f198886030184526111968583516110a3565b9450928501929085019060010161117a565b5092979650505050505050565b6000602082840312156111c757600080fd5b5035919050565b8981526001600160a01b03898116602083015288166040820152606081018790526000610120611201608084018961103b565b8060a08401526112138184018861105d565b905082810360c0840152611227818761105d565b60e084019590955250506101000152979650505050505050565b80356001600160a01b0381168114610ffe57600080fd5b60006020828403121561126a57600080fd5b61101e82611241565b60008083601f84011261128557600080fd5b50813567ffffffffffffffff81111561129d57600080fd5b6020830191508360208285010111156112b557600080fd5b9250929050565b60008060008060008060008060c0898b0312156112d857600080fd5b6112e189611241565b97506112ef60208a01611241565b96506040890135955061130460608a01610fef565b9450608089013567ffffffffffffffff8082111561132157600080fd5b61132d8c838d01611273565b909650945060a08b013591508082111561134657600080fd5b506113538b828c01611273565b999c989b5096995094979396929594505050565b60208152600061101e60208301846110a3565b634e487b7160e01b600052603260045260246000fd5b634e487b7160e01b600052601160045260246000fd5b6000600182016113b8576113b8611390565b5060010190565b634e487b7160e01b600052604160045260246000fd5b600181811c908216806113e957607f821691505b60208210810361140957634e487b7160e01b600052602260045260246000fd5b50919050565b601f82111561145b576000816000526020600020601f850160051c810160208610156114385750805b601f850160051c820191505b8181101561145757828155600101611444565b5050505b505050565b815167ffffffffffffffff81111561147a5761147a6113bf565b61148e8161148884546113d5565b8461140f565b602080601f8311600181146114c357600084156114ab5750858301515b600019600386901b1c1916600185901b178555611457565b600085815260208120601f198616915b828110156114f2578886015182559484019460019091019084016114d3565b50858210156115105787850151600019600388901b60f8161c191681555b5050505050600190811b01905550565b81835281816020850137506000828201602090810191909152601f909101601f19169091010190565b888152611559602082018961103b565b60c06040820152600061157060c08301888a611520565b8281036060840152611583818789611520565b6080840195909552505060a001529695505050505050565b818103818111156115ae576115ae611390565b92915050565b808201808211156115ae576115ae61139056fea2646970667358221220d4dfd6e678390856409fa002bc8fe60e28dd7057031dd239d8a85529eae02dc164736f6c63430008180033",
  "linkReferences": {},
  "deployedLinkReferences": {}
}