{
  "_format": "hh-sol-artifact-1",
  "contractName": "GenesisVesting",
  "sourceName": "contracts/GenesisVesting.sol",
  "abi": [
    {
      "inputs": [],
      "stateMutability": "nonpayable",
      "type": "constructor"
    },
    {
      "inputs": [
        {
          "internalType": "address",
          "name": "owner",
          "type": "address"
        }
      ],
      "name": "OwnableInvalidOwner",
      "type": "error"
    },
    {
      "inputs": [
        {
          "internalType": "address",
          "name": "account",
          "type": "address"
        }
      ],
      "name": "OwnableUnauthorizedAccount",
      "type": "error"
    },
    {
      "inputs": [],
      "name": "ReentrancyGuardReentrantCall",
      "type": "error"
    },
    {
      "inputs": [
        {
          "internalType": "address",
          "name": "token",
          "type": "address"
        }
      ],
      "name": "SafeERC20FailedOperation",
      "type": "error"
    },
    {
      "anonymous": false,
      "inputs": [
        {
          "indexed": true,
          "internalType": "address",
          "name": "previousOwner",
          "type": "address"
        },
        {
          "indexed": true,
          "internalType": "address",
          "name": "newOwner",
          "type": "address"
        }
      ],
      "name": "OwnershipTransferred",
      "type": "event"
    },
    {
      "anonymous": false,
      "inputs": [
        {
          "indexed": true,
          "internalType": "uint256",
          "name": "scheduleId",
          "type": "uint256"
        },
        {
          "indexed": true,
          "internalType": "address",
          "name": "beneficiary",
          "type": "address"
        },
        {
          "indexed": false,
          "internalType": "uint256",
          "name": "amountClaimed",
          "type": "uint256"
        },
        {
          "indexed": false,
          "internalType": "uint256",
          "name": "totalClaimed",
          "type": "uint256"
        },
        {
          "indexed": false,
          "internalType": "uint256",
          "name": "remainingLocked",
          "type": "uint256"
        },
        {
          "indexed": false,
          "internalType": "uint256",
          "name": "timestamp",
          "type": "uint256"
        }
      ],
      "name": "TokensClaimed",
      "type": "event"
    },
    {
      "anonymous": false,
      "inputs": [
        {
          "indexed": true,
          "internalType": "uint256",
          "name": "scheduleId",
          "type": "uint256"
        },
        {
          "indexed": true,
          "internalType": "address",
          "name": "beneficiary",
          "type": "address"
        },
        {
          "indexed": false,
          "internalType": "string",
          "name": "milestone",
          "type": "string"
        },
        {
          "indexed": false,
          "internalType": "uint256",
          "name": "unlockedAmount",
          "type": "uint256"
        },
        {
          "indexed": false,
          "internalType": "uint256",
          "name": "timestamp",
          "type": "uint256"
        }
      ],
      "name": "UnlockMilestone",
      "type": "event"
    },
    {
      "anonymous": false,
      "inputs": [
        {
          "indexed": true,
          "internalType": "uint256",
          "name": "scheduleId",
          "type": "uint256"
        },
        {
          "indexed": true,
          "internalType": "address",
          "name": "beneficiary",
          "type": "address"
        },
        {
          "indexed": true,
          "internalType": "address",
          "name": "token",
          "type": "address"
        },
        {
          "indexed": false,
          "internalType": "uint256",
          "name": "totalAmount",
          "type": "uint256"
        },
        {
          "indexed": false,
          "internalType": "uint256",
          "name": "cliffDuration",
          "type": "uint256"
        },
        {
          "indexed": false,
          "internalType": "uint256",
          "name": "vestingDuration",
          "type": "uint256"
        },
        {
          "indexed": false,
          "internalType": "string",
          "name": "description",
          "type": "string"
        },
        {
          "indexed": false,
          "internalType": "uint256",
          "name": "timestamp",
          "type": "uint256"
        }
      ],
      "name": "VestingCreated",
      "type": "event"
    },
    {
      "anonymous": false,
      "inputs": [
        {
          "indexed": true,
          "internalType": "uint256",
          "name": "scheduleId",
          "type": "uint256"
        },
        {
          "indexed": true,
          "internalType": "address",
          "name": "beneficiary",
          "type": "address"
        },
        {
          "indexed": false,
          "internalType": "uint256",
          "name": "unvestedAmount",
          "type": "uint256"
        },
        {
          "indexed": false,
          "internalType": "uint256",
          "name": "vestedUnclaimed",
          "type": "uint256"
        },
        {
          "indexed": false,
          "internalType": "uint256",
          "name": "timestamp",
          "type": "uint256"
        }
      ],
      "name": "VestingRevoked",
      "type": "event"
    },
    {
      "inputs": [
        {
          "internalType": "address",
          "name": "",
          "type": "address"
        },
        {
          "internalType": "uint256",
          "name": "",
          "type": "uint256"
        }
      ],
      "name": "beneficiarySchedules",
      "outputs": [
        {
          "internalType": "uint256",
          "name": "",
          "type": "uint256"
        }
      ],
      "stateMutability": "view",
      "type": "function"
    },
    {
      "inputs": [
        {
          "internalType": "uint256",
          "name": "scheduleId",
          "type": "uint256"
        }
      ],
      "name": "claim",
      "outputs": [],
      "stateMutability": "nonpayable",
      "type": "function"
    },
    {
      "inputs": [
        {
          "internalType": "address",
          "name": "beneficiary",
          "type": "address"
        },
        {
          "internalType": "address",
          "name": "token",
          "type": "address"
        },
        {
          "internalType": "uint256",
          "name": "totalAmount",
          "type": "uint256"
        },
        {
          "internalType": "uint256",
          "name": "cliffDuration",
          "type": "uint256"
        },
        {
          "internalType": "uint256",
          "name": "vestingDuration",
          "type": "uint256"
        },
        {
          "internalType": "string",
          "name": "description",
          "type": "string"
        }
      ],
      "name": "createVesting",
      "outputs": [
        {
          "internalType": "uint256",
          "name": "scheduleId",
          "type": "uint256"
        }
      ],
      "stateMutability": "nonpayable",
      "type": "function"
    },
    {
      "inputs": [
        {
          "internalType": "address",
          "name": "beneficiary",
          "type": "address"
        }
      ],
      "name": "getBeneficiaryScheduleCount",
      "outputs": [
        {
          "internalType": "uint256",
          "name": "",
          "type": "uint256"
        }
      ],
      "stateMutability": "view",
      "type": "function"
    },
    {
      "inputs": [
        {
          "internalType": "uint256",
          "name": "scheduleId",
          "type": "uint256"
        }
      ],
      "name": "getClaimable",
      "outputs": [
        {
          "internalType": "uint256",
          "name": "",
          "type": "uint256"
        }
      ],
      "stateMutability": "view",
      "type": "function"
    },
    {
      "inputs": [],
      "name": "getScheduleCount",
      "outputs": [
        {
          "internalType": "uint256",
          "name": "",
          "type": "uint256"
        }
      ],
      "stateMutability": "view",
      "type": "function"
    },
    {
      "inputs": [
        {
          "internalType": "uint256",
          "name": "scheduleId",
          "type": "uint256"
        }
      ],
      "name": "getScheduleInfo",
      "outputs": [
        {
          "internalType": "address",
          "name": "beneficiary",
          "type": "address"
        },
        {
          "internalType": "uint256",
          "name": "totalAmount",
          "type": "uint256"
        },
        {
          "internalType": "uint256",
          "name": "claimedAmount",
          "type": "uint256"
        },
        {
          "internalType": "uint256",
          "name": "claimable",
          "type": "uint256"
        },
        {
          "internalType": "uint256",
          "name": "vestingProgress",
          "type": "uint256"
        },
        {
          "internalType": "bool",
          "name": "revoked",
          "type": "bool"
        },
        {
          "internalType": "string",
          "name": "description",
          "type": "string"
        }
      ],
      "stateMutability": "view",
      "type": "function"
    },
    {
      "inputs": [
        {
          "internalType": "uint256",
          "name": "scheduleId",
          "type": "uint256"
        }
      ],
      "name": "getVestedAmount",
      "outputs": [
        {
          "internalType": "uint256",
          "name": "",
          "type": "uint256"
        }
      ],
      "stateMutability": "view",
      "type": "function"
    },
    {
      "inputs": [],
      "name": "owner",
      "outputs": [
        {
          "internalType": "address",
          "name": "",
          "type": "address"
        }
      ],
      "stateMutability": "view",
      "type": "function"
    },
    {
      "inputs": [],
      "name": "renounceOwnership",
      "outputs": [],
      "stateMutability": "nonpayable",
      "type": "function"
    },
    {
      "inputs": [
        {
          "internalType": "uint256",
          "name": "scheduleId",
          "type": "uint256"
        }
      ],
      "name": "revoke",
      "outputs": [],
      "stateMutability": "nonpayable",
      "type": "function"
    },
    {
      "inputs": [
        {
          "internalType": "uint256",
          "name": "",
          "type": "uint256"
        }
      ],
      "name": "schedules",
      "outputs": [
        {
          "internalType": "address",
          "name": "beneficiary",
          "type": "address"
        },
        {
          "internalType": "address",
          "name": "token",
          "type": "address"
        },
        {
          "internalType": "uint256",
          "name": "totalAmount",
          "type": "uint256"
        },
        {
          "internalType": "uint256",
          "name": "claimedAmount",
          "type": "uint256"
        },
        {
          "internalType": "uint256",
          "name": "startTime",
          "type": "uint256"
        },
        {
          "internalType": "uint256",
          "name": "cliffDuration",
          "type": "uint256"
        },
        {
          "internalType": "uint256",
          "name": "vestingDuration",
          "type": "uint256"
        },
        {
          "internalType": "bool",
          "name": "revoked",
          "type": "bool"
        },
        {
          "internalType": "string",
          "name": "description",
          "type": "string"
        }
      ],
      "stateMutability": "view",
      "type": "function"
    },
    {
      "inputs": [
        {
          "internalType": "uint256",
          "name": "scheduleId",
          "type": "uint256"
        },
        {
          "internalType": "uint256",
          "name": "secondsToAdvance",
          "type": "uint256"
        }
      ],
      "name": "simulateTimePass",
      "outputs": [],
      "stateMutability": "nonpayable",
      "type": "function"
    },
    {
      "inputs": [
        {
          "internalType": "address",
          "name": "newOwner",
          "type": "address"
        }
      ],
      "name": "transferOwnership",
      "outputs": [],
      "stateMutability": "nonpayable",
      "type": "function"
    }
  ],
  "bytecode": "0x608060405234801561001057600080fd5b50338061003757604051631e4fbdf760e01b81526000600482015260240160405180910390fd5b6100408161004a565b506001805561009a565b600080546001600160a01b038381166001600160a01b0319831681178455604051919092169283917f8be0079c531659141344cd1fd0a4f28419497f9722a3daafe3b4186f6b6457e09190a35050565b6116b0806100a96000396000f3fe608060405234801561001057600080fd5b50600436106100ea5760003560e01c80638da5cb5b1161008c578063bb9f680311610066578063bb9f6803146101e1578063bdc6d9ab146101f4578063cafeedf61461021c578063f2fde38b1461022f57600080fd5b80638da5cb5b1461018a57806392124f74146101a55780639c7e4a66146101ce57600080fd5b8063379607f5116100c8578063379607f51461014657806346ca4241146101595780635a3c3c2c1461017a578063715018a61461018257600080fd5b8063033d5e4d146100ef57806320c5429b1461011e57806328bde39614610133575b600080fd5b6101026100fd3660046111c0565b610242565b604051610115979695949392919061121f565b60405180910390f35b61013161012c3660046111c0565b6103a2565b005b61013161014136600461126d565b6104f7565b6101316101543660046111c0565b6106aa565b61016c6101673660046112ab565b6108b0565b604051908152602001610115565b60025461016c565b6101316108e1565b6000546040516001600160a01b039091168152602001610115565b61016c6101b33660046112d5565b6001600160a01b031660009081526003602052604090205490565b61016c6101dc3660046111c0565b6108f5565b61016c6101ef3660046112f0565b610959565b6102076102023660046111c0565b610c6c565b604051610115999897969594939291906113a1565b61016c61022a3660046111c0565b610d66565b61013161023d3660046112d5565b610d97565b600080600080600080606060006002898154811061026257610262611404565b90600052602060002090600902019050600061027d82610dd2565b82546002840154600385015460078601549394506001600160a01b039092169290919060ff166102bb5760038501546102b69085611430565b6102be565b60005b60008660020154116102d15760006102eb565b60028601546102e1866064611443565b6102eb919061145a565b600787015460088801805460ff9092169181906103079061147c565b80601f01602080910402602001604051908101604052809291908181526020018280546103339061147c565b80156103805780601f1061035557610100808354040283529160200191610380565b820191906000526020600020905b81548152906001019060200180831161036357829003601f168201915b5050505050905098509850985098509850985098505050919395979092949650565b6103aa610e45565b6000600282815481106103bf576103bf611404565b60009182526020909120600990910201600781015490915060ff161561042c5760405162461bcd60e51b815260206004820152601860248201527f56657374696e673a20616c7265616479207265766f6b6564000000000000000060448201526064015b60405180910390fd5b600061043782610dd2565b9050600081836002015461044b9190611430565b9050600083600301548361045f9190611430565b60078501805460ff19166001179055905081156104a0576104a061048b6000546001600160a01b031690565b60018601546001600160a01b03169084610e72565b83546040805184815260208101849052428183015290516001600160a01b039092169187917fa7cb08ee7b67846b769009eb5d2d85f95afca90d233865e4cd48700ff20843aa919081900360600190a35050505050565b6104ff610e45565b60006002838154811061051457610514611404565b90600052602060002090600902019050818160040160008282546105389190611430565b909155506000905061054982610dd2565b905060008111801561055d57506003820154155b156106a4576002820154600090610575836064611443565b61057f919061145a565b905060608360050154846004015461059791906114b6565b42101580156105a7575060018210155b156105d6575060408051808201909152600d81526c18db1a599997dc995858da1959609a1b602082015261065f565b604b8210610605575060408051808201909152600a8152690dcd57dc195c98d95b9d60b21b602082015261065f565b60328210610634575060408051808201909152600a8152690d4c17dc195c98d95b9d60b21b602082015261065f565b6019821061065f575060408051808201909152600a8152690c8d57dc195c98d95b9d60b21b60208201525b8051156106a15783546040516001600160a01b0390911690879060008051602061165b83398151915290610698908590889042906114c9565b60405180910390a35b50505b50505050565b6106b2610ed6565b6000600282815481106106c7576106c7611404565b6000918252602090912060099091020180549091506001600160a01b031633146107335760405162461bcd60e51b815260206004820152601860248201527f56657374696e673a206e6f742062656e656669636961727900000000000000006044820152606401610423565b600781015460ff161561077b5760405162461bcd60e51b815260206004820152601060248201526f15995cdd1a5b99ce881c995d9bdad95960821b6044820152606401610423565b600061078682610dd2565b9050600082600301548261079a9190611430565b9050600081116107ec5760405162461bcd60e51b815260206004820152601960248201527f56657374696e673a206e6f7468696e6720746f20636c61696d000000000000006044820152606401610423565b8083600301600082825461080091906114b6565b909155505082546001840154610823916001600160a01b03918216911683610e72565b6000836003015484600201546108399190611430565b8454600386015460408051868152602081019290925281018390524260608201529192506001600160a01b03169086907f2f62eccdee750022975d46d1654619624e25a9fa5366ec935cd1ad229ae9829c9060800160405180910390a36108a08585610f00565b505050506108ad60018055565b50565b600360205281600052604060002081815481106108cc57600080fd5b90600052602060002001600091509150505481565b6108e9610e45565b6108f360006110c6565b565b6000806002838154811061090b5761090b611404565b60009182526020909120600990910201600781015490915060ff16156109345750600092915050565b600061093f82610dd2565b90508160030154816109519190611430565b949350505050565b6000610963610e45565b6001600160a01b0388166109b15760405162461bcd60e51b815260206004820152601560248201527456657374696e673a207a65726f206164647265737360581b6044820152606401610423565b600086116109f85760405162461bcd60e51b815260206004820152601460248201527315995cdd1a5b99ce881e995c9bc8185b5bdd5b9d60621b6044820152606401610423565b84841015610a485760405162461bcd60e51b815260206004820152601960248201527f56657374696e673a206475726174696f6e203c20636c696666000000000000006044820152606401610423565b60008411610a915760405162461bcd60e51b81526020600482015260166024820152752b32b9ba34b7339d103d32b93790323ab930ba34b7b760511b6044820152606401610423565b610aa66001600160a01b038816333089611116565b600280549050905060026040518061012001604052808a6001600160a01b03168152602001896001600160a01b031681526020018881526020016000815260200142815260200187815260200186815260200160001515815260200185858080601f0160208091040260200160405190810160405280939291908181526020018383808284376000920182905250939094525050835460018082018655948252602091829020845160099092020180546001600160a01b03199081166001600160a01b03938416178255928501519581018054909316959091169490941790555060408101516002830155606081015160038301556080810151600483015560a0810151600583015560c0810151600683015560e081015160078301805460ff19169115159190911790556101008101519091906008820190610be9908261154c565b5050506001600160a01b03808916600081815260036020908152604080832080546001810182559084529190922001849055519189169183907fdec72aa787eb0a8c2a8dc3c4d477b07c3e0e53c3da39bdd2292de137598d89a090610c59908b908b908b908b908b90429061160c565b60405180910390a4979650505050505050565b60028181548110610c7c57600080fd5b60009182526020909120600990910201805460018201546002830154600384015460048501546005860154600687015460078801546008890180546001600160a01b03998a169b5098909716989597949693959294919360ff9091169291610ce39061147c565b80601f0160208091040260200160405190810160405280929190818152602001828054610d0f9061147c565b8015610d5c5780601f10610d3157610100808354040283529160200191610d5c565b820191906000526020600020905b815481529060010190602001808311610d3f57829003601f168201915b5050505050905089565b6000610d9160028381548110610d7e57610d7e611404565b9060005260206000209060090201610dd2565b92915050565b610d9f610e45565b6001600160a01b038116610dc957604051631e4fbdf760e01b815260006004820152602401610423565b6108ad816110c6565b600081600501548260040154610de891906114b6565b421015610df757506000919050565b6000826004015442610e099190611430565b905082600601548110610e1f5750506002015490565b8260060154818460020154610e349190611443565b610e3e919061145a565b9392505050565b6000546001600160a01b031633146108f35760405163118cdaa760e01b8152336004820152602401610423565b6040516001600160a01b03838116602483015260448201839052610ed191859182169063a9059cbb906064015b604051602081830303815290604052915060e01b6020820180516001600160e01b03838183161783525050505061114f565b505050565b600260015403610ef957604051633ee5aeb560e01b815260040160405180910390fd5b6002600155565b6000816002015482600301546064610f189190611443565b610f22919061145a565b90508160020154826003015403610f9a5781546002830154604080516060808252600c908201526b199d5b1b1e57dd995cdd195960a21b6080820152602081019290925242908201526001600160a01b0390911690849060008051602061165b8339815191529060a0015b60405180910390a3505050565b604b8110610ffe5781546003830154604080516060808252600a90820152690dcd57dc195c98d95b9d60b21b6080820152602081019290925242908201526001600160a01b0390911690849060008051602061165b8339815191529060a001610f8d565b603281106110625781546003830154604080516060808252600a90820152690d4c17dc195c98d95b9d60b21b6080820152602081019290925242908201526001600160a01b0390911690849060008051602061165b8339815191529060a001610f8d565b60198110610ed15781546003830154604080516060808252600a90820152690c8d57dc195c98d95b9d60b21b6080820152602081019290925242908201526001600160a01b0390911690849060008051602061165b8339815191529060a001610f8d565b600080546001600160a01b038381166001600160a01b0319831681178455604051919092169283917f8be0079c531659141344cd1fd0a4f28419497f9722a3daafe3b4186f6b6457e09190a35050565b6040516001600160a01b0384811660248301528381166044830152606482018390526106a49186918216906323b872dd90608401610e9f565b600080602060008451602086016000885af180611172576040513d6000823e3d81fd5b50506000513d9150811561118a578060011415611197565b6001600160a01b0384163b155b156106a457604051635274afe760e01b81526001600160a01b0385166004820152602401610423565b6000602082840312156111d257600080fd5b5035919050565b6000815180845260005b818110156111ff576020818501810151868301820152016111e3565b506000602082860101526020601f19601f83011685010191505092915050565b60018060a01b038816815286602082015285604082015284606082015283608082015282151560a082015260e060c0820152600061126060e08301846111d9565b9998505050505050505050565b6000806040838503121561128057600080fd5b50508035926020909101359150565b80356001600160a01b03811681146112a657600080fd5b919050565b600080604083850312156112be57600080fd5b6112c78361128f565b946020939093013593505050565b6000602082840312156112e757600080fd5b610e3e8261128f565b600080600080600080600060c0888a03121561130b57600080fd5b6113148861128f565b96506113226020890161128f565b955060408801359450606088013593506080880135925060a088013567ffffffffffffffff8082111561135457600080fd5b818a0191508a601f83011261136857600080fd5b81358181111561137757600080fd5b8b602082850101111561138957600080fd5b60208301945080935050505092959891949750929550565b600061012060018060a01b03808d168452808c166020850152508960408401528860608401528760808401528660a08401528560c084015284151560e0840152806101008401526113f4818401856111d9565b9c9b505050505050505050505050565b634e487b7160e01b600052603260045260246000fd5b634e487b7160e01b600052601160045260246000fd5b81810381811115610d9157610d9161141a565b8082028115828204841417610d9157610d9161141a565b60008261147757634e487b7160e01b600052601260045260246000fd5b500490565b600181811c9082168061149057607f821691505b6020821081036114b057634e487b7160e01b600052602260045260246000fd5b50919050565b80820180821115610d9157610d9161141a565b6060815260006114dc60608301866111d9565b60208301949094525060400152919050565b634e487b7160e01b600052604160045260246000fd5b601f821115610ed1576000816000526020600020601f850160051c8101602086101561152d5750805b601f850160051c820191505b818110156106a157828155600101611539565b815167ffffffffffffffff811115611566576115666114ee565b61157a81611574845461147c565b84611504565b602080601f8311600181146115af57600084156115975750858301515b600019600386901b1c1916600185901b1785556106a1565b600085815260208120601f198616915b828110156115de578886015182559484019460019091019084016115bf565b50858210156115fc5787850151600019600388901b60f8161c191681555b5050505050600190811b01905550565b86815285602082015284604082015260a060608201528260a0820152828460c0830137600060c08483010152600060c0601f19601f860116830101905082608083015297965050505050505056fe7f5a156af65e9c0b07d8a6e2bb9cd5cedc8b4a1887ee9487124480c381745216a2646970667358221220c6527c82bf0d52a136576a6fd71cb4a73f4df04e8d006b6482f7d01839f9d93e64736f6c63430008180033",
  "linkReferences": {},
  "deployedLinkReferences": {}
}