{
  "_format": "hh-sol-artifact-1",
  "contractName": "ThresholdEngine",
  "sourceName": "contracts/ThresholdEngine.sol",
  "abi": [
    {
      "inputs": [],
      "stateMutability": "nonpayable",
      "type": "constructor"
    },
    {
      "inputs": [
        {
          "internalType": "address",
          "name": "owner",
          "type": "address"
        }
      ],
      "name": "OwnableInvalidOwner",
      "type": "error"
    },
    {
      "inputs": [
        {
          "internalType": "address",
          "name": "account",
          "type": "address"
        }
      ],
      "name": "OwnableUnauthorizedAccount",
      "type": "error"
    },
    {
      "anonymous": false,
      "inputs": [
        {
          "indexed": true,
          "internalType": "uint256",
          "name": "ruleIndex",
          "type": "uint256"
        },
        {
          "indexed": false,
          "internalType": "address",
          "name": "token",
          "type": "address"
        },
        {
          "indexed": false,
          "internalType": "enum ThresholdEngine.AlertType",
          "name": "alertType",
          "type": "uint8"
        },
        {
          "indexed": false,
          "internalType": "uint256",
          "name": "threshold",
          "type": "uint256"
        },
        {
          "indexed": false,
          "internalType": "string",
          "name": "description",
          "type": "string"
        },
        {
          "indexed": false,
          "internalType": "uint256",
          "name": "timestamp",
          "type": "uint256"
        }
      ],
      "name": "GlobalThresholdSet",
      "type": "event"
    },
    {
      "anonymous": false,
      "inputs": [
        {
          "indexed": true,
          "internalType": "address",
          "name": "previousOwner",
          "type": "address"
        },
        {
          "indexed": true,
          "internalType": "address",
          "name": "newOwner",
          "type": "address"
        }
      ],
      "name": "OwnershipTransferred",
      "type": "event"
    },
    {
      "anonymous": false,
      "inputs": [
        {
          "indexed": true,
          "internalType": "address",
          "name": "user",
          "type": "address"
        },
        {
          "indexed": true,
          "internalType": "uint256",
          "name": "ruleIndex",
          "type": "uint256"
        },
        {
          "indexed": false,
          "internalType": "uint256",
          "name": "timestamp",
          "type": "uint256"
        }
      ],
      "name": "ThresholdRemoved",
      "type": "event"
    },
    {
      "anonymous": false,
      "inputs": [
        {
          "indexed": true,
          "internalType": "address",
          "name": "user",
          "type": "address"
        },
        {
          "indexed": true,
          "internalType": "uint256",
          "name": "ruleIndex",
          "type": "uint256"
        },
        {
          "indexed": false,
          "internalType": "address",
          "name": "token",
          "type": "address"
        },
        {
          "indexed": false,
          "internalType": "enum ThresholdEngine.AlertType",
          "name": "alertType",
          "type": "uint8"
        },
        {
          "indexed": false,
          "internalType": "uint256",
          "name": "threshold",
          "type": "uint256"
        },
        {
          "indexed": false,
          "internalType": "uint256",
          "name": "cooldownSec",
          "type": "uint256"
        },
        {
          "indexed": false,
          "internalType": "string",
          "name": "description",
          "type": "string"
        },
        {
          "indexed": false,
          "internalType": "uint256",
          "name": "timestamp",
          "type": "uint256"
        }
      ],
      "name": "ThresholdSet",
      "type": "event"
    },
    {
      "anonymous": false,
      "inputs": [
        {
          "indexed": true,
          "internalType": "address",
          "name": "user",
          "type": "address"
        },
        {
          "indexed": true,
          "internalType": "uint256",
          "name": "ruleIndex",
          "type": "uint256"
        },
        {
          "indexed": false,
          "internalType": "uint256",
          "name": "oldThreshold",
          "type": "uint256"
        },
        {
          "indexed": false,
          "internalType": "uint256",
          "name": "newThreshold",
          "type": "uint256"
        },
        {
          "indexed": false,
          "internalType": "uint256",
          "name": "timestamp",
          "type": "uint256"
        }
      ],
      "name": "ThresholdUpdated",
      "type": "event"
    },
    {
      "inputs": [
        {
          "internalType": "uint256",
          "name": "",
          "type": "uint256"
        }
      ],
      "name": "activeUsers",
      "outputs": [
        {
          "internalType": "address",
          "name": "",
          "type": "address"
        }
      ],
      "stateMutability": "view",
      "type": "function"
    },
    {
      "inputs": [
        {
          "internalType": "address",
          "name": "user",
          "type": "address"
        }
      ],
      "name": "getActiveThresholds",
      "outputs": [
        {
          "components": [
            {
              "internalType": "address",
              "name": "token",
              "type": "address"
            },
            {
              "internalType": "enum ThresholdEngine.AlertType",
              "name": "alertType",
              "type": "uint8"
            },
            {
              "internalType": "uint256",
              "name": "threshold",
              "type": "uint256"
            },
            {
              "internalType": "uint256",
              "name": "cooldownSec",
              "type": "uint256"
            },
            {
              "internalType": "bool",
              "name": "enabled",
              "type": "bool"
            },
            {
              "internalType": "string",
              "name": "description",
              "type": "string"
            }
          ],
          "internalType": "struct ThresholdEngine.ThresholdRule[]",
          "name": "",
          "type": "tuple[]"
        }
      ],
      "stateMutability": "view",
      "type": "function"
    },
    {
      "inputs": [],
      "name": "getActiveUserCount",
      "outputs": [
        {
          "internalType": "uint256",
          "name": "",
          "type": "uint256"
        }
      ],
      "stateMutability": "view",
      "type": "function"
    },
    {
      "inputs": [],
      "name": "getGlobalRuleCount",
      "outputs": [
        {
          "internalType": "uint256",
          "name": "",
          "type": "uint256"
        }
      ],
      "stateMutability": "view",
      "type": "function"
    },
    {
      "inputs": [
        {
          "internalType": "address",
          "name": "user",
          "type": "address"
        },
        {
          "internalType": "uint256",
          "name": "index",
          "type": "uint256"
        }
      ],
      "name": "getUserRule",
      "outputs": [
        {
          "components": [
            {
              "internalType": "address",
              "name": "token",
              "type": "address"
            },
            {
              "internalType": "enum ThresholdEngine.AlertType",
              "name": "alertType",
              "type": "uint8"
            },
            {
              "internalType": "uint256",
              "name": "threshold",
              "type": "uint256"
            },
            {
              "internalType": "uint256",
              "name": "cooldownSec",
              "type": "uint256"
            },
            {
              "internalType": "bool",
              "name": "enabled",
              "type": "bool"
            },
            {
              "internalType": "string",
              "name": "description",
              "type": "string"
            }
          ],
          "internalType": "struct ThresholdEngine.ThresholdRule",
          "name": "",
          "type": "tuple"
        }
      ],
      "stateMutability": "view",
      "type": "function"
    },
    {
      "inputs": [
        {
          "internalType": "address",
          "name": "user",
          "type": "address"
        }
      ],
      "name": "getUserRuleCount",
      "outputs": [
        {
          "internalType": "uint256",
          "name": "",
          "type": "uint256"
        }
      ],
      "stateMutability": "view",
      "type": "function"
    },
    {
      "inputs": [
        {
          "internalType": "uint256",
          "name": "",
          "type": "uint256"
        }
      ],
      "name": "globalRules",
      "outputs": [
        {
          "internalType": "address",
          "name": "token",
          "type": "address"
        },
        {
          "internalType": "enum ThresholdEngine.AlertType",
          "name": "alertType",
          "type": "uint8"
        },
        {
          "internalType": "uint256",
          "name": "threshold",
          "type": "uint256"
        },
        {
          "internalType": "uint256",
          "name": "cooldownSec",
          "type": "uint256"
        },
        {
          "internalType": "bool",
          "name": "enabled",
          "type": "bool"
        },
        {
          "internalType": "string",
          "name": "description",
          "type": "string"
        }
      ],
      "stateMutability": "view",
      "type": "function"
    },
    {
      "inputs": [],
      "name": "owner",
      "outputs": [
        {
          "internalType": "address",
          "name": "",
          "type": "address"
        }
      ],
      "stateMutability": "view",
      "type": "function"
    },
    {
      "inputs": [
        {
          "internalType": "uint256",
          "name": "ruleIndex",
          "type": "uint256"
        }
      ],
      "name": "removeThreshold",
      "outputs": [],
      "stateMutability": "nonpayable",
      "type": "function"
    },
    {
      "inputs": [],
      "name": "renounceOwnership",
      "outputs": [],
      "stateMutability": "nonpayable",
      "type": "function"
    },
    {
      "inputs": [
        {
          "internalType": "address",
          "name": "token",
          "type": "address"
        },
        {
          "internalType": "enum ThresholdEngine.AlertType",
          "name": "alertType",
          "type": "uint8"
        },
        {
          "internalType": "uint256",
          "name": "threshold",
          "type": "uint256"
        },
        {
          "internalType": "uint256",
          "name": "cooldownSec",
          "type": "uint256"
        },
        {
          "internalType": "string",
          "name": "description",
          "type": "string"
        }
      ],
      "name": "setGlobalThreshold",
      "outputs": [
        {
          "internalType": "uint256",
          "name": "ruleIndex",
          "type": "uint256"
        }
      ],
      "stateMutability": "nonpayable",
      "type": "function"
    },
    {
      "inputs": [
        {
          "internalType": "address",
          "name": "token",
          "type": "address"
        },
        {
          "internalType": "enum ThresholdEngine.AlertType",
          "name": "alertType",
          "type": "uint8"
        },
        {
          "internalType": "uint256",
          "name": "threshold",
          "type": "uint256"
        },
        {
          "internalType": "uint256",
          "name": "cooldownSec",
          "type": "uint256"
        },
        {
          "internalType": "string",
          "name": "description",
          "type": "string"
        }
      ],
      "name": "setThreshold",
      "outputs": [
        {
          "internalType": "uint256",
          "name": "ruleIndex",
          "type": "uint256"
        }
      ],
      "stateMutability": "nonpayable",
      "type": "function"
    },
    {
      "inputs": [
        {
          "internalType": "address",
          "name": "newOwner",
          "type": "address"
        }
      ],
      "name": "transferOwnership",
      "outputs": [],
      "stateMutability": "nonpayable",
      "type": "function"
    },
    {
      "inputs": [
        {
          "internalType": "uint256",
          "name": "ruleIndex",
          "type": "uint256"
        },
        {
          "internalType": "uint256",
          "name": "newThreshold",
          "type": "uint256"
        }
      ],
      "name": "updateThreshold",
      "outputs": [],
      "stateMutability": "nonpayable",
      "type": "function"
    },
    {
      "inputs": [
        {
          "internalType": "address",
          "name": "",
          "type": "address"
        },
        {
          "internalType": "uint256",
          "name": "",
          "type": "uint256"
        }
      ],
      "name": "userRules",
      "outputs": [
        {
          "internalType": "address",
          "name": "token",
          "type": "address"
        },
        {
          "internalType": "enum ThresholdEngine.AlertType",
          "name": "alertType",
          "type": "uint8"
        },
        {
          "internalType": "uint256",
          "name": "threshold",
          "type": "uint256"
        },
        {
          "internalType": "uint256",
          "name": "cooldownSec",
          "type": "uint256"
        },
        {
          "internalType": "bool",
          "name": "enabled",
          "type": "bool"
        },
        {
          "internalType": "string",
          "name": "description",
          "type": "string"
        }
      ],
      "stateMutability": "view",
      "type": "function"
    }
  ],
  "bytecode": "0x608060405234801561001057600080fd5b50338061003757604051631e4fbdf760e01b81526000600482015260240160405180910390fd5b61004081610046565b50610096565b600080546001600160a01b038381166001600160a01b0319831681178455604051919092169283917f8be0079c531659141344cd1fd0a4f28419497f9722a3daafe3b4186f6b6457e09190a35050565b6116d9806100a56000396000f3fe608060405234801561001057600080fd5b50600436106100f55760003560e01c8063729929481161009757806393069bb71161006657806393069bb7146101fd578063d4b308d814610210578063efb3d2c014610223578063f2fde38b1461024c57600080fd5b8063729929481461019b578063803ae518146101ae5780638baaf15b146101d95780638da5cb5b146101ec57600080fd5b806326ef91db116100d357806326ef91db146101515780633fa2fe7a1461017657806351a04a0c1461017e578063715018a61461019357600080fd5b8063052c284a146100fa57806307b4a275146101115780631be783bb14610131575b600080fd5b6002545b6040519081526020015b60405180910390f35b61012461011f36600461114d565b61025f565b6040516101089190611259565b61014461013f366004611273565b6103e9565b604051610108919061128e565b61016461015f3660046112f2565b6108bb565b6040516101089695949392919061130b565b6003546100fe565b61019161018c3660046112f2565b61099f565b005b610191610a75565b6100fe6101a936600461135a565b610a89565b6101c16101bc3660046112f2565b610cf7565b6040516001600160a01b039091168152602001610108565b6101646101e736600461114d565b610d21565b6000546001600160a01b03166101c1565b6100fe61020b36600461135a565b610d90565b61019161021e366004611406565b610f23565b6100fe610231366004611273565b6001600160a01b031660009081526001602052604090205490565b61019161025a366004611273565b611076565b61029b6040805160c081019091526000808252602082019081526020016000815260200160008152602001600015158152602001606081525090565b6001600160a01b03831660009081526001602052604090208054839081106102c5576102c5611428565b60009182526020918290206040805160c0810190915260059092020180546001600160a01b0381168352919290919083019060ff600160a01b90910416600381111561031357610313611177565b600381111561032457610324611177565b81526001820154602082015260028201546040820152600382015460ff161515606082015260048201805460809092019161035e9061143e565b80601f016020809104026020016040519081016040528092919081815260200182805461038a9061143e565b80156103d75780601f106103ac576101008083540402835291602001916103d7565b820191906000526020600020905b8154815290600101906020018083116103ba57829003601f168201915b50505050508152505090505b92915050565b6001600160a01b038116600090815260016020526040812054600254606092805b8381101561046e576001600160a01b038616600090815260016020526040902080548290811061043c5761043c611428565b600091825260209091206003600590920201015460ff161561046657816104628161148e565b9250505b60010161040a565b5060005b828110156104bf576002818154811061048d5761048d611428565b600091825260209091206003600590920201015460ff16156104b757816104b38161148e565b9250505b600101610472565b5060008167ffffffffffffffff8111156104db576104db6114a7565b60405190808252806020026020018201604052801561054857816020015b6105356040805160c081019091526000808252602082019081526020016000815260200160008152602001600015158152602001606081525090565b8152602001906001900390816104f95790505b5090506000805b85811015610714576001600160a01b038816600090815260016020526040902080548290811061058157610581611428565b600091825260209091206003600590920201015460ff161561070c576001600160a01b03881660009081526001602052604090208054829081106105c7576105c7611428565b60009182526020918290206040805160c0810190915260059092020180546001600160a01b0381168352919290919083019060ff600160a01b90910416600381111561061557610615611177565b600381111561062657610626611177565b81526001820154602082015260028201546040820152600382015460ff16151560608201526004820180546080909201916106609061143e565b80601f016020809104026020016040519081016040528092919081815260200182805461068c9061143e565b80156106d95780601f106106ae576101008083540402835291602001916106d9565b820191906000526020600020905b8154815290600101906020018083116106bc57829003601f168201915b5050505050815250508383806106ee9061148e565b94508151811061070057610700611428565b60200260200101819052505b60010161054f565b5060005b848110156108af576002818154811061073357610733611428565b600091825260209091206003600590920201015460ff16156108a7576002818154811061076257610762611428565b60009182526020918290206040805160c0810190915260059092020180546001600160a01b0381168352919290919083019060ff600160a01b9091041660038111156107b0576107b0611177565b60038111156107c1576107c1611177565b81526001820154602082015260028201546040820152600382015460ff16151560608201526004820180546080909201916107fb9061143e565b80601f01602080910402602001604051908101604052809291908181526020018280546108279061143e565b80156108745780601f1061084957610100808354040283529160200191610874565b820191906000526020600020905b81548152906001019060200180831161085757829003601f168201915b5050505050815250508383806108899061148e565b94508151811061089b5761089b611428565b60200260200101819052505b600101610718565b50909695505050505050565b600281815481106108cb57600080fd5b6000918252602090912060059091020180546001820154600283015460038401546004850180546001600160a01b0386169750600160a01b90950460ff908116969495939492169261091c9061143e565b80601f01602080910402602001604051908101604052809291908181526020018280546109489061143e565b80156109955780601f1061096a57610100808354040283529160200191610995565b820191906000526020600020905b81548152906001019060200180831161097857829003601f168201915b5050505050905086565b3360009081526001602052604090205481106109f75760405162461bcd60e51b8152602060048201526012602482015271092dcecc2d8d2c840e4ead8ca40d2dcc8caf60731b60448201526064015b60405180910390fd5b336000908152600160205260408120805483908110610a1857610a18611428565b600091825260209182902060059190910201600301805460ff191692151592909217909155604051428152829133917f0f67f1064c44d5df4b3a062cfb9f50bfc612ec98790143a5297649484f54acfa910160405180910390a350565b610a7d6110b4565b610a8760006110e1565b565b6000808511610ad25760405162461bcd60e51b815260206004820152601560248201527405468726573686f6c64206d757374206265203e203605c1b60448201526064016109ee565b60006040518060c00160405280896001600160a01b03168152602001886003811115610b0057610b00611177565b815260200187815260200186815260200160011515815260200185858080601f0160208091040260200160405190810160405280939291908181526020018383808284376000920182905250939094525050338152600160208181526040832080549283018155835291829020845160059092020180546001600160a01b03929092166001600160a01b03198316811782559285015194955085949093509183916001600160a81b03191617600160a01b836003811115610bc357610bc3611177565b02179055506040820151600182015560608201516002820155608082015160038201805460ff191691151591909117905560a08201516004820190610c08908261150e565b505033600090815260016020819052604090912054610c2792506115ce565b3360009081526004602052604090205490925060ff16610c9e57336000818152600460205260408120805460ff191660019081179091556003805491820181559091527fc2575a0e9e593c00f959f8c92f12db2869c3395a3b0502d05e2516446f71f85b0180546001600160a01b03191690911790555b81336001600160a01b03167f5cd631f9580d8bf8f21b560f87a17c09d0be8549427434dc6a53c707cd56b1708a8a8a8a8a8a42604051610ce4979695949392919061160a565b60405180910390a3509695505050505050565b60038181548110610d0757600080fd5b6000918252602090912001546001600160a01b0316905081565b60016020528160005260406000208181548110610d3d57600080fd5b6000918252602090912060059091020180546001820154600283015460038401546004850180546001600160a01b038616985060ff600160a01b9096048616975093959294919091169261091c9061143e565b6000610d9a6110b4565b60026040518060c00160405280896001600160a01b03168152602001886003811115610dc857610dc8611177565b815260200187815260200186815260200160011515815260200185858080601f01602080910402602001604051908101604052809392919081815260200183838082843760009201829052509390945250508354600181018555938152602090819020835160059095020180546001600160a01b031981166001600160a01b0390961695861782559184015193949093925083916001600160a81b03191617600160a01b836003811115610e7e57610e7e611177565b02179055506040820151600182015560608201516002820155608082015160038201805460ff191691151591909117905560a08201516004820190610ec3908261150e565b5050600254610ed591506001906115ce565b9050807f1406539b7110cbe5f065a2f21af68c0de5ca4309df6ddf909d2a1c63f38ef88d888888878742604051610f119695949392919061165a565b60405180910390a29695505050505050565b336000908152600160205260409020548210610f765760405162461bcd60e51b8152602060048201526012602482015271092dcecc2d8d2c840e4ead8ca40d2dcc8caf60731b60448201526064016109ee565b60008111610fbe5760405162461bcd60e51b815260206004820152601560248201527405468726573686f6c64206d757374206265203e203605c1b60448201526064016109ee565b336000908152600160205260408120805484908110610fdf57610fdf611428565b6000918252602080832060016005909302018201543384529190526040909120805491925083918590811061101657611016611428565b600091825260209182902060016005909202010191909155604080518381529182018490524290820152839033907f49665851c2c1601b5b00da6af7926daca0e07b35b4804bc3a13bee80c0891e2b9060600160405180910390a3505050565b61107e6110b4565b6001600160a01b0381166110a857604051631e4fbdf760e01b8152600060048201526024016109ee565b6110b1816110e1565b50565b6000546001600160a01b03163314610a875760405163118cdaa760e01b81523360048201526024016109ee565b600080546001600160a01b038381166001600160a01b0319831681178455604051919092169283917f8be0079c531659141344cd1fd0a4f28419497f9722a3daafe3b4186f6b6457e09190a35050565b80356001600160a01b038116811461114857600080fd5b919050565b6000806040838503121561116057600080fd5b61116983611131565b946020939093013593505050565b634e487b7160e01b600052602160045260246000fd5b600481106111ab57634e487b7160e01b600052602160045260246000fd5b9052565b6000815180845260005b818110156111d5576020818501810151868301820152016111b9565b506000602082860101526020601f19601f83011685010191505092915050565b80516001600160a01b031682526020808201516000916112179085018261118d565b50604082015160408401526060820151606084015260808201511515608084015260a082015160c060a085015261125160c08501826111af565b949350505050565b60208152600061126c60208301846111f5565b9392505050565b60006020828403121561128557600080fd5b61126c82611131565b600060208083016020845280855180835260408601915060408160051b87010192506020870160005b828110156112e557603f198886030184526112d38583516111f5565b945092850192908501906001016112b7565b5092979650505050505050565b60006020828403121561130457600080fd5b5035919050565b6001600160a01b0387168152611324602082018761118d565b846040820152836060820152821515608082015260c060a0820152600061134e60c08301846111af565b98975050505050505050565b60008060008060008060a0878903121561137357600080fd5b61137c87611131565b955060208701356004811061139057600080fd5b94506040870135935060608701359250608087013567ffffffffffffffff808211156113bb57600080fd5b818901915089601f8301126113cf57600080fd5b8135818111156113de57600080fd5b8a60208285010111156113f057600080fd5b6020830194508093505050509295509295509295565b6000806040838503121561141957600080fd5b50508035926020909101359150565b634e487b7160e01b600052603260045260246000fd5b600181811c9082168061145257607f821691505b60208210810361147257634e487b7160e01b600052602260045260246000fd5b50919050565b634e487b7160e01b600052601160045260246000fd5b6000600182016114a0576114a0611478565b5060010190565b634e487b7160e01b600052604160045260246000fd5b601f821115611509576000816000526020600020601f850160051c810160208610156114e65750805b601f850160051c820191505b81811015611505578281556001016114f2565b5050505b505050565b815167ffffffffffffffff811115611528576115286114a7565b61153c81611536845461143e565b846114bd565b602080601f83116001811461157157600084156115595750858301515b600019600386901b1c1916600185901b178555611505565b600085815260208120601f198616915b828110156115a057888601518255948401946001909101908401611581565b50858210156115be5787850151600019600388901b60f8161c191681555b5050505050600190811b01905550565b818103818111156103e3576103e3611478565b81835281816020850137506000828201602090810191909152601f909101601f19169091010190565b6001600160a01b0388168152611623602082018861118d565b85604082015284606082015260c06080820152600061164660c0830185876115e1565b90508260a083015298975050505050505050565b6001600160a01b0387168152611673602082018761118d565b84604082015260a06060820152600061169060a0830185876115e1565b905082608083015297965050505050505056fea26469706673582212206074c74427f15ddd8b729f286a37e988a15894b5ffe11bba14a3b5089a8c504864736f6c63430008180033",
  "linkReferences": {},
  "deployedLinkReferences": {}
}